{
  "_format": "hh-sol-artifact-1",
  "contractName": "CoreVault",
  "sourceName": "contracts/vault.sol",
  "abi": [
    {
      "inputs": [
        {
          "internalType": "string",
          "name": "error",
          "type": "string"
        }
      ],
      "name": "NotLive",
      "type": "error"
    },
    {
      "inputs": [
        {
          "internalType": "string",
          "name": "error",
          "type": "string"
        }
      ],
      "name": "UnrecognizedParam",
      "type": "error"
    },
    {
      "inputs": [
        {
          "internalType": "string",
          "name": "error",
          "type": "string"
        }
      ],
      "name": "ZeroAddress",
      "type": "error"
    },
    {
      "anonymous": false,
      "inputs": [
        {
          "indexed": false,
          "internalType": "bytes32",
          "name": "collateralName",
          "type": "bytes32"
        }
      ],
      "name": "CollateralAdded",
      "type": "event"
    },
    {
      "anonymous": false,
      "inputs": [
        {
          "indexed": false,
          "internalType": "uint256",
          "name": "amount",
          "type": "uint256"
        },
        {
          "indexed": true,
          "internalType": "address",
          "name": "owner",
          "type": "address"
        },
        {
          "indexed": false,
          "internalType": "uint256",
          "name": "vaultId",
          "type": "uint256"
        }
      ],
      "name": "CollateralWithdrawn",
      "type": "event"
    },
    {
      "anonymous": false,
      "inputs": [
        {
          "indexed": false,
          "internalType": "uint8",
          "name": "version",
          "type": "uint8"
        }
      ],
      "name": "Initialized",
      "type": "event"
    },
    {
      "anonymous": false,
      "inputs": [
        {
          "indexed": true,
          "internalType": "bytes32",
          "name": "role",
          "type": "bytes32"
        },
        {
          "indexed": true,
          "internalType": "bytes32",
          "name": "previousAdminRole",
          "type": "bytes32"
        },
        {
          "indexed": true,
          "internalType": "bytes32",
          "name": "newAdminRole",
          "type": "bytes32"
        }
      ],
      "name": "RoleAdminChanged",
      "type": "event"
    },
    {
      "anonymous": false,
      "inputs": [
        {
          "indexed": true,
          "internalType": "bytes32",
          "name": "role",
          "type": "bytes32"
        },
        {
          "indexed": true,
          "internalType": "address",
          "name": "account",
          "type": "address"
        },
        {
          "indexed": true,
          "internalType": "address",
          "name": "sender",
          "type": "address"
        }
      ],
      "name": "RoleGranted",
      "type": "event"
    },
    {
      "anonymous": false,
      "inputs": [
        {
          "indexed": true,
          "internalType": "bytes32",
          "name": "role",
          "type": "bytes32"
        },
        {
          "indexed": true,
          "internalType": "address",
          "name": "account",
          "type": "address"
        },
        {
          "indexed": true,
          "internalType": "address",
          "name": "sender",
          "type": "address"
        }
      ],
      "name": "RoleRevoked",
      "type": "event"
    },
    {
      "anonymous": false,
      "inputs": [
        {
          "indexed": false,
          "internalType": "uint256",
          "name": "amount",
          "type": "uint256"
        },
        {
          "indexed": true,
          "internalType": "address",
          "name": "owner",
          "type": "address"
        },
        {
          "indexed": false,
          "internalType": "uint256",
          "name": "vaultId",
          "type": "uint256"
        }
      ],
      "name": "StableTokenWithdrawn",
      "type": "event"
    },
    {
      "anonymous": false,
      "inputs": [
        {
          "indexed": false,
          "internalType": "uint256",
          "name": "amount",
          "type": "uint256"
        },
        {
          "indexed": true,
          "internalType": "address",
          "name": "owner",
          "type": "address"
        },
        {
          "indexed": false,
          "internalType": "uint256",
          "name": "vaultId",
          "type": "uint256"
        }
      ],
      "name": "VaultCleansed",
      "type": "event"
    },
    {
      "anonymous": false,
      "inputs": [
        {
          "indexed": false,
          "internalType": "uint256",
          "name": "unlockedCollateral",
          "type": "uint256"
        },
        {
          "indexed": false,
          "internalType": "uint256",
          "name": "availableStableToken",
          "type": "uint256"
        },
        {
          "indexed": true,
          "internalType": "address",
          "name": "owner",
          "type": "address"
        },
        {
          "indexed": false,
          "internalType": "uint256",
          "name": "vaultId",
          "type": "uint256"
        }
      ],
      "name": "VaultCollateralized",
      "type": "event"
    },
    {
      "anonymous": false,
      "inputs": [
        {
          "indexed": false,
          "internalType": "uint256",
          "name": "vaultId",
          "type": "uint256"
        },
        {
          "indexed": true,
          "internalType": "address",
          "name": "owner",
          "type": "address"
        }
      ],
      "name": "VaultCreated",
      "type": "event"
    },
    {
      "inputs": [],
      "name": "DEFAULT_ADMIN_ROLE",
      "outputs": [
        {
          "internalType": "bytes32",
          "name": "",
          "type": "bytes32"
        }
      ],
      "stateMutability": "view",
      "type": "function"
    },
    {
      "inputs": [
        {
          "internalType": "address",
          "name": "",
          "type": "address"
        }
      ],
      "name": "availableStableToken",
      "outputs": [
        {
          "internalType": "uint256",
          "name": "",
          "type": "uint256"
        }
      ],
      "stateMutability": "view",
      "type": "function"
    },
    {
      "inputs": [],
      "name": "cage",
      "outputs": [],
      "stateMutability": "nonpayable",
      "type": "function"
    },
    {
      "inputs": [
        {
          "internalType": "uint256",
          "name": "_vaultId",
          "type": "uint256"
        },
        {
          "internalType": "uint256",
          "name": "amount",
          "type": "uint256"
        }
      ],
      "name": "cleanseVault",
      "outputs": [
        {
          "internalType": "bool",
          "name": "",
          "type": "bool"
        }
      ],
      "stateMutability": "nonpayable",
      "type": "function"
    },
    {
      "inputs": [
        {
          "internalType": "bytes32",
          "name": "",
          "type": "bytes32"
        }
      ],
      "name": "collateralMapping",
      "outputs": [
        {
          "internalType": "uint256",
          "name": "TotalNormalisedDebt",
          "type": "uint256"
        },
        {
          "internalType": "uint256",
          "name": "TotalCollateralValue",
          "type": "uint256"
        },
        {
          "internalType": "uint256",
          "name": "rate",
          "type": "uint256"
        },
        {
          "internalType": "uint256",
          "name": "price",
          "type": "uint256"
        },
        {
          "internalType": "uint256",
          "name": "debtCeiling",
          "type": "uint256"
        },
        {
          "internalType": "uint256",
          "name": "debtFloor",
          "type": "uint256"
        },
        {
          "internalType": "uint256",
          "name": "badDebtGracePeriod",
          "type": "uint256"
        },
        {
          "internalType": "uint256",
          "name": "collateralDecimal",
          "type": "uint256"
        }
      ],
      "stateMutability": "view",
      "type": "function"
    },
    {
      "inputs": [
        {
          "internalType": "uint256",
          "name": "amount",
          "type": "uint256"
        },
        {
          "internalType": "address",
          "name": "owner",
          "type": "address"
        },
        {
          "internalType": "uint256",
          "name": "_vaultId",
          "type": "uint256"
        }
      ],
      "name": "collateralizeVault",
      "outputs": [
        {
          "internalType": "uint256",
          "name": "",
          "type": "uint256"
        },
        {
          "internalType": "uint256",
          "name": "",
          "type": "uint256"
        }
      ],
      "stateMutability": "nonpayable",
      "type": "function"
    },
    {
      "inputs": [
        {
          "internalType": "bytes32",
          "name": "_collateralName",
          "type": "bytes32"
        },
        {
          "internalType": "uint256",
          "name": "rate",
          "type": "uint256"
        },
        {
          "internalType": "uint256",
          "name": "price",
          "type": "uint256"
        },
        {
          "internalType": "uint256",
          "name": "debtCeiling",
          "type": "uint256"
        },
        {
          "internalType": "uint256",
          "name": "debtFloor",
          "type": "uint256"
        },
        {
          "internalType": "uint256",
          "name": "badDebtGracePeriod",
          "type": "uint256"
        },
        {
          "internalType": "uint256",
          "name": "decimal",
          "type": "uint256"
        }
      ],
      "name": "createCollateralType",
      "outputs": [
        {
          "internalType": "bool",
          "name": "",
          "type": "bool"
        }
      ],
      "stateMutability": "nonpayable",
      "type": "function"
    },
    {
      "inputs": [
        {
          "internalType": "address",
          "name": "owner",
          "type": "address"
        },
        {
          "internalType": "bytes32",
          "name": "_collateralName",
          "type": "bytes32"
        }
      ],
      "name": "createVault",
      "outputs": [
        {
          "internalType": "uint256",
          "name": "",
          "type": "uint256"
        }
      ],
      "stateMutability": "nonpayable",
      "type": "function"
    },
    {
      "inputs": [],
      "name": "debt",
      "outputs": [
        {
          "internalType": "uint256",
          "name": "",
          "type": "uint256"
        }
      ],
      "stateMutability": "view",
      "type": "function"
    },
    {
      "inputs": [
        {
          "internalType": "address",
          "name": "",
          "type": "address"
        }
      ],
      "name": "firstVault",
      "outputs": [
        {
          "internalType": "uint256",
          "name": "",
          "type": "uint256"
        }
      ],
      "stateMutability": "view",
      "type": "function"
    },
    {
      "inputs": [
        {
          "internalType": "address",
          "name": "owner",
          "type": "address"
        }
      ],
      "name": "getAvailableStableToken",
      "outputs": [
        {
          "internalType": "uint256",
          "name": "",
          "type": "uint256"
        }
      ],
      "stateMutability": "view",
      "type": "function"
    },
    {
      "inputs": [
        {
          "internalType": "bytes32",
          "name": "_collateralName",
          "type": "bytes32"
        }
      ],
      "name": "getCollateralData",
      "outputs": [
        {
          "internalType": "uint256",
          "name": "",
          "type": "uint256"
        },
        {
          "internalType": "uint256",
          "name": "",
          "type": "uint256"
        },
        {
          "internalType": "uint256",
          "name": "",
          "type": "uint256"
        },
        {
          "internalType": "uint256",
          "name": "",
          "type": "uint256"
        },
        {
          "internalType": "uint256",
          "name": "",
          "type": "uint256"
        },
        {
          "internalType": "uint256",
          "name": "",
          "type": "uint256"
        },
        {
          "internalType": "uint256",
          "name": "",
          "type": "uint256"
        },
        {
          "internalType": "uint256",
          "name": "",
          "type": "uint256"
        }
      ],
      "stateMutability": "view",
      "type": "function"
    },
    {
      "inputs": [
        {
          "internalType": "bytes32",
          "name": "role",
          "type": "bytes32"
        }
      ],
      "name": "getRoleAdmin",
      "outputs": [
        {
          "internalType": "bytes32",
          "name": "",
          "type": "bytes32"
        }
      ],
      "stateMutability": "view",
      "type": "function"
    },
    {
      "inputs": [
        {
          "internalType": "uint256",
          "name": "_vaultId",
          "type": "uint256"
        }
      ],
      "name": "getVaultById",
      "outputs": [
        {
          "components": [
            {
              "internalType": "uint256",
              "name": "lockedCollateral",
              "type": "uint256"
            },
            {
              "internalType": "uint256",
              "name": "unlockedCollateral",
              "type": "uint256"
            },
            {
              "internalType": "uint256",
              "name": "normalisedDebt",
              "type": "uint256"
            },
            {
              "internalType": "bytes32",
              "name": "collateralName",
              "type": "bytes32"
            },
            {
              "internalType": "enum IVaultSchema.VaultStateEnum",
              "name": "vaultState",
              "type": "uint8"
            }
          ],
          "internalType": "struct IVaultSchema.Vault",
          "name": "",
          "type": "tuple"
        }
      ],
      "stateMutability": "view",
      "type": "function"
    },
    {
      "inputs": [
        {
          "internalType": "address",
          "name": "owner",
          "type": "address"
        }
      ],
      "name": "getVaultCountForOwner",
      "outputs": [
        {
          "internalType": "uint256",
          "name": "",
          "type": "uint256"
        }
      ],
      "stateMutability": "view",
      "type": "function"
    },
    {
      "inputs": [],
      "name": "getVaultId",
      "outputs": [
        {
          "internalType": "uint256",
          "name": "",
          "type": "uint256"
        }
      ],
      "stateMutability": "view",
      "type": "function"
    },
    {
      "inputs": [
        {
          "internalType": "uint256",
          "name": "_vaultId",
          "type": "uint256"
        }
      ],
      "name": "getVaultOwner",
      "outputs": [
        {
          "internalType": "address",
          "name": "",
          "type": "address"
        }
      ],
      "stateMutability": "view",
      "type": "function"
    },
    {
      "inputs": [
        {
          "internalType": "address",
          "name": "owner",
          "type": "address"
        }
      ],
      "name": "getVaultsForOwner",
      "outputs": [
        {
          "internalType": "uint256[]",
          "name": "ids",
          "type": "uint256[]"
        }
      ],
      "stateMutability": "view",
      "type": "function"
    },
    {
      "inputs": [
        {
          "internalType": "bytes32",
          "name": "role",
          "type": "bytes32"
        },
        {
          "internalType": "address",
          "name": "account",
          "type": "address"
        }
      ],
      "name": "grantRole",
      "outputs": [],
      "stateMutability": "nonpayable",
      "type": "function"
    },
    {
      "inputs": [
        {
          "internalType": "bytes32",
          "name": "role",
          "type": "bytes32"
        },
        {
          "internalType": "address",
          "name": "account",
          "type": "address"
        }
      ],
      "name": "hasRole",
      "outputs": [
        {
          "internalType": "bool",
          "name": "",
          "type": "bool"
        }
      ],
      "stateMutability": "view",
      "type": "function"
    },
    {
      "inputs": [
        {
          "internalType": "address",
          "name": "_stableToken",
          "type": "address"
        }
      ],
      "name": "initialize",
      "outputs": [],
      "stateMutability": "nonpayable",
      "type": "function"
    },
    {
      "inputs": [
        {
          "internalType": "address",
          "name": "",
          "type": "address"
        }
      ],
      "name": "lastVault",
      "outputs": [
        {
          "internalType": "uint256",
          "name": "",
          "type": "uint256"
        }
      ],
      "stateMutability": "view",
      "type": "function"
    },
    {
      "inputs": [
        {
          "internalType": "uint256",
          "name": "",
          "type": "uint256"
        }
      ],
      "name": "list",
      "outputs": [
        {
          "internalType": "uint256",
          "name": "prev",
          "type": "uint256"
        },
        {
          "internalType": "uint256",
          "name": "next",
          "type": "uint256"
        }
      ],
      "stateMutability": "view",
      "type": "function"
    },
    {
      "inputs": [],
      "name": "live",
      "outputs": [
        {
          "internalType": "uint256",
          "name": "",
          "type": "uint256"
        }
      ],
      "stateMutability": "view",
      "type": "function"
    },
    {
      "inputs": [
        {
          "internalType": "uint256",
          "name": "",
          "type": "uint256"
        }
      ],
      "name": "ownerMapping",
      "outputs": [
        {
          "internalType": "address",
          "name": "",
          "type": "address"
        }
      ],
      "stateMutability": "view",
      "type": "function"
    },
    {
      "inputs": [
        {
          "internalType": "bytes32",
          "name": "role",
          "type": "bytes32"
        },
        {
          "internalType": "address",
          "name": "account",
          "type": "address"
        }
      ],
      "name": "renounceRole",
      "outputs": [],
      "stateMutability": "nonpayable",
      "type": "function"
    },
    {
      "inputs": [
        {
          "internalType": "bytes32",
          "name": "role",
          "type": "bytes32"
        },
        {
          "internalType": "address",
          "name": "account",
          "type": "address"
        }
      ],
      "name": "revokeRole",
      "outputs": [],
      "stateMutability": "nonpayable",
      "type": "function"
    },
    {
      "inputs": [
        {
          "internalType": "bytes4",
          "name": "interfaceId",
          "type": "bytes4"
        }
      ],
      "name": "supportsInterface",
      "outputs": [
        {
          "internalType": "bool",
          "name": "",
          "type": "bool"
        }
      ],
      "stateMutability": "view",
      "type": "function"
    },
    {
      "inputs": [
        {
          "internalType": "bytes32",
          "name": "_collateralName",
          "type": "bytes32"
        },
        {
          "internalType": "bytes32",
          "name": "param",
          "type": "bytes32"
        },
        {
          "internalType": "uint256",
          "name": "data",
          "type": "uint256"
        }
      ],
      "name": "updateCollateralData",
      "outputs": [
        {
          "internalType": "bool",
          "name": "",
          "type": "bool"
        }
      ],
      "stateMutability": "nonpayable",
      "type": "function"
    },
    {
      "inputs": [
        {
          "internalType": "address",
          "name": "",
          "type": "address"
        }
      ],
      "name": "vaultCountMapping",
      "outputs": [
        {
          "internalType": "uint256",
          "name": "",
          "type": "uint256"
        }
      ],
      "stateMutability": "view",
      "type": "function"
    },
    {
      "inputs": [
        {
          "internalType": "uint256",
          "name": "",
          "type": "uint256"
        }
      ],
      "name": "vaultMapping",
      "outputs": [
        {
          "internalType": "uint256",
          "name": "lockedCollateral",
          "type": "uint256"
        },
        {
          "internalType": "uint256",
          "name": "unlockedCollateral",
          "type": "uint256"
        },
        {
          "internalType": "uint256",
          "name": "normalisedDebt",
          "type": "uint256"
        },
        {
          "internalType": "bytes32",
          "name": "collateralName",
          "type": "bytes32"
        },
        {
          "internalType": "enum IVaultSchema.VaultStateEnum",
          "name": "vaultState",
          "type": "uint8"
        }
      ],
      "stateMutability": "view",
      "type": "function"
    },
    {
      "inputs": [
        {
          "internalType": "uint256",
          "name": "_vaultId",
          "type": "uint256"
        },
        {
          "internalType": "uint256",
          "name": "amount",
          "type": "uint256"
        }
      ],
      "name": "withdrawStableToken",
      "outputs": [
        {
          "internalType": "bool",
          "name": "",
          "type": "bool"
        }
      ],
      "stateMutability": "nonpayable",
      "type": "function"
    },
    {
      "inputs": [
        {
          "internalType": "uint256",
          "name": "_vaultId",
          "type": "uint256"
        },
        {
          "internalType": "uint256",
          "name": "amount",
          "type": "uint256"
        }
      ],
      "name": "withdrawUnlockedCollateral",
      "outputs": [
        {
          "internalType": "bool",
          "name": "",
          "type": "bool"
        }
      ],
      "stateMutability": "nonpayable",
      "type": "function"
    }
  ],
  "bytecode": "0x608060405234801561000f575f80fd5b506153428061001d5f395ff3fe608060405234801561000f575f80fd5b50600436106101f9575f3560e01c8063877536c611610118578063b78efdca116100ab578063d547741f1161007a578063d547741f146106a7578063e16e3146146106c3578063ecb136d4146106f3578063f3157d6414610723578063ffa80b8a14610753576101f9565b8063b78efdca146105fb578063bb66b26c1461062b578063c4b92ea31461065b578063c4d66de81461068b576101f9565b8063957aa58c116100e7578063957aa58c1461055f57806397f40e611461057d5780639e31bf2b146105ad578063a217fddf146105dd576101f9565b8063877536c6146104985780638d62813d146104c857806391d14854146104ff578063947087761461052f576101f9565b80633aabdf9211610190578063692450091161015f57806369245009146103fd578063736f81851461040757806380c9419e14610437578063814088bb14610468576101f9565b80633aabdf921461034857806347ab3605146103785780634b32c444146103af5780634e2285f1146103df576101f9565b8063248a9ca3116101cc578063248a9ca3146102ac5780632f2c4f38146102dc5780632f2ff15d1461031057806336568abe1461032c576101f9565b806301ffc9a7146101fd5780630dca59c11461022d578063199750901461024b5780631da9e1f11461027b575b5f80fd5b61021760048036038101906102129190613f35565b610783565b6040516102249190613f7a565b60405180910390f35b6102356107fc565b6040516102429190613fab565b60405180910390f35b61026560048036038101906102609190613fee565b610802565b6040516102729190614058565b60405180910390f35b6102956004803603810190610290919061409b565b6108a4565b6040516102a39291906140eb565b60405180910390f35b6102c660048036038101906102c19190614145565b610d58565b6040516102d3919061417f565b60405180910390f35b6102f660048036038101906102f19190613fee565b610d75565b60405161030795949392919061420b565b60405180910390f35b61032a6004803603810190610325919061425c565b610db3565b005b6103466004803603810190610341919061425c565b610dd4565b005b610362600480360381019061035d9190613fee565b610e57565b60405161036f9190614058565b60405180910390f35b610392600480360381019061038d9190614145565b610e87565b6040516103a698979695949392919061429a565b60405180910390f35b6103c960048036038101906103c49190614316565b610ecb565b6040516103d69190613fab565b60405180910390f35b6103e7610ee0565b6040516103f49190613fab565b60405180910390f35b610405610f25565b005b610421600480360381019061041c9190614316565b610f8b565b60405161042e9190613fab565b60405180910390f35b610451600480360381019061044c9190613fee565b61100d565b60405161045f9291906140eb565b60405180910390f35b610482600480360381019061047d9190614316565b61102d565b60405161048f9190613fab565b60405180910390f35b6104b260048036038101906104ad9190614341565b611042565b6040516104bf9190613fab565b60405180910390f35b6104e260048036038101906104dd9190614145565b611827565b6040516104f698979695949392919061429a565b60405180910390f35b6105196004803603810190610514919061425c565b611945565b6040516105269190613f7a565b60405180910390f35b61054960048036038101906105449190613fee565b6119a9565b6040516105569190614412565b60405180910390f35b610567611a9e565b6040516105749190613fab565b60405180910390f35b61059760048036038101906105929190614316565b611aa4565b6040516105a49190613fab565b60405180910390f35b6105c760048036038101906105c2919061442b565b611ab9565b6040516105d49190613f7a565b60405180910390f35b6105e5611d7d565b6040516105f2919061417f565b60405180910390f35b610615600480360381019061061091906144c8565b611d83565b6040516106229190613f7a565b60405180910390f35b610645600480360381019061064091906144c8565b6122ca565b6040516106529190613f7a565b60405180910390f35b61067560048036038101906106709190614316565b612689565b6040516106829190613fab565b60405180910390f35b6106a560048036038101906106a09190614316565b61270b565b005b6106c160048036038101906106bc919061425c565b6129d0565b005b6106dd60048036038101906106d89190614506565b6129f1565b6040516106ea9190613f7a565b60405180910390f35b61070d600480360381019061070891906144c8565b612ec6565b60405161071a9190613f7a565b60405180910390f35b61073d60048036038101906107389190614316565b61343b565b60405161074a9190613fab565b60405180910390f35b61076d60048036038101906107689190614316565b613450565b60405161077a91906145fe565b60405180910390f35b5f7f7965db0b000000000000000000000000000000000000000000000000000000007bffffffffffffffffffffffffffffffffffffffffffffffffffffffff1916827bffffffffffffffffffffffffffffffffffffffffffffffffffffffff191614806107f557506107f482613642565b5b9050919050565b60975481565b5f610817674152e47495c6353860c01b6136ab565b61082b67e8a5b277219845b860c01b6136ab565b61083f6709803b9aabdce98460c01b6136ab565b5f609f5f8481526020019081526020015f205f9054906101000a900473ffffffffffffffffffffffffffffffffffffffff1690506108876753b1f7388565d2dc60c01b6136ab565b61089b6727924277216be0a760c01b6136ab565b80915050919050565b5f806108ba67401af39a3ab90e8160c01b6136ab565b6108ce6747dc99c9dd03e7f360c01b6136ab565b6108e2673ded22b5cad3644a60c01b6136ab565b6108f66789e1e30be7bbd65560c01b6136ab565b6001609854146109635761091467e7509d18c3ed49b860c01b6136ab565b61092867fdf3a99622af0a6460c01b6136ab565b6040517fa1875fdb00000000000000000000000000000000000000000000000000000000815260040161095a90614678565b60405180910390fd5b61097767e2d356955682f5bd60c01b6136ab565b61098b67b9b72fb633cb13c060c01b6136ab565b61099f67494117df8a3ae1da60c01b6136ab565b6109b36748cbee0b7a21342a60c01b6136ab565b6109c767f7395487924d4b7b60c01b6136ab565b6109db677e90954c740ec43060c01b6136ab565b5f609e5f8581526020019081526020015f209050610a0367a3edce9e7d2c1c5760c01b6136ab565b610a17676bc7b11f94eece0760c01b6136ab565b5f609d5f836003015481526020019081526020015f209050610a436797df855c1472fbfa60c01b6136ab565b610a518260010154886136ae565b8260010181905550610a6d6704a4eff6ab65520f60c01b6136ab565b610a7b8160010154886136ae565b8160010181905550610a97677365c0feae308fea60c01b6136ab565b610aab67423e0cddfff826e860c01b6136ab565b5f610b4b888360070154609a5f9054906101000a900473ffffffffffffffffffffffffffffffffffffffff1673ffffffffffffffffffffffffffffffffffffffff1663313ce5676040518163ffffffff1660e01b8152600401602060405180830381865afa158015610b1f573d5f803e3d5ffd5b505050506040513d601f19601f82011682018060405250810190610b4391906146cc565b60ff166136c3565b9050610b616746ab9f095055cb1e60c01b6136ab565b610b75670a9a06ebd99b716a60c01b6136ab565b5f610b8482846003015461384b565b9050610b9a672e2193481785c4b860c01b6136ab565b610be160a45f8a73ffffffffffffffffffffffffffffffffffffffff1673ffffffffffffffffffffffffffffffffffffffff1681526020019081526020015f2054826136ae565b60a45f8a73ffffffffffffffffffffffffffffffffffffffff1673ffffffffffffffffffffffffffffffffffffffff1681526020019081526020015f2081905550610c366751c040529d99008460c01b6136ab565b610c4a670db6064aaa2a610f60c01b6136ab565b8773ffffffffffffffffffffffffffffffffffffffff167ff6ff325f711e255a58e969eb5ad1f1296a58fea925e201bff9e6e0980e0dceee856001015460a45f8c73ffffffffffffffffffffffffffffffffffffffff1673ffffffffffffffffffffffffffffffffffffffff1681526020019081526020015f20548a604051610cd5939291906146f7565b60405180910390a2610cf167e86765fd2bb1bae160c01b6136ab565b610d05676be00145c6ae026960c01b6136ab565b60a45f8973ffffffffffffffffffffffffffffffffffffffff1673ffffffffffffffffffffffffffffffffffffffff1681526020019081526020015f205484600101549550955050505050935093915050565b5f60655f8381526020019081526020015f20600101549050919050565b609e602052805f5260405f205f91509050805f015490806001015490806002015490806003015490806004015f9054906101000a900460ff16905085565b610dbc82610d58565b610dc581613860565b610dcf8383613874565b505050565b610ddc61394f565b73ffffffffffffffffffffffffffffffffffffffff168173ffffffffffffffffffffffffffffffffffffffff1614610e49576040517f08c379a0000000000000000000000000000000000000000000000000000000008152600401610e409061479c565b60405180910390fd5b610e538282613956565b5050565b609f602052805f5260405f205f915054906101000a900473ffffffffffffffffffffffffffffffffffffffff1681565b609d602052805f5260405f205f91509050805f0154908060010154908060020154908060030154908060040154908060050154908060060154908060070154905088565b60a1602052805f5260405f205f915090505481565b5f610ef567be0ae10544146e6a60c01b6136ab565b610f0967e381f4ad3fc5e6b960c01b6136ab565b610f1d67c1ac47439d7dd6bc60c01b6136ab565b609954905090565b610f3967536a2aefb0a9cb8160c01b6136ab565b5f801b610f4581613860565b610f5967a0ae4093635753bb60c01b6136ab565b610f6d675136a8832270279e60c01b6136ab565b610f81677e162bed9ba962bb60c01b6136ab565b5f60988190555050565b5f610fa0673b83fa9d247b896d60c01b6136ab565b610fb467421c9762679a428660c01b6136ab565b610fc86795b1a18618dc46b960c01b6136ab565b60a35f8373ffffffffffffffffffffffffffffffffffffffff1673ffffffffffffffffffffffffffffffffffffffff1681526020019081526020015f20549050919050565b60a2602052805f5260405f205f91509050805f0154908060010154905082565b60a4602052805f5260405f205f915090505481565b5f61105767d6deea26dea61e8960c01b6136ab565b61106b6747dc99c9dd03e7f360c01b6136ab565b61107f673ded22b5cad3644a60c01b6136ab565b6110936789e1e30be7bbd65560c01b6136ab565b600160985414611100576110b167e7509d18c3ed49b860c01b6136ab565b6110c567fdf3a99622af0a6460c01b6136ab565b6040517fa1875fdb0000000000000000000000000000000000000000000000000000000081526004016110f790614678565b60405180910390fd5b61111467e2d356955682f5bd60c01b6136ab565b61112867b9b72fb633cb13c060c01b6136ab565b61113c67f9945275fbe0272860c01b6136ab565b611150676fa20406c5a86b5760c01b6136ab565b6111646701bac3b1c14f9bfe60c01b6136ab565b61117867e16509555ef7161560c01b6136ab565b5f73ffffffffffffffffffffffffffffffffffffffff168373ffffffffffffffffffffffffffffffffffffffff160361120e576111bf67b5d1002f4d3d801760c01b6136ab565b6111d3672a38e9c6129b9bf760c01b6136ab565b6040517feac0d38900000000000000000000000000000000000000000000000000000000815260040161120590614804565b60405180910390fd5b611222670a8df8287a49837b60c01b6136ab565b611236677da52ba7df0f02ee60c01b6136ab565b600160995f828254611248919061484f565b9250508190555061126367c41928c2505a115160c01b6136ab565b611277679206ad3886c05f1360c01b6136ab565b5f609e5f60995481526020019081526020015f2090506112a167eb48bf7771b2c94460c01b6136ab565b5f815f01819055506112bd6742723431a13b5c7a60c01b6136ab565b5f81600201819055506112da679978d19ef30f9fb260c01b6136ab565b5f81600101819055506112f767c48856d03c4db78960c01b6136ab565b82816003018190555061131467c31149c13528f28860c01b6136ab565b5f816004015f6101000a81548160ff0219169083600281111561133a57611339614198565b5b021790555061135367a65d5833a28cad6960c01b6136ab565b83609f5f60995481526020019081526020015f205f6101000a81548173ffffffffffffffffffffffffffffffffffffffff021916908373ffffffffffffffffffffffffffffffffffffffff1602179055506113b867abb4448eb8fd3e4e60c01b6136ab565b600160a35f8673ffffffffffffffffffffffffffffffffffffffff1673ffffffffffffffffffffffffffffffffffffffff1681526020019081526020015f205f828254611405919061484f565b925050819055506114206798963575dae4234660c01b6136ab565b6114346796d9f01437169a1260c01b6136ab565b5f60a05f8673ffffffffffffffffffffffffffffffffffffffff1673ffffffffffffffffffffffffffffffffffffffff1681526020019081526020015f2054036114e95761148c670f0484be2fb4eaa860c01b6136ab565b6114a0676c6076087778962a60c01b6136ab565b60995460a05f8673ffffffffffffffffffffffffffffffffffffffff1673ffffffffffffffffffffffffffffffffffffffff1681526020019081526020015f20819055506114fe565b6114fd6787a0403ee0d288f060c01b6136ab565b5b611512679b7008b5416eff1960c01b6136ab565b6115266790ccbdfced4ba87b60c01b6136ab565b5f60a15f8673ffffffffffffffffffffffffffffffffffffffff1673ffffffffffffffffffffffffffffffffffffffff1681526020019081526020015f20541461165a5761157e678cfd1994d4d848b760c01b6136ab565b611592672ac5e5d9c35d546a60c01b6136ab565b60a15f8573ffffffffffffffffffffffffffffffffffffffff1673ffffffffffffffffffffffffffffffffffffffff1681526020019081526020015f205460a25f60995481526020019081526020015f205f01819055506115fd67cf62f912b1d5ebdf60c01b6136ab565b60995460a25f60a15f8873ffffffffffffffffffffffffffffffffffffffff1673ffffffffffffffffffffffffffffffffffffffff1681526020019081526020015f205481526020019081526020015f206001018190555061166f565b61166e6780b03e1a8e9d796760c01b6136ab565b5b611683670dc86539fb5e141a60c01b6136ab565b60995460a15f8673ffffffffffffffffffffffffffffffffffffffff1673ffffffffffffffffffffffffffffffffffffffff1681526020019081526020015f20819055506116db67db9b640107d06dec60c01b6136ab565b6116ef67599ea7610e2ea2ae60c01b6136ab565b609c81908060018154018082558091505060019003905f5260205f2090600502015f909190919091505f820154815f0155600182015481600101556002820154816002015560038201548160030155600482015f9054906101000a900460ff16816004015f6101000a81548160ff0219169083600281111561177457611773614198565b5b0217905550505061178f67266ac37e7a8c91cc60c01b6136ab565b6117a367a79f70dd964afdb460c01b6136ab565b8373ffffffffffffffffffffffffffffffffffffffff167fbf3e9c93de94306b70ac5b9411edf475545815333bf651b894b9eada6482c5946099546040516117eb9190613fab565b60405180910390a261180767ebc9364db97f719e60c01b6136ab565b61181b67f9caeb10fbd347f560c01b6136ab565b60995491505092915050565b5f805f805f805f806118436712baa280fde7c59b60c01b6136ab565b6118576744e5cd554afa791a60c01b6136ab565b61186b67883389884da214ab60c01b6136ab565b5f609d5f8b81526020019081526020015f20604051806101000160405290815f820154815260200160018201548152602001600282015481526020016003820154815260200160048201548152602001600582015481526020016006820154815260200160078201548152505090506118ee6726064ca72477457760c01b6136ab565b611902679299c9010e500e2e60c01b6136ab565b805f015181602001518260400151836060015184608001518560a001518660c001518760e001519850985098509850985098509850985050919395975091939597565b5f60655f8481526020019081526020015f205f015f8373ffffffffffffffffffffffffffffffffffffffff1673ffffffffffffffffffffffffffffffffffffffff1681526020019081526020015f205f9054906101000a900460ff16905092915050565b6119b1613e90565b6119c56725cf1aee4eb62bd260c01b6136ab565b6119d96725a4c9f1021f36f860c01b6136ab565b6119ed67fce72e0b0f792eb160c01b6136ab565b5f609e5f8481526020019081526020015f206040518060a00160405290815f8201548152602001600182015481526020016002820154815260200160038201548152602001600482015f9054906101000a900460ff166002811115611a5557611a54614198565b5b6002811115611a6757611a66614198565b5b815250509050611a816778910b961d9b3f8360c01b6136ab565b611a9567df766dc0063a57ea60c01b6136ab565b80915050919050565b60985481565b60a3602052805f5260405f205f915090505481565b5f611ace671aa1cdb25823595360c01b6136ab565b611ae26747dc99c9dd03e7f360c01b6136ab565b611af6673ded22b5cad3644a60c01b6136ab565b611b0a6789e1e30be7bbd65560c01b6136ab565b600160985414611b7757611b2867e7509d18c3ed49b860c01b6136ab565b611b3c67fdf3a99622af0a6460c01b6136ab565b6040517fa1875fdb000000000000000000000000000000000000000000000000000000008152600401611b6e90614678565b60405180910390fd5b611b8b67e2d356955682f5bd60c01b6136ab565b611b9f67b9b72fb633cb13c060c01b6136ab565b611bb367a5e2373fd1fdf0e260c01b6136ab565b611bc76709cba301fab35b1b60c01b6136ab565b5f801b611bd381613860565b611be767e7a4351d7f8fb94960c01b6136ab565b611bfb6735a4ddf91404d28d60c01b6136ab565b611c0f67e9e31573d946198660c01b6136ab565b611c2367848db4fbb99734a360c01b6136ab565b5f609d5f8b81526020019081526020015f209050611c4b672521ab03e5c2818560c01b6136ab565b888160020181905550611c6867b95b286429be0fa760c01b6136ab565b878160030181905550611c856735bf868b11438ad960c01b6136ab565b868160040181905550611ca26773d203f4a64271d860c01b6136ab565b858160050181905550611cbf672a23ca1cd016ca3460c01b6136ab565b848160060181905550611cdc6740594ef496f08f3c60c01b6136ab565b838160070181905550611cf967650276f3f5964cfb60c01b6136ab565b611d0d673a4c9048c975c76960c01b6136ab565b7fb4ab9544fa21c3a8982c3eb58566e19a8e7c43c17b478906bc9c63ea349b9ae78a604051611d3c919061417f565b60405180910390a1611d5867a1febcf199d7a87060c01b6136ab565b611d6c67b8ace9ded1e27fff60c01b6136ab565b600192505050979650505050505050565b5f801b81565b5f611d98675491f061d8bfe0b760c01b6136ab565b611dac6747dc99c9dd03e7f360c01b6136ab565b611dc0673ded22b5cad3644a60c01b6136ab565b611dd46789e1e30be7bbd65560c01b6136ab565b600160985414611e4157611df267e7509d18c3ed49b860c01b6136ab565b611e0667fdf3a99622af0a6460c01b6136ab565b6040517fa1875fdb000000000000000000000000000000000000000000000000000000008152600401611e3890614678565b60405180910390fd5b611e5567e2d356955682f5bd60c01b6136ab565b611e6967b9b72fb633cb13c060c01b6136ab565b611e7d67e4ce9eb55451eb1e60c01b6136ab565b611e9167dbfdb740e209207060c01b6136ab565b611ea567cbdd519a9b8f161760c01b6136ab565b611eb9679fc00be3eef6e91c60c01b6136ab565b5f609f5f8581526020019081526020015f205f9054906101000a900473ffffffffffffffffffffffffffffffffffffffff169050611f0167bf334c11e98ead5a60c01b6136ab565b611f4860a45f8373ffffffffffffffffffffffffffffffffffffffff1673ffffffffffffffffffffffffffffffffffffffff1681526020019081526020015f205484613a31565b60a45f8373ffffffffffffffffffffffffffffffffffffffff1673ffffffffffffffffffffffffffffffffffffffff1681526020019081526020015f2081905550611f9d67237eb786824a29da60c01b6136ab565b611fb1676919eec4fd3982ba60c01b6136ab565b5f609e5f8681526020019081526020015f209050611fd96785bc9f4d5b62e74760c01b6136ab565b611fed672bfd64ded3ae92e160c01b6136ab565b5f609d5f836003015481526020019081526020015f209050612019676bf2514c5312350560c01b6136ab565b61202d677897fda7a060689060c01b6136ab565b5f6120cd86609a5f9054906101000a900473ffffffffffffffffffffffffffffffffffffffff1673ffffffffffffffffffffffffffffffffffffffff1663313ce5676040518163ffffffff1660e01b8152600401602060405180830381865afa15801561209c573d5f803e3d5ffd5b505050506040513d601f19601f820116820180604052508101906120c091906146cc565b60ff1684600701546136c3565b90506120e367cbe123a762eed88260c01b6136ab565b6120f767813323a761b96ddd60c01b6136ab565b5f612106828460030154613a46565b905061211c67e63f6c7a352f2ae160c01b6136ab565b61212a846001015482613a31565b8460010181905550612146675842d0c0f73e6bd560c01b6136ab565b612153845f0154826136ae565b845f018190555061216e6710a0e7e486b5ecd860c01b6136ab565b61217c8460020154886136ae565b84600201819055506121986788854241bc591a7a60c01b6136ab565b8360020154835f015f8282546121ae919061484f565b925050819055506121c967af8e7bbb3a80fcd760c01b6136ab565b6121d5609754886136ae565b6097819055506121ef6772023c9cc0c8f4c960c01b6136ab565b6001846004015f6101000a81548160ff0219169083600281111561221657612215614198565b5b021790555061222f679203ca9705aadc2460c01b6136ab565b61224367f05c83d76f81468c60c01b6136ab565b8473ffffffffffffffffffffffffffffffffffffffff167f6bf99917cf560d0648b68c70617755603f7e9db6e6b5f872a061fc601a3183a6888a60405161228b9291906140eb565b60405180910390a26122a767776682428dc8db2160c01b6136ab565b6122bb6724ca2f0b1403076960c01b6136ab565b60019550505050505092915050565b5f6122df672bf4c6e1714d9c4160c01b6136ab565b6122f36747dc99c9dd03e7f360c01b6136ab565b612307673ded22b5cad3644a60c01b6136ab565b61231b6789e1e30be7bbd65560c01b6136ab565b6001609854146123885761233967e7509d18c3ed49b860c01b6136ab565b61234d67fdf3a99622af0a6460c01b6136ab565b6040517fa1875fdb00000000000000000000000000000000000000000000000000000000815260040161237f90614678565b60405180910390fd5b61239c67e2d356955682f5bd60c01b6136ab565b6123b067b9b72fb633cb13c060c01b6136ab565b6123c467cd03764e4e3d324760c01b6136ab565b6123d86736ad046923ccf01e60c01b6136ab565b6123ec6782c1ef7c53841f8260c01b6136ab565b61240067bec63e357c49f5ec60c01b6136ab565b5f609e5f8581526020019081526020015f20905061242867f74faebf6a929f3060c01b6136ab565b61243c67c6175a5ef3b6eb9b60c01b6136ab565b5f609d5f836003015481526020019081526020015f20905061246867cf665cf1de3b475260c01b6136ab565b612476826001015485613a31565b8260010181905550612492677a64390c4a824cdb60c01b6136ab565b6124a0816001015485613a31565b81600101819055506124bc67ce5ec082b2705c3960c01b6136ab565b6124d067ef7759f43ed9168f60c01b6136ab565b5f6124df85836003015461384b565b90506124f5670386a0af3a1adf3d60c01b6136ab565b612509671c94cbb2b25035f760c01b6136ab565b5f609f5f8881526020019081526020015f205f9054906101000a900473ffffffffffffffffffffffffffffffffffffffff16905061255167198a173a7845865560c01b6136ab565b61259860a45f8373ffffffffffffffffffffffffffffffffffffffff1673ffffffffffffffffffffffffffffffffffffffff1681526020019081526020015f205483613a31565b60a45f8373ffffffffffffffffffffffffffffffffffffffff1673ffffffffffffffffffffffffffffffffffffffff1681526020019081526020015f20819055506125ed67b58d4b15523ba53d60c01b6136ab565b61260167ba3ee3c00e4484e260c01b6136ab565b8073ffffffffffffffffffffffffffffffffffffffff167f7c5e5cb62e5ed3caf3764e4b0afedfedef533e27809d43367799787ad2abcd418760995460405161264b9291906140eb565b60405180910390a2612667673f938972868e742360c01b6136ab565b61267b67308c90e131fbcc3b60c01b6136ab565b600194505050505092915050565b5f61269e6707d4574c078cc23260c01b6136ab565b6126b267fc21f69cc543efee60c01b6136ab565b6126c667711a164118ec682560c01b6136ab565b60a45f8373ffffffffffffffffffffffffffffffffffffffff1673ffffffffffffffffffffffffffffffffffffffff1681526020019081526020015f20549050919050565b61271f67f262ecd858b76a1860c01b6136ab565b5f8060019054906101000a900460ff1615905080801561274e575060015f8054906101000a900460ff1660ff16105b8061277a575061275d30613a5b565b158015612779575060015f8054906101000a900460ff1660ff16145b5b6127b9576040517f08c379a00000000000000000000000000000000000000000000000000000000081526004016127b0906148f2565b60405180910390fd5b60015f806101000a81548160ff021916908360ff16021790555080156127f45760015f60016101000a81548160ff0219169083151502179055505b6128086721fe841eb9265a8c60c01b6136ab565b61281c6788a63831d00e870a60c01b6136ab565b612830670b568c36caeb0ceb60c01b6136ab565b61284467c9c62ef0818bc54360c01b6136ab565b6128505f801b33613874565b6128646706204bc82ef9022c60c01b6136ab565b600160988190555061288067657701100f55fc2f60c01b6136ab565b81609a5f6101000a81548173ffffffffffffffffffffffffffffffffffffffff021916908373ffffffffffffffffffffffffffffffffffffffff1602179055506128d467242767d53c5ee92c60c01b6136ab565b609a5f9054906101000a900473ffffffffffffffffffffffffffffffffffffffff1673ffffffffffffffffffffffffffffffffffffffff166306fdde036040518163ffffffff1660e01b81526004015f60405180830381865afa15801561293d573d5f803e3d5ffd5b505050506040513d5f823e3d601f19601f820116820180604052508101906129659190614a66565b609b90816129739190614cb1565b5080156129cc575f8060016101000a81548160ff0219169083151502179055507f7f26b83ff96e1f2b6a682f133852f6798a09c465da95921460cefb384740249860016040516129c39190614db9565b60405180910390a15b5050565b6129d982610d58565b6129e281613860565b6129ec8383613956565b505050565b5f612a06671c3c5264cc630bd360c01b6136ab565b612a1a6747dc99c9dd03e7f360c01b6136ab565b612a2e673ded22b5cad3644a60c01b6136ab565b612a426789e1e30be7bbd65560c01b6136ab565b600160985414612aaf57612a6067e7509d18c3ed49b860c01b6136ab565b612a7467fdf3a99622af0a6460c01b6136ab565b6040517fa1875fdb000000000000000000000000000000000000000000000000000000008152600401612aa690614678565b60405180910390fd5b612ac367e2d356955682f5bd60c01b6136ab565b612ad767b9b72fb633cb13c060c01b6136ab565b612aeb673532e24893dfec6760c01b6136ab565b612aff671dcfc5f0c741c3d560c01b6136ab565b5f801b612b0b81613860565b612b1f67c4af305bf548821a60c01b6136ab565b612b3367c3ff0de9af07014f60c01b6136ab565b612b47675c85a4c5cf60cf8360c01b6136ab565b612b5b676348b4ed007b428f60c01b6136ab565b5f609d5f8781526020019081526020015f209050612b83673dbfdfc30397025160c01b6136ab565b612b9767b308908d5ec84e7e60c01b6136ab565b7f70726963650000000000000000000000000000000000000000000000000000008503612be057612bd2672abc7cf1d10d7b2b60c01b6136ab565b838160030181905550612e91565b612bf46707801d63d785061f60c01b6136ab565b612c0867c7f5041f7b070aba60c01b6136ab565b7f646562744365696c696e670000000000000000000000000000000000000000008503612c5157612c43679c0a2460452ffa8e60c01b6136ab565b838160040181905550612e90565b612c65679408ac556087a22360c01b6136ab565b612c796717c52ea5a035a20160c01b6136ab565b7f64656274466c6f6f7200000000000000000000000000000000000000000000008503612cc257612cb467e477b4c3079f62f960c01b6136ab565b838160050181905550612e8f565b612cd667e99feb3b696bc6b460c01b6136ab565b612cea67575ed70f7f80bd5560c01b6136ab565b7f72617465000000000000000000000000000000000000000000000000000000008503612d3357612d2567ce0f4a5f91e4e95e60c01b6136ab565b838160020181905550612e8e565b612d47673973a7495dc2322560c01b6136ab565b612d5b67a9914f4f3229d60860c01b6136ab565b7f626164446562744772616365506572696f6400000000000000000000000000008503612db857612d966747767e487cae886d60c01b6136ab565b612daa67ef6782d81e7987ac60c01b6136ab565b838160060181905550612e8d565b612dcc671e3b47a36a1750c860c01b6136ab565b612de067be405cf5a364bca160c01b6136ab565b7f636f6c6c61746572616c446563696d616c0000000000000000000000000000008503612e3d57612e1b67371e10777370007d60c01b6136ab565b612e2f67037ff5894d6ad74160c01b6136ab565b838160070181905550612e8c565b612e5167635f9736e3320a1860c01b6136ab565b6040517f7b4dc128000000000000000000000000000000000000000000000000000000008152600401612e8390614e42565b60405180910390fd5b5b5b5b5b5b612ea567b33d4394c294796060c01b6136ab565b612eb96705c95f4de11bfa6060c01b6136ab565b6001925050509392505050565b5f612edb67c1c7cf971792418760c01b6136ab565b612eef6747dc99c9dd03e7f360c01b6136ab565b612f03673ded22b5cad3644a60c01b6136ab565b612f176789e1e30be7bbd65560c01b6136ab565b600160985414612f8457612f3567e7509d18c3ed49b860c01b6136ab565b612f4967fdf3a99622af0a6460c01b6136ab565b6040517fa1875fdb000000000000000000000000000000000000000000000000000000008152600401612f7b90614678565b60405180910390fd5b612f9867e2d356955682f5bd60c01b6136ab565b612fac67b9b72fb633cb13c060c01b6136ab565b612fc067e4beedeac434472160c01b6136ab565b612fd467d236cd42146e319260c01b6136ab565b612fe86754d2472f071f1a5260c01b6136ab565b612ffc6749cc89258778ddcb60c01b6136ab565b5f609e5f8581526020019081526020015f2090506130246742db4536d3d2971760c01b6136ab565b61303867a9debe728e9bf0dc60c01b6136ab565b5f609d5f836003015481526020019081526020015f20604051806101000160405290815f820154815260200160018201548152602001600282015481526020016003820154815260200160048201548152602001600582015481526020016006820154815260200160078201548152505090506130bf67b7bd4815dcb4a8e960c01b6136ab565b6130d3670d6d201f8ed68a9560c01b6136ab565b5f61317385609a5f9054906101000a900473ffffffffffffffffffffffffffffffffffffffff1673ffffffffffffffffffffffffffffffffffffffff1663313ce5676040518163ffffffff1660e01b8152600401602060405180830381865afa158015613142573d5f803e3d5ffd5b505050506040513d601f19601f8201168201806040525081019061316691906146cc565b60ff168460e001516136c3565b90506131896719d4c24a10b867cb60c01b6136ab565b61319d677a83c10ed6b5cb1060c01b6136ab565b5f6131ac828460600151613a46565b90506131c267ca9ab18f677eef3060c01b6136ab565b6131d6674c9ab4c3a02017d660c01b6136ab565b5f609f5f8981526020019081526020015f205f9054906101000a900473ffffffffffffffffffffffffffffffffffffffff16905061321e67c902ff87c916e9f960c01b6136ab565b61326560a45f8373ffffffffffffffffffffffffffffffffffffffff1673ffffffffffffffffffffffffffffffffffffffff1681526020019081526020015f2054886136ae565b60a45f8373ffffffffffffffffffffffffffffffffffffffff1673ffffffffffffffffffffffffffffffffffffffff1681526020019081526020015f20819055506132ba675a289a9fefe1369060c01b6136ab565b6132c7855f015483613a31565b855f01819055506132e267c909e3eb00bcdd5e60c01b6136ab565b6132f08560010154836136ae565b856001018190555061330c675eb46ed4d861ccd160c01b6136ab565b61331a856002015488613a31565b8560020181905550613336678b59fd1d2b549e0760c01b6136ab565b6002856004015f6101000a81548160ff0219169083600281111561335d5761335c614198565b5b0217905550613376671c0d09d207bffb9d60c01b6136ab565b6133866097548660020154613a31565b6097819055506133a067019ddc71c45f517360c01b6136ab565b6133b4674b25800e3f51973360c01b6136ab565b8073ffffffffffffffffffffffffffffffffffffffff167f2b1124ac2b52e0ec133f1e49475defdc59373702ab39bc2c089910548573674d888a6040516133fc9291906140eb565b60405180910390a2613418671f88ab0c41c3dcec60c01b6136ab565b61342c67074596e2612fec4e60c01b6136ab565b60019550505050505092915050565b60a0602052805f5260405f205f915090505481565b606061346667283f30df1a461b3560c01b6136ab565b61347a670eddcc676157965060c01b6136ab565b61348e67e8039f42bbb9dd5f60c01b6136ab565b5f61349883613a7d565b90506134ae675d24f290d20f2c9d60c01b6136ab565b8067ffffffffffffffff8111156134c8576134c7614928565b5b6040519080825280602002602001820160405280156134f65781602001602082028036833780820191505090505b50915061350d67a8e77c5225273b6560c01b6136ab565b613521677c780d146be34d3a60c01b6136ab565b5f61353667c49753827b22eb3c60c01b6136ab565b61354a67b5160bcb0caaf3e160c01b6136ab565b5f60a05f8673ffffffffffffffffffffffffffffffffffffffff1673ffffffffffffffffffffffffffffffffffffffff1681526020019081526020015f2054905061359f67d3034d0506052b1c60c01b6136ab565b6135b367dc25d0e38e9273a760c01b6136ab565b5b5f81111561363a576135d06742a53473b68ac54760c01b6136ab565b808483815181106135e4576135e3614e60565b5b60200260200101818152505061360467a05924d007190c8160c01b6136ab565b61360d81613aff565b90508091505061362767ef50131ad82c58d460c01b6136ab565b818061363290614e8d565b9250506135b4565b505050919050565b5f7f01ffc9a7000000000000000000000000000000000000000000000000000000007bffffffffffffffffffffffffffffffffffffffffffffffffffffffff1916827bffffffffffffffffffffffffffffffffffffffffffffffffffffffff1916149050919050565b50565b5f81836136bb919061484f565b905092915050565b5f6136d8678d7af4392e8ef0ab60c01b6136ab565b6136ec6762c9806556999f8560c01b6136ab565b61370067cd4def2f2151024560c01b6136ab565b8183111561376e5761371c67c4b92ac40bb7620a60c01b6136ab565b6137306704f6813c0e7d45af60c01b6136ab565b613744676dd830d0db447a3b60c01b6136ab565b81836137509190614ed4565b600a61375c9190615036565b8461376791906150ad565b9050613844565b6137826735da826b8f4b671f60c01b6136ab565b61379667367d65ee918664f660c01b6136ab565b81831015613804576137b2679555b7ad347ed66560c01b6136ab565b6137c667736155d7164e39e860c01b6136ab565b6137da6755ac41df5c44afd160c01b6136ab565b82826137e69190614ed4565b600a6137f29190615036565b846137fd91906150dd565b9050613844565b6138186778e865373331906360c01b6136ab565b61382c67e0342539561babcd60c01b6136ab565b6138406781c3f231fa5d2cfd60c01b6136ab565b8390505b9392505050565b5f818361385891906150dd565b905092915050565b6138718161386c61394f565b613baa565b50565b61387e8282611945565b61394b57600160655f8481526020019081526020015f205f015f8373ffffffffffffffffffffffffffffffffffffffff1673ffffffffffffffffffffffffffffffffffffffff1681526020019081526020015f205f6101000a81548160ff0219169083151502179055506138f061394f565b73ffffffffffffffffffffffffffffffffffffffff168173ffffffffffffffffffffffffffffffffffffffff16837f2f8788117e7eff1d82e926ec794901d17c78024a50270940304540a733656f0d60405160405180910390a45b5050565b5f33905090565b6139608282611945565b15613a2d575f60655f8481526020019081526020015f205f015f8373ffffffffffffffffffffffffffffffffffffffff1673ffffffffffffffffffffffffffffffffffffffff1681526020019081526020015f205f6101000a81548160ff0219169083151502179055506139d261394f565b73ffffffffffffffffffffffffffffffffffffffff168173ffffffffffffffffffffffffffffffffffffffff16837ff6391f5c32d9c69d2a47ea670b442974b53935d1edc7fd64eb21e047a839171b60405160405180910390a45b5050565b5f8183613a3e9190614ed4565b905092915050565b5f8183613a5391906150ad565b905092915050565b5f808273ffffffffffffffffffffffffffffffffffffffff163b119050919050565b5f613a92677e07fc451e09039560c01b6136ab565b613aa667678d8f9c7de7088a60c01b6136ab565b613aba67c9d09d5af807870760c01b6136ab565b60a35f8373ffffffffffffffffffffffffffffffffffffffff1673ffffffffffffffffffffffffffffffffffffffff1681526020019081526020015f20549050919050565b5f80613b15674342ff5748efdcc060c01b6136ab565b613b29679662789e8346796360c01b6136ab565b613b3d6741b3958df581ce0560c01b6136ab565b5f60a25f8581526020019081526020015f206040518060400160405290815f82015481526020016001820154815250509050613b8367c14a69daf846d08760c01b6136ab565b613b97679f53137bd861544e60c01b6136ab565b805f015181602001519250925050915091565b613bb48282611945565b613c2a57613bc181613c2e565b613bce835f1c6020613c5b565b604051602001613bdf9291906151ec565b6040516020818303038152906040526040517f08c379a0000000000000000000000000000000000000000000000000000000008152600401613c21919061525d565b60405180910390fd5b5050565b6060613c548273ffffffffffffffffffffffffffffffffffffffff16601460ff16613c5b565b9050919050565b60605f6002836002613c6d91906150dd565b613c77919061484f565b67ffffffffffffffff811115613c9057613c8f614928565b5b6040519080825280601f01601f191660200182016040528015613cc25781602001600182028036833780820191505090505b5090507f3000000000000000000000000000000000000000000000000000000000000000815f81518110613cf957613cf8614e60565b5b60200101907effffffffffffffffffffffffffffffffffffffffffffffffffffffffffffff191690815f1a9053507f780000000000000000000000000000000000000000000000000000000000000081600181518110613d5c57613d5b614e60565b5b60200101907effffffffffffffffffffffffffffffffffffffffffffffffffffffffffffff191690815f1a9053505f6001846002613d9a91906150dd565b613da4919061484f565b90505b6001811115613e43577f3031323334353637383961626364656600000000000000000000000000000000600f861660108110613de657613de5614e60565b5b1a60f81b828281518110613dfd57613dfc614e60565b5b60200101907effffffffffffffffffffffffffffffffffffffffffffffffffffffffffffff191690815f1a905350600485901c945080613e3c9061527d565b9050613da7565b505f8414613e86576040517f08c379a0000000000000000000000000000000000000000000000000000000008152600401613e7d906152ee565b60405180910390fd5b8091505092915050565b6040518060a001604052805f81526020015f81526020015f81526020015f80191681526020015f6002811115613ec957613ec8614198565b5b81525090565b5f604051905090565b5f80fd5b5f80fd5b5f7fffffffff0000000000000000000000000000000000000000000000000000000082169050919050565b613f1481613ee0565b8114613f1e575f80fd5b50565b5f81359050613f2f81613f0b565b92915050565b5f60208284031215613f4a57613f49613ed8565b5b5f613f5784828501613f21565b91505092915050565b5f8115159050919050565b613f7481613f60565b82525050565b5f602082019050613f8d5f830184613f6b565b92915050565b5f819050919050565b613fa581613f93565b82525050565b5f602082019050613fbe5f830184613f9c565b92915050565b613fcd81613f93565b8114613fd7575f80fd5b50565b5f81359050613fe881613fc4565b92915050565b5f6020828403121561400357614002613ed8565b5b5f61401084828501613fda565b91505092915050565b5f73ffffffffffffffffffffffffffffffffffffffff82169050919050565b5f61404282614019565b9050919050565b61405281614038565b82525050565b5f60208201905061406b5f830184614049565b92915050565b61407a81614038565b8114614084575f80fd5b50565b5f8135905061409581614071565b92915050565b5f805f606084860312156140b2576140b1613ed8565b5b5f6140bf86828701613fda565b93505060206140d086828701614087565b92505060406140e186828701613fda565b9150509250925092565b5f6040820190506140fe5f830185613f9c565b61410b6020830184613f9c565b9392505050565b5f819050919050565b61412481614112565b811461412e575f80fd5b50565b5f8135905061413f8161411b565b92915050565b5f6020828403121561415a57614159613ed8565b5b5f61416784828501614131565b91505092915050565b61417981614112565b82525050565b5f6020820190506141925f830184614170565b92915050565b7f4e487b71000000000000000000000000000000000000000000000000000000005f52602160045260245ffd5b600381106141d6576141d5614198565b5b50565b5f8190506141e6826141c5565b919050565b5f6141f5826141d9565b9050919050565b614205816141eb565b82525050565b5f60a08201905061421e5f830188613f9c565b61422b6020830187613f9c565b6142386040830186613f9c565b6142456060830185614170565b61425260808301846141fc565b9695505050505050565b5f806040838503121561427257614271613ed8565b5b5f61427f85828601614131565b925050602061429085828601614087565b9150509250929050565b5f610100820190506142ae5f83018b613f9c565b6142bb602083018a613f9c565b6142c86040830189613f9c565b6142d56060830188613f9c565b6142e26080830187613f9c565b6142ef60a0830186613f9c565b6142fc60c0830185613f9c565b61430960e0830184613f9c565b9998505050505050505050565b5f6020828403121561432b5761432a613ed8565b5b5f61433884828501614087565b91505092915050565b5f806040838503121561435757614356613ed8565b5b5f61436485828601614087565b925050602061437585828601614131565b9150509250929050565b61438881613f93565b82525050565b61439781614112565b82525050565b6143a6816141eb565b82525050565b60a082015f8201516143c05f85018261437f565b5060208201516143d3602085018261437f565b5060408201516143e6604085018261437f565b5060608201516143f9606085018261438e565b50608082015161440c608085018261439d565b50505050565b5f60a0820190506144255f8301846143ac565b92915050565b5f805f805f805f60e0888a03121561444657614445613ed8565b5b5f6144538a828b01614131565b97505060206144648a828b01613fda565b96505060406144758a828b01613fda565b95505060606144868a828b01613fda565b94505060806144978a828b01613fda565b93505060a06144a88a828b01613fda565b92505060c06144b98a828b01613fda565b91505092959891949750929550565b5f80604083850312156144de576144dd613ed8565b5b5f6144eb85828601613fda565b92505060206144fc85828601613fda565b9150509250929050565b5f805f6060848603121561451d5761451c613ed8565b5b5f61452a86828701614131565b935050602061453b86828701614131565b925050604061454c86828701613fda565b9150509250925092565b5f81519050919050565b5f82825260208201905092915050565b5f819050602082019050919050565b5f61458a838361437f565b60208301905092915050565b5f602082019050919050565b5f6145ac82614556565b6145b68185614560565b93506145c183614570565b805f5b838110156145f15781516145d8888261457f565b97506145e383614596565b9250506001810190506145c4565b5085935050505092915050565b5f6020820190508181035f83015261461681846145a2565b905092915050565b5f82825260208201905092915050565b7f436f72655661756c742f6e6f742d6c69766500000000000000000000000000005f82015250565b5f61466260128361461e565b915061466d8261462e565b602082019050919050565b5f6020820190508181035f83015261468f81614656565b9050919050565b5f60ff82169050919050565b6146ab81614696565b81146146b5575f80fd5b50565b5f815190506146c6816146a2565b92915050565b5f602082840312156146e1576146e0613ed8565b5b5f6146ee848285016146b8565b91505092915050565b5f60608201905061470a5f830186613f9c565b6147176020830185613f9c565b6147246040830184613f9c565b949350505050565b7f416363657373436f6e74726f6c3a2063616e206f6e6c792072656e6f756e63655f8201527f20726f6c657320666f722073656c660000000000000000000000000000000000602082015250565b5f614786602f8361461e565b91506147918261472c565b604082019050919050565b5f6020820190508181035f8301526147b38161477a565b9050919050565b7f436f72655661756c742f6f776e65722061646472657373206973207a65726f205f82015250565b5f6147ee60208361461e565b91506147f9826147ba565b602082019050919050565b5f6020820190508181035f83015261481b816147e2565b9050919050565b7f4e487b71000000000000000000000000000000000000000000000000000000005f52601160045260245ffd5b5f61485982613f93565b915061486483613f93565b925082820190508082111561487c5761487b614822565b5b92915050565b7f496e697469616c697a61626c653a20636f6e747261637420697320616c7265615f8201527f647920696e697469616c697a6564000000000000000000000000000000000000602082015250565b5f6148dc602e8361461e565b91506148e782614882565b604082019050919050565b5f6020820190508181035f830152614909816148d0565b9050919050565b5f80fd5b5f80fd5b5f601f19601f8301169050919050565b7f4e487b71000000000000000000000000000000000000000000000000000000005f52604160045260245ffd5b61495e82614918565b810181811067ffffffffffffffff8211171561497d5761497c614928565b5b80604052505050565b5f61498f613ecf565b905061499b8282614955565b919050565b5f67ffffffffffffffff8211156149ba576149b9614928565b5b6149c382614918565b9050602081019050919050565b5f5b838110156149ed5780820151818401526020810190506149d2565b5f8484015250505050565b5f614a0a614a05846149a0565b614986565b905082815260208101848484011115614a2657614a25614914565b5b614a318482856149d0565b509392505050565b5f82601f830112614a4d57614a4c614910565b5b8151614a5d8482602086016149f8565b91505092915050565b5f60208284031215614a7b57614a7a613ed8565b5b5f82015167ffffffffffffffff811115614a9857614a97613edc565b5b614aa484828501614a39565b91505092915050565b5f81519050919050565b7f4e487b71000000000000000000000000000000000000000000000000000000005f52602260045260245ffd5b5f6002820490506001821680614afb57607f821691505b602082108103614b0e57614b0d614ab7565b5b50919050565b5f819050815f5260205f209050919050565b5f6020601f8301049050919050565b5f82821b905092915050565b5f60088302614b707fffffffffffffffffffffffffffffffffffffffffffffffffffffffffffffffff82614b35565b614b7a8683614b35565b95508019841693508086168417925050509392505050565b5f819050919050565b5f614bb5614bb0614bab84613f93565b614b92565b613f93565b9050919050565b5f819050919050565b614bce83614b9b565b614be2614bda82614bbc565b848454614b41565b825550505050565b5f90565b614bf6614bea565b614c01818484614bc5565b505050565b5b81811015614c2457614c195f82614bee565b600181019050614c07565b5050565b601f821115614c6957614c3a81614b14565b614c4384614b26565b81016020851015614c52578190505b614c66614c5e85614b26565b830182614c06565b50505b505050565b5f82821c905092915050565b5f614c895f1984600802614c6e565b1980831691505092915050565b5f614ca18383614c7a565b9150826002028217905092915050565b614cba82614aad565b67ffffffffffffffff811115614cd357614cd2614928565b5b614cdd8254614ae4565b614ce8828285614c28565b5f60209050601f831160018114614d19575f8415614d07578287015190505b614d118582614c96565b865550614d78565b601f198416614d2786614b14565b5f5b82811015614d4e57848901518255600182019150602085019450602081019050614d29565b86831015614d6b5784890151614d67601f891682614c7a565b8355505b6001600288020188555050505b505050505050565b5f819050919050565b5f614da3614d9e614d9984614d80565b614b92565b614696565b9050919050565b614db381614d89565b82525050565b5f602082019050614dcc5f830184614daa565b92915050565b7f436f72655661756c742f636f6c6c61746572616c206461746120756e7265636f5f8201527f676e697a65640000000000000000000000000000000000000000000000000000602082015250565b5f614e2c60268361461e565b9150614e3782614dd2565b604082019050919050565b5f6020820190508181035f830152614e5981614e20565b9050919050565b7f4e487b71000000000000000000000000000000000000000000000000000000005f52603260045260245ffd5b5f614e9782613f93565b91507fffffffffffffffffffffffffffffffffffffffffffffffffffffffffffffffff8203614ec957614ec8614822565b5b600182019050919050565b5f614ede82613f93565b9150614ee983613f93565b9250828203905081811115614f0157614f00614822565b5b92915050565b5f8160011c9050919050565b5f808291508390505b6001851115614f5c57808604811115614f3857614f37614822565b5b6001851615614f475780820291505b8081029050614f5585614f07565b9450614f1c565b94509492505050565b5f82614f74576001905061502f565b81614f81575f905061502f565b8160018114614f975760028114614fa157614fd0565b600191505061502f565b60ff841115614fb357614fb2614822565b5b8360020a915084821115614fca57614fc9614822565b5b5061502f565b5060208310610133831016604e8410600b84101617156150055782820a90508381111561500057614fff614822565b5b61502f565b6150128484846001614f13565b9250905081840481111561502957615028614822565b5b81810290505b9392505050565b5f61504082613f93565b915061504b83613f93565b92506150787fffffffffffffffffffffffffffffffffffffffffffffffffffffffffffffffff8484614f65565b905092915050565b7f4e487b71000000000000000000000000000000000000000000000000000000005f52601260045260245ffd5b5f6150b782613f93565b91506150c283613f93565b9250826150d2576150d1615080565b5b828204905092915050565b5f6150e782613f93565b91506150f283613f93565b925082820261510081613f93565b9150828204841483151761511757615116614822565b5b5092915050565b5f81905092915050565b7f416363657373436f6e74726f6c3a206163636f756e74200000000000000000005f82015250565b5f61515c60178361511e565b915061516782615128565b601782019050919050565b5f61517c82614aad565b615186818561511e565b93506151968185602086016149d0565b80840191505092915050565b7f206973206d697373696e6720726f6c65200000000000000000000000000000005f82015250565b5f6151d660118361511e565b91506151e1826151a2565b601182019050919050565b5f6151f682615150565b91506152028285615172565b915061520d826151ca565b91506152198284615172565b91508190509392505050565b5f61522f82614aad565b615239818561461e565b93506152498185602086016149d0565b61525281614918565b840191505092915050565b5f6020820190508181035f8301526152758184615225565b905092915050565b5f61528782613f93565b91505f820361529957615298614822565b5b600182039050919050565b7f537472696e67733a20686578206c656e67746820696e73756666696369656e745f82015250565b5f6152d860208361461e565b91506152e3826152a4565b602082019050919050565b5f6020820190508181035f830152615305816152cc565b905091905056fea2646970667358221220276615ce8931156ce603d61c642c00e92079632b5a5745e5f25b2c3f243f5d6164736f6c63430008150033",
  "linkReferences": {},
  "deployedLinkReferences": {}
}