{
  "abi": [
    {
      "inputs": [
        {
          "internalType": "string",
          "name": "_name",
          "type": "string"
        },
        {
          "internalType": "string",
          "name": "_symbol",
          "type": "string"
        }
      ],
      "stateMutability": "nonpayable",
      "type": "constructor"
    },
    {
      "inputs": [],
      "name": "AccessControlBadConfirmation",
      "type": "error"
    },
    {
      "inputs": [
        {
          "internalType": "address",
          "name": "account",
          "type": "address"
        },
        {
          "internalType": "bytes32",
          "name": "neededRole",
          "type": "bytes32"
        }
      ],
      "name": "AccessControlUnauthorizedAccount",
      "type": "error"
    },
    {
      "inputs": [
        {
          "internalType": "address",
          "name": "target",
          "type": "address"
        }
      ],
      "name": "AddressEmptyCode",
      "type": "error"
    },
    {
      "inputs": [
        {
          "internalType": "address",
          "name": "account",
          "type": "address"
        }
      ],
      "name": "AddressInsufficientBalance",
      "type": "error"
    },
    {
      "inputs": [],
      "name": "ECDSAInvalidSignature",
      "type": "error"
    },
    {
      "inputs": [
        {
          "internalType": "uint256",
          "name": "length",
          "type": "uint256"
        }
      ],
      "name": "ECDSAInvalidSignatureLength",
      "type": "error"
    },
    {
      "inputs": [
        {
          "internalType": "bytes32",
          "name": "s",
          "type": "bytes32"
        }
      ],
      "name": "ECDSAInvalidSignatureS",
      "type": "error"
    },
    {
      "inputs": [
        {
          "internalType": "address",
          "name": "spender",
          "type": "address"
        },
        {
          "internalType": "uint256",
          "name": "allowance",
          "type": "uint256"
        },
        {
          "internalType": "uint256",
          "name": "needed",
          "type": "uint256"
        }
      ],
      "name": "ERC20InsufficientAllowance",
      "type": "error"
    },
    {
      "inputs": [
        {
          "internalType": "address",
          "name": "sender",
          "type": "address"
        },
        {
          "internalType": "uint256",
          "name": "balance",
          "type": "uint256"
        },
        {
          "internalType": "uint256",
          "name": "needed",
          "type": "uint256"
        }
      ],
      "name": "ERC20InsufficientBalance",
      "type": "error"
    },
    {
      "inputs": [
        {
          "internalType": "address",
          "name": "approver",
          "type": "address"
        }
      ],
      "name": "ERC20InvalidApprover",
      "type": "error"
    },
    {
      "inputs": [
        {
          "internalType": "address",
          "name": "receiver",
          "type": "address"
        }
      ],
      "name": "ERC20InvalidReceiver",
      "type": "error"
    },
    {
      "inputs": [
        {
          "internalType": "address",
          "name": "sender",
          "type": "address"
        }
      ],
      "name": "ERC20InvalidSender",
      "type": "error"
    },
    {
      "inputs": [
        {
          "internalType": "address",
          "name": "spender",
          "type": "address"
        }
      ],
      "name": "ERC20InvalidSpender",
      "type": "error"
    },
    {
      "inputs": [
        {
          "internalType": "uint256",
          "name": "deadline",
          "type": "uint256"
        }
      ],
      "name": "ERC2612ExpiredSignature",
      "type": "error"
    },
    {
      "inputs": [
        {
          "internalType": "address",
          "name": "signer",
          "type": "address"
        },
        {
          "internalType": "address",
          "name": "owner",
          "type": "address"
        }
      ],
      "name": "ERC2612InvalidSigner",
      "type": "error"
    },
    {
      "inputs": [],
      "name": "FailedInnerCall",
      "type": "error"
    },
    {
      "inputs": [
        {
          "internalType": "address",
          "name": "account",
          "type": "address"
        },
        {
          "internalType": "uint256",
          "name": "currentNonce",
          "type": "uint256"
        }
      ],
      "name": "InvalidAccountNonce",
      "type": "error"
    },
    {
      "inputs": [],
      "name": "InvalidShortString",
      "type": "error"
    },
    {
      "inputs": [
        {
          "internalType": "address",
          "name": "token",
          "type": "address"
        }
      ],
      "name": "SafeERC20FailedOperation",
      "type": "error"
    },
    {
      "inputs": [
        {
          "internalType": "string",
          "name": "str",
          "type": "string"
        }
      ],
      "name": "StringTooLong",
      "type": "error"
    },
    {
      "anonymous": false,
      "inputs": [
        {
          "indexed": true,
          "internalType": "address",
          "name": "owner",
          "type": "address"
        },
        {
          "indexed": true,
          "internalType": "address",
          "name": "spender",
          "type": "address"
        },
        {
          "indexed": false,
          "internalType": "uint256",
          "name": "value",
          "type": "uint256"
        }
      ],
      "name": "Approval",
      "type": "event"
    },
    {
      "anonymous": false,
      "inputs": [],
      "name": "EIP712DomainChanged",
      "type": "event"
    },
    {
      "anonymous": false,
      "inputs": [
        {
          "indexed": true,
          "internalType": "bytes32",
          "name": "role",
          "type": "bytes32"
        },
        {
          "indexed": true,
          "internalType": "bytes32",
          "name": "previousAdminRole",
          "type": "bytes32"
        },
        {
          "indexed": true,
          "internalType": "bytes32",
          "name": "newAdminRole",
          "type": "bytes32"
        }
      ],
      "name": "RoleAdminChanged",
      "type": "event"
    },
    {
      "anonymous": false,
      "inputs": [
        {
          "indexed": true,
          "internalType": "bytes32",
          "name": "role",
          "type": "bytes32"
        },
        {
          "indexed": true,
          "internalType": "address",
          "name": "account",
          "type": "address"
        },
        {
          "indexed": true,
          "internalType": "address",
          "name": "sender",
          "type": "address"
        }
      ],
      "name": "RoleGranted",
      "type": "event"
    },
    {
      "anonymous": false,
      "inputs": [
        {
          "indexed": true,
          "internalType": "bytes32",
          "name": "role",
          "type": "bytes32"
        },
        {
          "indexed": true,
          "internalType": "address",
          "name": "account",
          "type": "address"
        },
        {
          "indexed": true,
          "internalType": "address",
          "name": "sender",
          "type": "address"
        }
      ],
      "name": "RoleRevoked",
      "type": "event"
    },
    {
      "anonymous": false,
      "inputs": [
        {
          "indexed": true,
          "internalType": "address",
          "name": "from",
          "type": "address"
        },
        {
          "indexed": true,
          "internalType": "address",
          "name": "to",
          "type": "address"
        },
        {
          "indexed": false,
          "internalType": "uint256",
          "name": "value",
          "type": "uint256"
        }
      ],
      "name": "Transfer",
      "type": "event"
    },
    {
      "inputs": [],
      "name": "DEFAULT_ADMIN_ROLE",
      "outputs": [
        {
          "internalType": "bytes32",
          "name": "",
          "type": "bytes32"
        }
      ],
      "stateMutability": "view",
      "type": "function"
    },
    {
      "inputs": [],
      "name": "DOMAIN_SEPARATOR",
      "outputs": [
        {
          "internalType": "bytes32",
          "name": "",
          "type": "bytes32"
        }
      ],
      "stateMutability": "view",
      "type": "function"
    },
    {
      "inputs": [
        {
          "internalType": "address",
          "name": "owner",
          "type": "address"
        },
        {
          "internalType": "address",
          "name": "spender",
          "type": "address"
        }
      ],
      "name": "allowance",
      "outputs": [
        {
          "internalType": "uint256",
          "name": "",
          "type": "uint256"
        }
      ],
      "stateMutability": "view",
      "type": "function"
    },
    {
      "inputs": [
        {
          "internalType": "address",
          "name": "spender",
          "type": "address"
        },
        {
          "internalType": "uint256",
          "name": "value",
          "type": "uint256"
        }
      ],
      "name": "approve",
      "outputs": [
        {
          "internalType": "bool",
          "name": "",
          "type": "bool"
        }
      ],
      "stateMutability": "nonpayable",
      "type": "function"
    },
    {
      "inputs": [
        {
          "internalType": "address",
          "name": "account",
          "type": "address"
        }
      ],
      "name": "balanceOf",
      "outputs": [
        {
          "internalType": "uint256",
          "name": "",
          "type": "uint256"
        }
      ],
      "stateMutability": "view",
      "type": "function"
    },
    {
      "inputs": [
        {
          "internalType": "address",
          "name": "account",
          "type": "address"
        },
        {
          "internalType": "uint256",
          "name": "amount",
          "type": "uint256"
        }
      ],
      "name": "burn",
      "outputs": [
        {
          "internalType": "bool",
          "name": "",
          "type": "bool"
        }
      ],
      "stateMutability": "nonpayable",
      "type": "function"
    },
    {
      "inputs": [],
      "name": "decimals",
      "outputs": [
        {
          "internalType": "uint8",
          "name": "",
          "type": "uint8"
        }
      ],
      "stateMutability": "view",
      "type": "function"
    },
    {
      "inputs": [],
      "name": "eip712Domain",
      "outputs": [
        {
          "internalType": "bytes1",
          "name": "fields",
          "type": "bytes1"
        },
        {
          "internalType": "string",
          "name": "name",
          "type": "string"
        },
        {
          "internalType": "string",
          "name": "version",
          "type": "string"
        },
        {
          "internalType": "uint256",
          "name": "chainId",
          "type": "uint256"
        },
        {
          "internalType": "address",
          "name": "verifyingContract",
          "type": "address"
        },
        {
          "internalType": "bytes32",
          "name": "salt",
          "type": "bytes32"
        },
        {
          "internalType": "uint256[]",
          "name": "extensions",
          "type": "uint256[]"
        }
      ],
      "stateMutability": "view",
      "type": "function"
    },
    {
      "inputs": [
        {
          "internalType": "bytes32",
          "name": "role",
          "type": "bytes32"
        }
      ],
      "name": "getRoleAdmin",
      "outputs": [
        {
          "internalType": "bytes32",
          "name": "",
          "type": "bytes32"
        }
      ],
      "stateMutability": "view",
      "type": "function"
    },
    {
      "inputs": [
        {
          "internalType": "bytes32",
          "name": "role",
          "type": "bytes32"
        },
        {
          "internalType": "address",
          "name": "account",
          "type": "address"
        }
      ],
      "name": "grantRole",
      "outputs": [],
      "stateMutability": "nonpayable",
      "type": "function"
    },
    {
      "inputs": [
        {
          "internalType": "bytes32",
          "name": "role",
          "type": "bytes32"
        },
        {
          "internalType": "address",
          "name": "account",
          "type": "address"
        }
      ],
      "name": "hasRole",
      "outputs": [
        {
          "internalType": "bool",
          "name": "",
          "type": "bool"
        }
      ],
      "stateMutability": "view",
      "type": "function"
    },
    {
      "inputs": [
        {
          "internalType": "address",
          "name": "account",
          "type": "address"
        },
        {
          "internalType": "uint256",
          "name": "amount",
          "type": "uint256"
        }
      ],
      "name": "mint",
      "outputs": [
        {
          "internalType": "bool",
          "name": "",
          "type": "bool"
        }
      ],
      "stateMutability": "nonpayable",
      "type": "function"
    },
    {
      "inputs": [],
      "name": "name",
      "outputs": [
        {
          "internalType": "string",
          "name": "",
          "type": "string"
        }
      ],
      "stateMutability": "view",
      "type": "function"
    },
    {
      "inputs": [
        {
          "internalType": "address",
          "name": "owner",
          "type": "address"
        }
      ],
      "name": "nonces",
      "outputs": [
        {
          "internalType": "uint256",
          "name": "",
          "type": "uint256"
        }
      ],
      "stateMutability": "view",
      "type": "function"
    },
    {
      "inputs": [
        {
          "internalType": "address",
          "name": "owner",
          "type": "address"
        },
        {
          "internalType": "address",
          "name": "spender",
          "type": "address"
        },
        {
          "internalType": "uint256",
          "name": "value",
          "type": "uint256"
        },
        {
          "internalType": "uint256",
          "name": "deadline",
          "type": "uint256"
        },
        {
          "internalType": "uint8",
          "name": "v",
          "type": "uint8"
        },
        {
          "internalType": "bytes32",
          "name": "r",
          "type": "bytes32"
        },
        {
          "internalType": "bytes32",
          "name": "s",
          "type": "bytes32"
        }
      ],
      "name": "permit",
      "outputs": [],
      "stateMutability": "nonpayable",
      "type": "function"
    },
    {
      "inputs": [
        {
          "internalType": "contract ERC20",
          "name": "token",
          "type": "address"
        },
        {
          "internalType": "address",
          "name": "to",
          "type": "address"
        }
      ],
      "name": "recoverToken",
      "outputs": [],
      "stateMutability": "nonpayable",
      "type": "function"
    },
    {
      "inputs": [
        {
          "internalType": "bytes32",
          "name": "role",
          "type": "bytes32"
        },
        {
          "internalType": "address",
          "name": "callerConfirmation",
          "type": "address"
        }
      ],
      "name": "renounceRole",
      "outputs": [],
      "stateMutability": "nonpayable",
      "type": "function"
    },
    {
      "inputs": [
        {
          "internalType": "bytes32",
          "name": "role",
          "type": "bytes32"
        },
        {
          "internalType": "address",
          "name": "account",
          "type": "address"
        }
      ],
      "name": "revokeRole",
      "outputs": [],
      "stateMutability": "nonpayable",
      "type": "function"
    },
    {
      "inputs": [
        {
          "internalType": "address",
          "name": "account",
          "type": "address"
        }
      ],
      "name": "setMinterRole",
      "outputs": [],
      "stateMutability": "nonpayable",
      "type": "function"
    },
    {
      "inputs": [
        {
          "internalType": "bytes4",
          "name": "interfaceId",
          "type": "bytes4"
        }
      ],
      "name": "supportsInterface",
      "outputs": [
        {
          "internalType": "bool",
          "name": "",
          "type": "bool"
        }
      ],
      "stateMutability": "view",
      "type": "function"
    },
    {
      "inputs": [],
      "name": "symbol",
      "outputs": [
        {
          "internalType": "string",
          "name": "",
          "type": "string"
        }
      ],
      "stateMutability": "view",
      "type": "function"
    },
    {
      "inputs": [],
      "name": "totalSupply",
      "outputs": [
        {
          "internalType": "uint256",
          "name": "",
          "type": "uint256"
        }
      ],
      "stateMutability": "view",
      "type": "function"
    },
    {
      "inputs": [
        {
          "internalType": "address",
          "name": "to",
          "type": "address"
        },
        {
          "internalType": "uint256",
          "name": "value",
          "type": "uint256"
        }
      ],
      "name": "transfer",
      "outputs": [
        {
          "internalType": "bool",
          "name": "",
          "type": "bool"
        }
      ],
      "stateMutability": "nonpayable",
      "type": "function"
    },
    {
      "inputs": [
        {
          "internalType": "address",
          "name": "from",
          "type": "address"
        },
        {
          "internalType": "address",
          "name": "to",
          "type": "address"
        },
        {
          "internalType": "uint256",
          "name": "value",
          "type": "uint256"
        }
      ],
      "name": "transferFrom",
      "outputs": [
        {
          "internalType": "bool",
          "name": "",
          "type": "bool"
        }
      ],
      "stateMutability": "nonpayable",
      "type": "function"
    }
  ],
  "bytecode": {
    "object": "0x6101606040523480156200001257600080fd5b506040516200240038038062002400833981016040819052620000359162000341565b6040805180820190915260018152603160f81b602082015281908190848260046200006183826200043a565b5060056200007082826200043a565b50620000829150839050600662000141565b610120526200009381600762000141565b61014052815160208084019190912060e052815190820120610100524660a0526200012160e05161010051604080517f8b73c3c69bb8fe3d512ecc4cf759cc79239f7b179b0ffacaa9a75d522b39400f60208201529081019290925260608201524660808201523060a082015260009060c00160405160208183030381529060405280519060200120905090565b60805250503060c05250620001386000336200017a565b50505062000560565b60006020835110156200016157620001598362000228565b905062000174565b816200016e84826200043a565b5060ff90505b92915050565b6000828152602081815260408083206001600160a01b038516845290915281205460ff166200021f576000838152602081815260408083206001600160a01b03861684529091529020805460ff19166001179055620001d63390565b6001600160a01b0316826001600160a01b0316847f2f8788117e7eff1d82e926ec794901d17c78024a50270940304540a733656f0d60405160405180910390a450600162000174565b50600062000174565b600080829050601f815111156200025f578260405163305a27a960e01b815260040162000256919062000506565b60405180910390fd5b80516200026c826200053b565b179392505050565b634e487b7160e01b600052604160045260246000fd5b60005b83811015620002a75781810151838201526020016200028d565b50506000910152565b600082601f830112620002c257600080fd5b81516001600160401b0380821115620002df57620002df62000274565b604051601f8301601f19908116603f011681019082821181831017156200030a576200030a62000274565b816040528381528660208588010111156200032457600080fd5b620003378460208301602089016200028a565b9695505050505050565b600080604083850312156200035557600080fd5b82516001600160401b03808211156200036d57600080fd5b6200037b86838701620002b0565b935060208501519150808211156200039257600080fd5b50620003a185828601620002b0565b9150509250929050565b600181811c90821680620003c057607f821691505b602082108103620003e157634e487b7160e01b600052602260045260246000fd5b50919050565b601f8211156200043557600081815260208120601f850160051c81016020861015620004105750805b601f850160051c820191505b8181101562000431578281556001016200041c565b5050505b505050565b81516001600160401b0381111562000456576200045662000274565b6200046e81620004678454620003ab565b84620003e7565b602080601f831160018114620004a657600084156200048d5750858301515b600019600386901b1c1916600185901b17855562000431565b600085815260208120601f198616915b82811015620004d757888601518255948401946001909101908401620004b6565b5085821015620004f65787850151600019600388901b60f8161c191681555b5050505050600190811b01905550565b6020815260008251806020840152620005278160408501602087016200028a565b601f01601f19169190910160400192915050565b80516020808301519190811015620003e15760001960209190910360031b1b16919050565b60805160a05160c05160e051610100516101205161014051611e45620005bb6000396000610fb701526000610f8a01526000610e1701526000610def01526000610d4a01526000610d7401526000610d9e0152611e456000f3fe608060405234801561001057600080fd5b50600436106101985760003560e01c80637ecebe00116100e3578063a217fddf1161008c578063d547741f11610066578063d547741f1461038b578063dd62ed3e1461039e578063feaea586146103e457600080fd5b8063a217fddf1461035d578063a9059cbb14610365578063d505accf1461037857600080fd5b8063945d1229116100bd578063945d12291461032f57806395d89b41146103425780639dc29fac1461034a57600080fd5b80637ecebe00146102bd57806384b0196e146102d057806391d14854146102eb57600080fd5b80632f2ff15d1161014557806336568abe1161011f57806336568abe1461026157806340c10f191461027457806370a082311461028757600080fd5b80632f2ff15d14610235578063313ce5671461024a5780633644e5151461025957600080fd5b806318160ddd1161017657806318160ddd146101ed57806323b872dd146101ff578063248a9ca31461021257600080fd5b806301ffc9a71461019d57806306fdde03146101c5578063095ea7b3146101da575b600080fd5b6101b06101ab366004611a16565b6103f7565b60405190151581526020015b60405180910390f35b6101cd610490565b6040516101bc9190611ac6565b6101b06101e8366004611afb565b610522565b6003545b6040519081526020016101bc565b6101b061020d366004611b27565b61053a565b6101f1610220366004611b68565b60009081526020819052604090206001015490565b610248610243366004611b81565b610560565b005b604051601281526020016101bc565b6101f161058b565b61024861026f366004611b81565b61059a565b6101b0610282366004611afb565b6105f8565b6101f1610295366004611bb1565b73ffffffffffffffffffffffffffffffffffffffff1660009081526001602052604090205490565b6101f16102cb366004611bb1565b61062e565b6102d8610659565b6040516101bc9796959493929190611bce565b6101b06102f9366004611b81565b60009182526020828152604080842073ffffffffffffffffffffffffffffffffffffffff93909316845291905290205460ff1690565b61024861033d366004611bb1565b6106bb565b6101cd6106f0565b6101b0610358366004611afb565b6106ff565b6101f1600081565b6101b0610373366004611afb565b610735565b610248610386366004611c8d565b610743565b610248610399366004611b81565b6108f5565b6101f16103ac366004611d04565b73ffffffffffffffffffffffffffffffffffffffff918216600090815260026020908152604080832093909416825291909152205490565b6102486103f2366004611d04565b61091a565b60007fffffffff0000000000000000000000000000000000000000000000000000000082167f7965db0b00000000000000000000000000000000000000000000000000000000148061048a57507f01ffc9a7000000000000000000000000000000000000000000000000000000007fffffffff000000000000000000000000000000000000000000000000000000008316145b92915050565b60606004805461049f90611d32565b80601f01602080910402602001604051908101604052809291908181526020018280546104cb90611d32565b80156105185780601f106104ed57610100808354040283529160200191610518565b820191906000526020600020905b8154815290600101906020018083116104fb57829003601f168201915b5050505050905090565b600033610530818585610aa6565b5060019392505050565b600033610548858285610ab3565b610553858585610b7c565b60019150505b9392505050565b60008281526020819052604090206001015461057b81610c27565b6105858383610c34565b50505050565b6000610595610d30565b905090565b73ffffffffffffffffffffffffffffffffffffffff811633146105e9576040517f6697b23200000000000000000000000000000000000000000000000000000000815260040160405180910390fd5b6105f38282610e68565b505050565b60007fcfd53186d792f1ec9d0679afc2dc3ffc86fc31fe1e0f342b838eb6c3eade62b361062481610c27565b6105308484610f23565b73ffffffffffffffffffffffffffffffffffffffff811660009081526008602052604081205461048a565b60006060806000806000606061066d610f83565b610675610fb0565b604080516000808252602082019092527f0f000000000000000000000000000000000000000000000000000000000000009b939a50919850469750309650945092509050565b60006106c681610c27565b6105f37fcfd53186d792f1ec9d0679afc2dc3ffc86fc31fe1e0f342b838eb6c3eade62b383610c34565b60606005805461049f90611d32565b60007fcfd53186d792f1ec9d0679afc2dc3ffc86fc31fe1e0f342b838eb6c3eade62b361072b81610c27565b6105308484610fdd565b600033610530818585610b7c565b83421115610785576040517f62791302000000000000000000000000000000000000000000000000000000008152600481018590526024015b60405180910390fd5b60007f6e71edae12b1b97f4d1f60370fef10105fa2faae0126114a169c64845d6126c98888886107df8c73ffffffffffffffffffffffffffffffffffffffff16600090815260086020526040902080546001810190915590565b60408051602081019690965273ffffffffffffffffffffffffffffffffffffffff94851690860152929091166060840152608083015260a082015260c0810186905260e001604051602081830303815290604052805190602001209050600061084782611039565b9050600061085782878787611081565b90508973ffffffffffffffffffffffffffffffffffffffff168173ffffffffffffffffffffffffffffffffffffffff16146108de576040517f4b800e4600000000000000000000000000000000000000000000000000000000815273ffffffffffffffffffffffffffffffffffffffff80831660048301528b16602482015260440161077c565b6108e98a8a8a610aa6565b50505050505050505050565b60008281526020819052604090206001015461091081610c27565b6105858383610e68565b600061092581610c27565b73ffffffffffffffffffffffffffffffffffffffff8316156109dc576040517f70a082310000000000000000000000000000000000000000000000000000000081523060048201526105f3908490849073ffffffffffffffffffffffffffffffffffffffff8316906370a0823190602401602060405180830381865afa1580156109b3573d6000803e3d6000fd5b505050506040513d601f19601f820116820180604052508101906109d79190611d85565b6110af565b60008273ffffffffffffffffffffffffffffffffffffffff164760405160006040518083038185875af1925050503d8060008114610a36576040519150601f19603f3d011682016040523d82523d6000602084013e610a3b565b606091505b5050905080610585576040517f08c379a000000000000000000000000000000000000000000000000000000000815260206004820152600f60248201527f7769746864726177206661696c65640000000000000000000000000000000000604482015260640161077c565b6105f3838383600161113c565b73ffffffffffffffffffffffffffffffffffffffff8381166000908152600260209081526040808320938616835292905220547fffffffffffffffffffffffffffffffffffffffffffffffffffffffffffffffff81146105855781811015610b6d576040517ffb8f41b200000000000000000000000000000000000000000000000000000000815273ffffffffffffffffffffffffffffffffffffffff84166004820152602481018290526044810183905260640161077c565b6105858484848403600061113c565b73ffffffffffffffffffffffffffffffffffffffff8316610bcc576040517f96c6fd1e0000000000000000000000000000000000000000000000000000000081526000600482015260240161077c565b73ffffffffffffffffffffffffffffffffffffffff8216610c1c576040517fec442f050000000000000000000000000000000000000000000000000000000081526000600482015260240161077c565b6105f3838383611284565b610c31813361142f565b50565b60008281526020818152604080832073ffffffffffffffffffffffffffffffffffffffff8516845290915281205460ff16610d285760008381526020818152604080832073ffffffffffffffffffffffffffffffffffffffff86168452909152902080547fffffffffffffffffffffffffffffffffffffffffffffffffffffffffffffff00166001179055610cc63390565b73ffffffffffffffffffffffffffffffffffffffff168273ffffffffffffffffffffffffffffffffffffffff16847f2f8788117e7eff1d82e926ec794901d17c78024a50270940304540a733656f0d60405160405180910390a450600161048a565b50600061048a565b60003073ffffffffffffffffffffffffffffffffffffffff7f000000000000000000000000000000000000000000000000000000000000000016148015610d9657507f000000000000000000000000000000000000000000000000000000000000000046145b15610dc057507f000000000000000000000000000000000000000000000000000000000000000090565b610595604080517f8b73c3c69bb8fe3d512ecc4cf759cc79239f7b179b0ffacaa9a75d522b39400f60208201527f0000000000000000000000000000000000000000000000000000000000000000918101919091527f000000000000000000000000000000000000000000000000000000000000000060608201524660808201523060a082015260009060c00160405160208183030381529060405280519060200120905090565b60008281526020818152604080832073ffffffffffffffffffffffffffffffffffffffff8516845290915281205460ff1615610d285760008381526020818152604080832073ffffffffffffffffffffffffffffffffffffffff8616808552925280832080547fffffffffffffffffffffffffffffffffffffffffffffffffffffffffffffff0016905551339286917ff6391f5c32d9c69d2a47ea670b442974b53935d1edc7fd64eb21e047a839171b9190a450600161048a565b73ffffffffffffffffffffffffffffffffffffffff8216610f73576040517fec442f050000000000000000000000000000000000000000000000000000000081526000600482015260240161077c565b610f7f60008383611284565b5050565b60606105957f000000000000000000000000000000000000000000000000000000000000000060066114b5565b60606105957f000000000000000000000000000000000000000000000000000000000000000060076114b5565b73ffffffffffffffffffffffffffffffffffffffff821661102d576040517f96c6fd1e0000000000000000000000000000000000000000000000000000000081526000600482015260240161077c565b610f7f82600083611284565b600061048a611046610d30565b836040517f19010000000000000000000000000000000000000000000000000000000000008152600281019290925260228201526042902090565b60008060008061109388888888611560565b9250925092506110a3828261165a565b50909695505050505050565b6040805173ffffffffffffffffffffffffffffffffffffffff8416602482015260448082018490528251808303909101815260649091019091526020810180517bffffffffffffffffffffffffffffffffffffffffffffffffffffffff167fa9059cbb000000000000000000000000000000000000000000000000000000001790526105f390849061175e565b73ffffffffffffffffffffffffffffffffffffffff841661118c576040517fe602df050000000000000000000000000000000000000000000000000000000081526000600482015260240161077c565b73ffffffffffffffffffffffffffffffffffffffff83166111dc576040517f94280d620000000000000000000000000000000000000000000000000000000081526000600482015260240161077c565b73ffffffffffffffffffffffffffffffffffffffff80851660009081526002602090815260408083209387168352929052208290558015610585578273ffffffffffffffffffffffffffffffffffffffff168473ffffffffffffffffffffffffffffffffffffffff167f8c5be1e5ebec7d5bd14f71427d1e84f3dd0314c0f7b2291e5b200ac8c7c3b9258460405161127691815260200190565b60405180910390a350505050565b73ffffffffffffffffffffffffffffffffffffffff83166112bc5780600360008282546112b19190611d9e565b9091555061136e9050565b73ffffffffffffffffffffffffffffffffffffffff831660009081526001602052604090205481811015611342576040517fe450d38c00000000000000000000000000000000000000000000000000000000815273ffffffffffffffffffffffffffffffffffffffff85166004820152602481018290526044810183905260640161077c565b73ffffffffffffffffffffffffffffffffffffffff841660009081526001602052604090209082900390555b73ffffffffffffffffffffffffffffffffffffffff8216611397576003805482900390556113c3565b73ffffffffffffffffffffffffffffffffffffffff821660009081526001602052604090208054820190555b8173ffffffffffffffffffffffffffffffffffffffff168373ffffffffffffffffffffffffffffffffffffffff167fddf252ad1be2c89b69c2b068fc378daa952ba7f163c4a11628f55a4df523b3ef8360405161142291815260200190565b60405180910390a3505050565b60008281526020818152604080832073ffffffffffffffffffffffffffffffffffffffff8516845290915290205460ff16610f7f576040517fe2517d3f00000000000000000000000000000000000000000000000000000000815273ffffffffffffffffffffffffffffffffffffffff821660048201526024810183905260440161077c565b606060ff83146114cf576114c8836117f4565b905061048a565b8180546114db90611d32565b80601f016020809104026020016040519081016040528092919081815260200182805461150790611d32565b80156115545780601f1061152957610100808354040283529160200191611554565b820191906000526020600020905b81548152906001019060200180831161153757829003601f168201915b5050505050905061048a565b600080807f7fffffffffffffffffffffffffffffff5d576e7357a4501ddfe92f46681b20a084111561159b5750600091506003905082611650565b604080516000808252602082018084528a905260ff891692820192909252606081018790526080810186905260019060a0016020604051602081039080840390855afa1580156115ef573d6000803e3d6000fd5b50506040517fffffffffffffffffffffffffffffffffffffffffffffffffffffffffffffffe0015191505073ffffffffffffffffffffffffffffffffffffffff811661164657506000925060019150829050611650565b9250600091508190505b9450945094915050565b600082600381111561166e5761166e611dd8565b03611677575050565b600182600381111561168b5761168b611dd8565b036116c2576040517ff645eedf00000000000000000000000000000000000000000000000000000000815260040160405180910390fd5b60028260038111156116d6576116d6611dd8565b03611710576040517ffce698f70000000000000000000000000000000000000000000000000000000081526004810182905260240161077c565b600382600381111561172457611724611dd8565b03610f7f576040517fd78bce0c0000000000000000000000000000000000000000000000000000000081526004810182905260240161077c565b600061178073ffffffffffffffffffffffffffffffffffffffff841683611833565b905080516000141580156117a55750808060200190518101906117a39190611e07565b155b156105f3576040517f5274afe700000000000000000000000000000000000000000000000000000000815273ffffffffffffffffffffffffffffffffffffffff8416600482015260240161077c565b6060600061180183611841565b604080516020808252818301909252919250600091906020820181803683375050509182525060208101929092525090565b606061055983836000611882565b600060ff8216601f81111561048a576040517fb3512b0c00000000000000000000000000000000000000000000000000000000815260040160405180910390fd5b6060814710156118c0576040517fcd78605900000000000000000000000000000000000000000000000000000000815230600482015260240161077c565b6000808573ffffffffffffffffffffffffffffffffffffffff1684866040516118e99190611e29565b60006040518083038185875af1925050503d8060008114611926576040519150601f19603f3d011682016040523d82523d6000602084013e61192b565b606091505b509150915061193b868383611945565b9695505050505050565b60608261195a57611955826119d4565b610559565b815115801561197e575073ffffffffffffffffffffffffffffffffffffffff84163b155b156119cd576040517f9996b31500000000000000000000000000000000000000000000000000000000815273ffffffffffffffffffffffffffffffffffffffff8516600482015260240161077c565b5080610559565b8051156119e45780518082602001fd5b6040517f1425ea4200000000000000000000000000000000000000000000000000000000815260040160405180910390fd5b600060208284031215611a2857600080fd5b81357fffffffff000000000000000000000000000000000000000000000000000000008116811461055957600080fd5b60005b83811015611a73578181015183820152602001611a5b565b50506000910152565b60008151808452611a94816020860160208601611a58565b601f017fffffffffffffffffffffffffffffffffffffffffffffffffffffffffffffffe0169290920160200192915050565b6020815260006105596020830184611a7c565b73ffffffffffffffffffffffffffffffffffffffff81168114610c3157600080fd5b60008060408385031215611b0e57600080fd5b8235611b1981611ad9565b946020939093013593505050565b600080600060608486031215611b3c57600080fd5b8335611b4781611ad9565b92506020840135611b5781611ad9565b929592945050506040919091013590565b600060208284031215611b7a57600080fd5b5035919050565b60008060408385031215611b9457600080fd5b823591506020830135611ba681611ad9565b809150509250929050565b600060208284031215611bc357600080fd5b813561055981611ad9565b7fff00000000000000000000000000000000000000000000000000000000000000881681526000602060e081840152611c0a60e084018a611a7c565b8381036040850152611c1c818a611a7c565b6060850189905273ffffffffffffffffffffffffffffffffffffffff8816608086015260a0850187905284810360c0860152855180825283870192509083019060005b81811015611c7b57835183529284019291840191600101611c5f565b50909c9b505050505050505050505050565b600080600080600080600060e0888a031215611ca857600080fd5b8735611cb381611ad9565b96506020880135611cc381611ad9565b95506040880135945060608801359350608088013560ff81168114611ce757600080fd5b9699959850939692959460a0840135945060c09093013592915050565b60008060408385031215611d1757600080fd5b8235611d2281611ad9565b91506020830135611ba681611ad9565b600181811c90821680611d4657607f821691505b602082108103611d7f577f4e487b7100000000000000000000000000000000000000000000000000000000600052602260045260246000fd5b50919050565b600060208284031215611d9757600080fd5b5051919050565b8082018082111561048a577f4e487b7100000000000000000000000000000000000000000000000000000000600052601160045260246000fd5b7f4e487b7100000000000000000000000000000000000000000000000000000000600052602160045260246000fd5b600060208284031215611e1957600080fd5b8151801515811461055957600080fd5b60008251611e3b818460208701611a58565b919091019291505056",
    "linkReferences": {}
  },
  "methodIdentifiers": {
    "DEFAULT_ADMIN_ROLE()": "a217fddf",
    "DOMAIN_SEPARATOR()": "3644e515",
    "allowance(address,address)": "dd62ed3e",
    "approve(address,uint256)": "095ea7b3",
    "balanceOf(address)": "70a08231",
    "burn(address,uint256)": "9dc29fac",
    "decimals()": "313ce567",
    "eip712Domain()": "84b0196e",
    "getRoleAdmin(bytes32)": "248a9ca3",
    "grantRole(bytes32,address)": "2f2ff15d",
    "hasRole(bytes32,address)": "91d14854",
    "mint(address,uint256)": "40c10f19",
    "name()": "06fdde03",
    "nonces(address)": "7ecebe00",
    "permit(address,address,uint256,uint256,uint8,bytes32,bytes32)": "d505accf",
    "recoverToken(address,address)": "feaea586",
    "renounceRole(bytes32,address)": "36568abe",
    "revokeRole(bytes32,address)": "d547741f",
    "setMinterRole(address)": "945d1229",
    "supportsInterface(bytes4)": "01ffc9a7",
    "symbol()": "95d89b41",
    "totalSupply()": "18160ddd",
    "transfer(address,uint256)": "a9059cbb",
    "transferFrom(address,address,uint256)": "23b872dd"
  },
  "id": 44
}