{
  "_format": "hh-sol-artifact-1",
  "contractName": "USDCAdapter",
  "sourceName": "contracts/adapter.sol",
  "abi": [
    {
      "inputs": [
        {
          "internalType": "string",
          "name": "error",
          "type": "string"
        }
      ],
      "name": "NotLive",
      "type": "error"
    },
    {
      "inputs": [
        {
          "internalType": "string",
          "name": "error",
          "type": "string"
        }
      ],
      "name": "NotOwner",
      "type": "error"
    },
    {
      "inputs": [
        {
          "internalType": "string",
          "name": "error",
          "type": "string"
        }
      ],
      "name": "ZeroAmount",
      "type": "error"
    },
    {
      "anonymous": false,
      "inputs": [
        {
          "indexed": false,
          "internalType": "uint8",
          "name": "version",
          "type": "uint8"
        }
      ],
      "name": "Initialized",
      "type": "event"
    },
    {
      "anonymous": false,
      "inputs": [
        {
          "indexed": true,
          "internalType": "bytes32",
          "name": "role",
          "type": "bytes32"
        },
        {
          "indexed": true,
          "internalType": "bytes32",
          "name": "previousAdminRole",
          "type": "bytes32"
        },
        {
          "indexed": true,
          "internalType": "bytes32",
          "name": "newAdminRole",
          "type": "bytes32"
        }
      ],
      "name": "RoleAdminChanged",
      "type": "event"
    },
    {
      "anonymous": false,
      "inputs": [
        {
          "indexed": true,
          "internalType": "bytes32",
          "name": "role",
          "type": "bytes32"
        },
        {
          "indexed": true,
          "internalType": "address",
          "name": "account",
          "type": "address"
        },
        {
          "indexed": true,
          "internalType": "address",
          "name": "sender",
          "type": "address"
        }
      ],
      "name": "RoleGranted",
      "type": "event"
    },
    {
      "anonymous": false,
      "inputs": [
        {
          "indexed": true,
          "internalType": "bytes32",
          "name": "role",
          "type": "bytes32"
        },
        {
          "indexed": true,
          "internalType": "address",
          "name": "account",
          "type": "address"
        },
        {
          "indexed": true,
          "internalType": "address",
          "name": "sender",
          "type": "address"
        }
      ],
      "name": "RoleRevoked",
      "type": "event"
    },
    {
      "anonymous": false,
      "inputs": [
        {
          "indexed": false,
          "internalType": "uint256",
          "name": "vaultId",
          "type": "uint256"
        },
        {
          "indexed": true,
          "internalType": "address",
          "name": "owner",
          "type": "address"
        },
        {
          "indexed": false,
          "internalType": "uint256",
          "name": "amount",
          "type": "uint256"
        }
      ],
      "name": "USDCExited",
      "type": "event"
    },
    {
      "anonymous": false,
      "inputs": [
        {
          "indexed": false,
          "internalType": "uint256",
          "name": "vaultId",
          "type": "uint256"
        },
        {
          "indexed": true,
          "internalType": "address",
          "name": "owner",
          "type": "address"
        },
        {
          "indexed": false,
          "internalType": "uint256",
          "name": "amount",
          "type": "uint256"
        }
      ],
      "name": "USDCJoined",
      "type": "event"
    },
    {
      "inputs": [],
      "name": "DEFAULT_ADMIN_ROLE",
      "outputs": [
        {
          "internalType": "bytes32",
          "name": "",
          "type": "bytes32"
        }
      ],
      "stateMutability": "view",
      "type": "function"
    },
    {
      "inputs": [],
      "name": "collateralContract",
      "outputs": [
        {
          "internalType": "contract IERC20",
          "name": "",
          "type": "address"
        }
      ],
      "stateMutability": "view",
      "type": "function"
    },
    {
      "inputs": [],
      "name": "collateralType",
      "outputs": [
        {
          "internalType": "bytes32",
          "name": "",
          "type": "bytes32"
        }
      ],
      "stateMutability": "view",
      "type": "function"
    },
    {
      "inputs": [
        {
          "internalType": "uint256",
          "name": "amount",
          "type": "uint256"
        },
        {
          "internalType": "address",
          "name": "owner",
          "type": "address"
        },
        {
          "internalType": "uint256",
          "name": "_vaultId",
          "type": "uint256"
        }
      ],
      "name": "exit",
      "outputs": [],
      "stateMutability": "nonpayable",
      "type": "function"
    },
    {
      "inputs": [
        {
          "internalType": "bytes32",
          "name": "role",
          "type": "bytes32"
        }
      ],
      "name": "getRoleAdmin",
      "outputs": [
        {
          "internalType": "bytes32",
          "name": "",
          "type": "bytes32"
        }
      ],
      "stateMutability": "view",
      "type": "function"
    },
    {
      "inputs": [
        {
          "internalType": "bytes32",
          "name": "role",
          "type": "bytes32"
        },
        {
          "internalType": "address",
          "name": "account",
          "type": "address"
        }
      ],
      "name": "grantRole",
      "outputs": [],
      "stateMutability": "nonpayable",
      "type": "function"
    },
    {
      "inputs": [
        {
          "internalType": "bytes32",
          "name": "role",
          "type": "bytes32"
        },
        {
          "internalType": "address",
          "name": "account",
          "type": "address"
        }
      ],
      "name": "hasRole",
      "outputs": [
        {
          "internalType": "bool",
          "name": "",
          "type": "bool"
        }
      ],
      "stateMutability": "view",
      "type": "function"
    },
    {
      "inputs": [
        {
          "internalType": "address",
          "name": "_vault",
          "type": "address"
        },
        {
          "internalType": "address",
          "name": "_collateralContract",
          "type": "address"
        }
      ],
      "name": "initialize",
      "outputs": [],
      "stateMutability": "nonpayable",
      "type": "function"
    },
    {
      "inputs": [
        {
          "internalType": "uint256",
          "name": "amount",
          "type": "uint256"
        },
        {
          "internalType": "address",
          "name": "owner",
          "type": "address"
        },
        {
          "internalType": "uint256",
          "name": "_vaultId",
          "type": "uint256"
        }
      ],
      "name": "join",
      "outputs": [],
      "stateMutability": "nonpayable",
      "type": "function"
    },
    {
      "inputs": [],
      "name": "live",
      "outputs": [
        {
          "internalType": "uint256",
          "name": "",
          "type": "uint256"
        }
      ],
      "stateMutability": "view",
      "type": "function"
    },
    {
      "inputs": [
        {
          "internalType": "bytes32",
          "name": "role",
          "type": "bytes32"
        },
        {
          "internalType": "address",
          "name": "account",
          "type": "address"
        }
      ],
      "name": "renounceRole",
      "outputs": [],
      "stateMutability": "nonpayable",
      "type": "function"
    },
    {
      "inputs": [
        {
          "internalType": "bytes32",
          "name": "role",
          "type": "bytes32"
        },
        {
          "internalType": "address",
          "name": "account",
          "type": "address"
        }
      ],
      "name": "revokeRole",
      "outputs": [],
      "stateMutability": "nonpayable",
      "type": "function"
    },
    {
      "inputs": [
        {
          "internalType": "bytes4",
          "name": "interfaceId",
          "type": "bytes4"
        }
      ],
      "name": "supportsInterface",
      "outputs": [
        {
          "internalType": "bool",
          "name": "",
          "type": "bool"
        }
      ],
      "stateMutability": "view",
      "type": "function"
    },
    {
      "inputs": [],
      "name": "vaultContract",
      "outputs": [
        {
          "internalType": "contract IVault",
          "name": "",
          "type": "address"
        }
      ],
      "stateMutability": "view",
      "type": "function"
    }
  ],
  "bytecode": "0x608060405234801561000f575f80fd5b5061221f8061001d5f395ff3fe608060405234801561000f575f80fd5b50600436106100e8575f3560e01c806391d148541161008a578063ad89498211610064578063ad89498214610246578063c6e1c7c914610262578063d547741f14610280578063e824600f1461029c576100e8565b806391d14854146101da578063957aa58c1461020a578063a217fddf14610228576100e8565b80632f2ff15d116100c65780632f2ff15d1461016a57806336568abe14610186578063485cc955146101a25780637613c1d2146101be576100e8565b806301ffc9a7146100ec5780632274346b1461011c578063248a9ca31461013a575b5f80fd5b610106600480360381019061010191906116af565b6102ba565b60405161011391906116f4565b60405180910390f35b610124610333565b6040516101319190611787565b60405180910390f35b610154600480360381019061014f91906117d3565b610358565b604051610161919061180d565b60405180910390f35b610184600480360381019061017f9190611861565b610375565b005b6101a0600480360381019061019b9190611861565b610396565b005b6101bc60048036038101906101b7919061189f565b610419565b005b6101d860048036038101906101d39190611910565b6106e9565b005b6101f460048036038101906101ef9190611861565b610aa7565b60405161020191906116f4565b60405180910390f35b610212610b0b565b60405161021f919061196f565b60405180910390f35b610230610b11565b60405161023d919061180d565b60405180910390f35b610260600480360381019061025b9190611910565b610b17565b005b61026a611067565b60405161027791906119a8565b60405180910390f35b61029a60048036038101906102959190611861565b61108c565b005b6102a46110ad565b6040516102b1919061180d565b60405180910390f35b5f7f7965db0b000000000000000000000000000000000000000000000000000000007bffffffffffffffffffffffffffffffffffffffffffffffffffffffff1916827bffffffffffffffffffffffffffffffffffffffffffffffffffffffff1916148061032c575061032b826110b3565b5b9050919050565b60975f9054906101000a900473ffffffffffffffffffffffffffffffffffffffff1681565b5f60655f8381526020019081526020015f20600101549050919050565b61037e82610358565b6103878161111c565b6103918383611130565b505050565b61039e61120b565b73ffffffffffffffffffffffffffffffffffffffff168173ffffffffffffffffffffffffffffffffffffffff161461040b576040517f08c379a000000000000000000000000000000000000000000000000000000000815260040161040290611a41565b60405180910390fd5b6104158282611212565b5050565b61042d67c2a67f2b6a9a608460c01b6112ed565b5f8060019054906101000a900460ff1615905080801561045c575060015f8054906101000a900460ff1660ff16105b80610488575061046b306112f0565b158015610487575060015f8054906101000a900460ff1660ff16145b5b6104c7576040517f08c379a00000000000000000000000000000000000000000000000000000000081526004016104be90611acf565b60405180910390fd5b60015f806101000a81548160ff021916908360ff16021790555080156105025760015f60016101000a81548160ff0219169083151502179055505b610516674cbb1fa0b369685760c01b6112ed565b61052a675cb307f840d3107260c01b6112ed565b61053e67d2817483f1f67aff60c01b6112ed565b610552678c7a60019801f18560c01b6112ed565b61055a611312565b61056e6776e00c7d7e116f7f60c01b6112ed565b61058267a94d3cabf5c264cb60c01b6112ed565b61058e5f801b33611362565b6105a267344fb1cb872a4b5060c01b6112ed565b8260975f6101000a81548173ffffffffffffffffffffffffffffffffffffffff021916908373ffffffffffffffffffffffffffffffffffffffff1602179055506105f566af62c0117a007060c01b6112ed565b7f555344432d41000000000000000000000000000000000000000000000000000060988190555061063067438921591e4bf01460c01b6112ed565b8160995f6101000a81548173ffffffffffffffffffffffffffffffffffffffff021916908373ffffffffffffffffffffffffffffffffffffffff16021790555061068467c62a7807d87c59ec60c01b6112ed565b6001609a8190555080156106e4575f8060016101000a81548160ff0219169083151502179055507f7f26b83ff96e1f2b6a682f133852f6798a09c465da95921460cefb384740249860016040516106db9190611b32565b60405180910390a15b505050565b6106fd675bfa422a74581bee60c01b6112ed565b610711672e7a51121bdf9ae560c01b6112ed565b61072567ef630aadf845408260c01b6112ed565b61073967df374a6e5bceb2dd60c01b6112ed565b6001609a54146107a65761075767f17a257d5de2cd6d60c01b6112ed565b61076b670ae2509c8c75cee760c01b6112ed565b6040517fa1875fdb00000000000000000000000000000000000000000000000000000000815260040161079d90611b95565b60405180910390fd5b6107ba6756e2844705ce106960c01b6112ed565b6107ce67bf4d349e15400eab60c01b6112ed565b6107e267c8a173d28f3833a560c01b6112ed565b6107f6672e1d769f20e00d0a60c01b6112ed565b61080a672bc1660910874c9f60c01b6112ed565b61081e674e66d4c5ae70f11c60c01b6112ed565b5f831161088857610839671d2dd0ad8836c5ce60c01b6112ed565b61084d6772e4ac6041ef7d1860c01b6112ed565b6040517f3b3e635000000000000000000000000000000000000000000000000000000000815260040161087f90611bfd565b60405180910390fd5b61089c678672de67fc8c6e7660c01b6112ed565b6108b0671efa5a5de592c6b460c01b6112ed565b6108c4671dd4800f2fc50fee60c01b6112ed565b60975f9054906101000a900473ffffffffffffffffffffffffffffffffffffffff1673ffffffffffffffffffffffffffffffffffffffff16631da9e1f18484846040518463ffffffff1660e01b815260040161092293929190611c2a565b60408051808303815f875af115801561093d573d5f803e3d5ffd5b505050506040513d601f19601f820116820180604052508101906109619190611c73565b50506109776746fcbba14da4526560c01b6112ed565b61098b6725199be8590acc0e60c01b6112ed565b60995f9054906101000a900473ffffffffffffffffffffffffffffffffffffffff1673ffffffffffffffffffffffffffffffffffffffff166323b872dd3330866040518463ffffffff1660e01b81526004016109e993929190611cb1565b6020604051808303815f875af1158015610a05573d5f803e3d5ffd5b505050506040513d601f19601f82011682018060405250810190610a299190611d10565b50610a3e67030bc43a0f6f557360c01b6112ed565b610a5267c01743bb0f5e14a360c01b6112ed565b8173ffffffffffffffffffffffffffffffffffffffff167fb3f89f90af9e2d3e47b49fb20d080bfdae6b19f473e5ec45cd74e7d56a1573c98285604051610a9a929190611d3b565b60405180910390a2505050565b5f60655f8481526020019081526020015f205f015f8373ffffffffffffffffffffffffffffffffffffffff1673ffffffffffffffffffffffffffffffffffffffff1681526020019081526020015f205f9054906101000a900460ff16905092915050565b609a5481565b5f801b81565b610b2b67f55bbc52477f573f60c01b6112ed565b610b3f672e7a51121bdf9ae560c01b6112ed565b610b5367ef630aadf845408260c01b6112ed565b610b6767df374a6e5bceb2dd60c01b6112ed565b6001609a5414610bd457610b8567f17a257d5de2cd6d60c01b6112ed565b610b99670ae2509c8c75cee760c01b6112ed565b6040517fa1875fdb000000000000000000000000000000000000000000000000000000008152600401610bcb90611b95565b60405180910390fd5b610be86756e2844705ce106960c01b6112ed565b610bfc67bf4d349e15400eab60c01b6112ed565b610c10674794713f344628a560c01b6112ed565b610c24673f7a57e4430ab5eb60c01b6112ed565b610c38672bdb75b42129d28260c01b6112ed565b610c4c67258bf1ffff36a77960c01b6112ed565b5f8311610cb657610c6767cfb37f67434b29d960c01b6112ed565b610c7b6773d339e5b7de404060c01b6112ed565b6040517f3b3e6350000000000000000000000000000000000000000000000000000000008152600401610cad90611bfd565b60405180910390fd5b610cca67ecba306f6ee22e7260c01b6112ed565b610cde6759241b0dc537fddc60c01b6112ed565b610cf166bbf10aa6cb39fd60c01b6112ed565b5f60975f9054906101000a900473ffffffffffffffffffffffffffffffffffffffff1673ffffffffffffffffffffffffffffffffffffffff166319975090836040518263ffffffff1660e01b8152600401610d4c919061196f565b602060405180830381865afa158015610d67573d5f803e3d5ffd5b505050506040513d601f19601f82011682018060405250810190610d8b9190611d76565b9050610da167a72ded8d0250cc3960c01b6112ed565b610db5679d4c5eab1786aebd60c01b6112ed565b8273ffffffffffffffffffffffffffffffffffffffff168173ffffffffffffffffffffffffffffffffffffffff1614610e4b57610dfc6794500fc5b9cd74b660c01b6112ed565b610e10675c76df47cc1f69cd60c01b6112ed565b6040517ff7251ccf000000000000000000000000000000000000000000000000000000008152600401610e4290611deb565b60405180910390fd5b610e5f671f1d8f3e8cd1e26d60c01b6112ed565b610e73677b97983cac82e43b60c01b6112ed565b610e8767e8a2efd7a54335bd60c01b6112ed565b60975f9054906101000a900473ffffffffffffffffffffffffffffffffffffffff1673ffffffffffffffffffffffffffffffffffffffff1663bb66b26c83866040518363ffffffff1660e01b8152600401610ee3929190611d3b565b6020604051808303815f875af1158015610eff573d5f803e3d5ffd5b505050506040513d601f19601f82011682018060405250810190610f239190611d10565b50610f38675315951c5a76d56c60c01b6112ed565b610f4c67324e091d6e8f584060c01b6112ed565b60995f9054906101000a900473ffffffffffffffffffffffffffffffffffffffff1673ffffffffffffffffffffffffffffffffffffffff1663a9059cbb84866040518363ffffffff1660e01b8152600401610fa8929190611e09565b6020604051808303815f875af1158015610fc4573d5f803e3d5ffd5b505050506040513d601f19601f82011682018060405250810190610fe89190611d10565b50610ffd678df12c4b618eb73760c01b6112ed565b6110116728ab961839e3c27360c01b6112ed565b8273ffffffffffffffffffffffffffffffffffffffff167f48352b4b887c06a940801234e71bd033d2ecc7e34ae6b555a7c8a3a5aa38aa268386604051611059929190611d3b565b60405180910390a250505050565b60995f9054906101000a900473ffffffffffffffffffffffffffffffffffffffff1681565b61109582610358565b61109e8161111c565b6110a88383611212565b505050565b60985481565b5f7f01ffc9a7000000000000000000000000000000000000000000000000000000007bffffffffffffffffffffffffffffffffffffffffffffffffffffffff1916827bffffffffffffffffffffffffffffffffffffffffffffffffffffffff1916149050919050565b61112d8161112861120b565b611370565b50565b61113a8282610aa7565b61120757600160655f8481526020019081526020015f205f015f8373ffffffffffffffffffffffffffffffffffffffff1673ffffffffffffffffffffffffffffffffffffffff1681526020019081526020015f205f6101000a81548160ff0219169083151502179055506111ac61120b565b73ffffffffffffffffffffffffffffffffffffffff168173ffffffffffffffffffffffffffffffffffffffff16837f2f8788117e7eff1d82e926ec794901d17c78024a50270940304540a733656f0d60405160405180910390a45b5050565b5f33905090565b61121c8282610aa7565b156112e9575f60655f8481526020019081526020015f205f015f8373ffffffffffffffffffffffffffffffffffffffff1673ffffffffffffffffffffffffffffffffffffffff1681526020019081526020015f205f6101000a81548160ff02191690831515021790555061128e61120b565b73ffffffffffffffffffffffffffffffffffffffff168173ffffffffffffffffffffffffffffffffffffffff16837ff6391f5c32d9c69d2a47ea670b442974b53935d1edc7fd64eb21e047a839171b60405160405180910390a45b5050565b50565b5f808273ffffffffffffffffffffffffffffffffffffffff163b119050919050565b5f60019054906101000a900460ff16611360576040517f08c379a000000000000000000000000000000000000000000000000000000000815260040161135790611ea0565b60405180910390fd5b565b61136c8282611130565b5050565b61137a8282610aa7565b6113f057611387816113f4565b611394835f1c6020611421565b6040516020016113a5929190611fbe565b6040516020818303038152906040526040517f08c379a00000000000000000000000000000000000000000000000000000000081526004016113e7919061203f565b60405180910390fd5b5050565b606061141a8273ffffffffffffffffffffffffffffffffffffffff16601460ff16611421565b9050919050565b60605f6002836002611433919061208c565b61143d91906120cd565b67ffffffffffffffff81111561145657611455612100565b5b6040519080825280601f01601f1916602001820160405280156114885781602001600182028036833780820191505090505b5090507f3000000000000000000000000000000000000000000000000000000000000000815f815181106114bf576114be61212d565b5b60200101907effffffffffffffffffffffffffffffffffffffffffffffffffffffffffffff191690815f1a9053507f7800000000000000000000000000000000000000000000000000000000000000816001815181106115225761152161212d565b5b60200101907effffffffffffffffffffffffffffffffffffffffffffffffffffffffffffff191690815f1a9053505f6001846002611560919061208c565b61156a91906120cd565b90505b6001811115611609577f3031323334353637383961626364656600000000000000000000000000000000600f8616601081106115ac576115ab61212d565b5b1a60f81b8282815181106115c3576115c261212d565b5b60200101907effffffffffffffffffffffffffffffffffffffffffffffffffffffffffffff191690815f1a905350600485901c9450806116029061215a565b905061156d565b505f841461164c576040517f08c379a0000000000000000000000000000000000000000000000000000000008152600401611643906121cb565b60405180910390fd5b8091505092915050565b5f80fd5b5f7fffffffff0000000000000000000000000000000000000000000000000000000082169050919050565b61168e8161165a565b8114611698575f80fd5b50565b5f813590506116a981611685565b92915050565b5f602082840312156116c4576116c3611656565b5b5f6116d18482850161169b565b91505092915050565b5f8115159050919050565b6116ee816116da565b82525050565b5f6020820190506117075f8301846116e5565b92915050565b5f73ffffffffffffffffffffffffffffffffffffffff82169050919050565b5f819050919050565b5f61174f61174a6117458461170d565b61172c565b61170d565b9050919050565b5f61176082611735565b9050919050565b5f61177182611756565b9050919050565b61178181611767565b82525050565b5f60208201905061179a5f830184611778565b92915050565b5f819050919050565b6117b2816117a0565b81146117bc575f80fd5b50565b5f813590506117cd816117a9565b92915050565b5f602082840312156117e8576117e7611656565b5b5f6117f5848285016117bf565b91505092915050565b611807816117a0565b82525050565b5f6020820190506118205f8301846117fe565b92915050565b5f6118308261170d565b9050919050565b61184081611826565b811461184a575f80fd5b50565b5f8135905061185b81611837565b92915050565b5f806040838503121561187757611876611656565b5b5f611884858286016117bf565b92505060206118958582860161184d565b9150509250929050565b5f80604083850312156118b5576118b4611656565b5b5f6118c28582860161184d565b92505060206118d38582860161184d565b9150509250929050565b5f819050919050565b6118ef816118dd565b81146118f9575f80fd5b50565b5f8135905061190a816118e6565b92915050565b5f805f6060848603121561192757611926611656565b5b5f611934868287016118fc565b93505060206119458682870161184d565b9250506040611956868287016118fc565b9150509250925092565b611969816118dd565b82525050565b5f6020820190506119825f830184611960565b92915050565b5f61199282611756565b9050919050565b6119a281611988565b82525050565b5f6020820190506119bb5f830184611999565b92915050565b5f82825260208201905092915050565b7f416363657373436f6e74726f6c3a2063616e206f6e6c792072656e6f756e63655f8201527f20726f6c657320666f722073656c660000000000000000000000000000000000602082015250565b5f611a2b602f836119c1565b9150611a36826119d1565b604082019050919050565b5f6020820190508181035f830152611a5881611a1f565b9050919050565b7f496e697469616c697a61626c653a20636f6e747261637420697320616c7265615f8201527f647920696e697469616c697a6564000000000000000000000000000000000000602082015250565b5f611ab9602e836119c1565b9150611ac482611a5f565b604082019050919050565b5f6020820190508181035f830152611ae681611aad565b9050919050565b5f819050919050565b5f60ff82169050919050565b5f611b1c611b17611b1284611aed565b61172c565b611af6565b9050919050565b611b2c81611b02565b82525050565b5f602082019050611b455f830184611b23565b92915050565b7f416461707465722f6e6f742d6c697665000000000000000000000000000000005f82015250565b5f611b7f6010836119c1565b9150611b8a82611b4b565b602082019050919050565b5f6020820190508181035f830152611bac81611b73565b9050919050565b7f416461707465722f616d6f756e742d69732d7a65726f000000000000000000005f82015250565b5f611be76016836119c1565b9150611bf282611bb3565b602082019050919050565b5f6020820190508181035f830152611c1481611bdb565b9050919050565b611c2481611826565b82525050565b5f606082019050611c3d5f830186611960565b611c4a6020830185611c1b565b611c576040830184611960565b949350505050565b5f81519050611c6d816118e6565b92915050565b5f8060408385031215611c8957611c88611656565b5b5f611c9685828601611c5f565b9250506020611ca785828601611c5f565b9150509250929050565b5f606082019050611cc45f830186611c1b565b611cd16020830185611c1b565b611cde6040830184611960565b949350505050565b611cef816116da565b8114611cf9575f80fd5b50565b5f81519050611d0a81611ce6565b92915050565b5f60208284031215611d2557611d24611656565b5b5f611d3284828501611cfc565b91505092915050565b5f604082019050611d4e5f830185611960565b611d5b6020830184611960565b9392505050565b5f81519050611d7081611837565b92915050565b5f60208284031215611d8b57611d8a611656565b5b5f611d9884828501611d62565b91505092915050565b7f416461707465722f6f776e65722d6e6f742d6d617463680000000000000000005f82015250565b5f611dd56017836119c1565b9150611de082611da1565b602082019050919050565b5f6020820190508181035f830152611e0281611dc9565b9050919050565b5f604082019050611e1c5f830185611c1b565b611e296020830184611960565b9392505050565b7f496e697469616c697a61626c653a20636f6e7472616374206973206e6f7420695f8201527f6e697469616c697a696e67000000000000000000000000000000000000000000602082015250565b5f611e8a602b836119c1565b9150611e9582611e30565b604082019050919050565b5f6020820190508181035f830152611eb781611e7e565b9050919050565b5f81905092915050565b7f416363657373436f6e74726f6c3a206163636f756e74200000000000000000005f82015250565b5f611efc601783611ebe565b9150611f0782611ec8565b601782019050919050565b5f81519050919050565b5f5b83811015611f39578082015181840152602081019050611f1e565b5f8484015250505050565b5f611f4e82611f12565b611f588185611ebe565b9350611f68818560208601611f1c565b80840191505092915050565b7f206973206d697373696e6720726f6c65200000000000000000000000000000005f82015250565b5f611fa8601183611ebe565b9150611fb382611f74565b601182019050919050565b5f611fc882611ef0565b9150611fd48285611f44565b9150611fdf82611f9c565b9150611feb8284611f44565b91508190509392505050565b5f601f19601f8301169050919050565b5f61201182611f12565b61201b81856119c1565b935061202b818560208601611f1c565b61203481611ff7565b840191505092915050565b5f6020820190508181035f8301526120578184612007565b905092915050565b7f4e487b71000000000000000000000000000000000000000000000000000000005f52601160045260245ffd5b5f612096826118dd565b91506120a1836118dd565b92508282026120af816118dd565b915082820484148315176120c6576120c561205f565b5b5092915050565b5f6120d7826118dd565b91506120e2836118dd565b92508282019050808211156120fa576120f961205f565b5b92915050565b7f4e487b71000000000000000000000000000000000000000000000000000000005f52604160045260245ffd5b7f4e487b71000000000000000000000000000000000000000000000000000000005f52603260045260245ffd5b5f612164826118dd565b91505f82036121765761217561205f565b5b600182039050919050565b7f537472696e67733a20686578206c656e67746820696e73756666696369656e745f82015250565b5f6121b56020836119c1565b91506121c082612181565b602082019050919050565b5f6020820190508181035f8301526121e2816121a9565b905091905056fea2646970667358221220a14ba6685792b746dbac16a2f89fbcf21266b8eba834da21a3830ed2e94ec7d264736f6c63430008150033",
  "linkReferences": {},
  "deployedLinkReferences": {}
}