{
  "abi": [
    {
      "inputs": [
        {
          "internalType": "contract Vault",
          "name": "_vaultContract",
          "type": "address"
        },
        {
          "internalType": "contract ERC20",
          "name": "_collateralToken",
          "type": "address"
        },
        {
          "internalType": "address",
          "name": "_owner",
          "type": "address"
        }
      ],
      "name": "checkHealthFactor",
      "outputs": [
        {
          "internalType": "uint256",
          "name": "",
          "type": "uint256"
        }
      ],
      "stateMutability": "view",
      "type": "function"
    },
    {
      "inputs": [
        {
          "internalType": "contract Vault",
          "name": "_vaultContract",
          "type": "address"
        },
        {
          "internalType": "contract ERC20",
          "name": "_collateralToken",
          "type": "address"
        }
      ],
      "name": "getCollateralInfo",
      "outputs": [
        {
          "internalType": "uint256",
          "name": "",
          "type": "uint256"
        },
        {
          "internalType": "uint256",
          "name": "",
          "type": "uint256"
        },
        {
          "internalType": "uint256",
          "name": "",
          "type": "uint256"
        },
        {
          "internalType": "uint256",
          "name": "",
          "type": "uint256"
        },
        {
          "internalType": "uint256",
          "name": "",
          "type": "uint256"
        },
        {
          "internalType": "uint256",
          "name": "",
          "type": "uint256"
        },
        {
          "internalType": "uint256",
          "name": "",
          "type": "uint256"
        }
      ],
      "stateMutability": "view",
      "type": "function"
    },
    {
      "inputs": [
        {
          "internalType": "contract Vault",
          "name": "_vaultContract",
          "type": "address"
        },
        {
          "internalType": "contract ERC20",
          "name": "_collateralToken",
          "type": "address"
        },
        {
          "internalType": "address",
          "name": "_owner",
          "type": "address"
        }
      ],
      "name": "getMaxBorrowable",
      "outputs": [
        {
          "internalType": "int256",
          "name": "",
          "type": "int256"
        }
      ],
      "stateMutability": "view",
      "type": "function"
    },
    {
      "inputs": [
        {
          "internalType": "contract Vault",
          "name": "_vaultContract",
          "type": "address"
        },
        {
          "internalType": "contract ERC20",
          "name": "_collateralToken",
          "type": "address"
        },
        {
          "internalType": "address",
          "name": "_owner",
          "type": "address"
        }
      ],
      "name": "getMaxWithdrawable",
      "outputs": [
        {
          "internalType": "int256",
          "name": "",
          "type": "int256"
        }
      ],
      "stateMutability": "view",
      "type": "function"
    },
    {
      "inputs": [
        {
          "internalType": "contract Vault",
          "name": "_vaultContract",
          "type": "address"
        },
        {
          "internalType": "contract ERC20",
          "name": "_collateralToken",
          "type": "address"
        },
        {
          "internalType": "address",
          "name": "_owner",
          "type": "address"
        }
      ],
      "name": "getVault",
      "outputs": [
        {
          "internalType": "uint256",
          "name": "",
          "type": "uint256"
        },
        {
          "internalType": "uint256",
          "name": "",
          "type": "uint256"
        },
        {
          "internalType": "uint256",
          "name": "",
          "type": "uint256"
        }
      ],
      "stateMutability": "view",
      "type": "function"
    }
  ],
  "bytecode": {
    "object": "0x608060405234801561001057600080fd5b50610c47806100206000396000f3fe608060405234801561001057600080fd5b50600436106100575760003560e01c8063347c5d431461005c5780635d242b971461008f578063a62e34f7146100d7578063a6e91adf146100f8578063c03d88711461010b575b600080fd5b61006f61006a36600461089e565b61011e565b604080519384526020840192909252908201526060015b60405180910390f35b6100a261009d3660046108e9565b61017b565b604080519788526020880196909652948601939093526060850191909152608084015260a083015260c082015260e001610086565b6100ea6100e536600461089e565b6101d3565b604051908152602001610086565b6100ea61010636600461089e565b6102d3565b6100ea61011936600461089e565b61038b565b60008060008061012f87878761044a565b9050600061013d888861051a565b9050600061014c898484610617565b50905060008184604001516101619190610938565b8451602090950151949b949a509850929650505050505050565b6000806000806000806000806101918a8a61051a565b60808101515161010082015182516020840151604085015160e086015160c090960151929d50909b509950929750909550935091505092959891949750929550565b6000806101e185858561044a565b905060006101ef868661051a565b905080610140015161021b576102076012600a610a2f565b610212906001610a3b565b925050506102cc565b6000610228878484610617565b509050600081846020015161023d9190610938565b905080600003610255576000199450505050506102cc565b60006102618585610676565b905060006102716012600a610a2f565b61027c906001610a3b565b604086015161028b9084610a3b565b6102959190610a52565b9050826102a46012600a610a2f565b6102af906001610a3b565b6102b99083610a3b565b6102c39190610a52565b96505050505050505b9392505050565b6000806102e185858561044a565b905060006102ef868661051a565b9050806101400151610306576000925050506102cc565b6000610313878484610617565b5090506000818460400151856020015161032d9190610938565b6103379190610938565b9050600061034584836106cf565b9050600084604001516012600a61035c9190610a2f565b610367906001610a3b565b6103719084610a3b565b61037b9190610a52565b86519091506102c3908290610a74565b60008061039985858561044a565b905060006103a7868661051a565b825190915015806103bb5750806101400151155b156103cb576000925050506102cc565b60006103d78383610676565b905060006103e76012600a610a2f565b6103f2906001610a3b565b60408401516104019084610a3b565b61040b9190610a52565b9050600061041a898686610617565b509050600081866040015187602001516104349190610938565b61043e9190610938565b90506102c38184610a74565b6104756040518060800160405280600081526020016000815260200160008152602001600081525090565b60405163e2c7283f60e01b81526001600160a01b038481166004830152838116602483015260009182918291829189169063e2c7283f90604401608060405180830381865afa1580156104cc573d6000803e3d6000fd5b505050506040513d601f19601f820116820180604052508101906104f09190610a9b565b60408051608081018252948552602085019390935291830152606082015298975050505050505050565b610522610808565b60008060008060008060008060008060008d6001600160a01b031663c665471f8e6040518263ffffffff1660e01b815260040161056e91906001600160a01b0391909116815260200190565b6101a060405180830381865afa15801561058c573d6000803e3d6000fd5b505050506040513d601f19601f820116820180604052508101906105b09190610ae6565b60408051610160810182529b8c5260208c019a909a52988a01979097526060890195909552608088019390935260a087019190915260c086015260e085015261010084015261012083015215156101408201529b5050505050505050505050505b92915050565b60008060006106268685610708565b905060006106366012600a610a2f565b610641906001610a3b565b602087015160608801516106559085610bd0565b61065f9190610a3b565b6106699190610a52565b9791965090945050505050565b6000806106856012600a610a2f565b610690906001610a3b565b64e8d4a510008460c001516106a98688600001516107ea565b6106b39190610a3b565b6106bd9190610a3b565b6106c79190610a52565b949350505050565b60008064e8d4a510008460c001516106e79190610a3b565b6106f36012600a610a2f565b6106fe906001610a3b565b6106b386866107ea565b6000808260800151604001514261071f9190610bd0565b60808401515161072f9190610a3b565b8360800151602001516107429190610938565b90506000806000866001600160a01b03166313f60c9a6040518163ffffffff1660e01b8152600401606060405180830381865afa158015610787573d6000803e3d6000fd5b505050506040513d601f19601f820116820180604052508101906107ab9190610be3565b9194509250905060006107be8242610bd0565b6107c89085610a3b565b6107d29084610938565b90506107de8186610938565b98975050505050505050565b6000826101200151600a6107fe9190610a2f565b6102cc9083610a3b565b6040518061016001604052806000815260200160008152602001600081526020016000815260200161085460405180606001604052806000815260200160008152602001600081525090565b815260200160008152602001600081526020016000815260200160008152602001600081526020016000151581525090565b6001600160a01b038116811461089b57600080fd5b50565b6000806000606084860312156108b357600080fd5b83356108be81610886565b925060208401356108ce81610886565b915060408401356108de81610886565b809150509250925092565b600080604083850312156108fc57600080fd5b823561090781610886565b9150602083013561091781610886565b809150509250929050565b634e487b7160e01b600052601160045260246000fd5b8082018082111561061157610611610922565b600181815b8085111561098657816000190482111561096c5761096c610922565b8085161561097957918102915b93841c9390800290610950565b509250929050565b60008261099d57506001610611565b816109aa57506000610611565b81600181146109c057600281146109ca576109e6565b6001915050610611565b60ff8411156109db576109db610922565b50506001821b610611565b5060208310610133831016604e8410600b8410161715610a09575081810a610611565b610a13838361094b565b8060001904821115610a2757610a27610922565b029392505050565b60006102cc838361098e565b808202811582820484141761061157610611610922565b600082610a6f57634e487b7160e01b600052601260045260246000fd5b500490565b8181036000831280158383131683831282161715610a9457610a94610922565b5092915050565b60008060008060808587031215610ab157600080fd5b505082516020840151604085015160609095015191969095509092509050565b80518015158114610ae157600080fd5b919050565b60008060008060008060008060008060008b8d036101a0811215610b0957600080fd5b8c519b5060208d01519a5060408d0151995060608d015198506060607f1982011215610b3457600080fd5b506040516060810181811067ffffffffffffffff82111715610b6657634e487b7160e01b600052604160045260246000fd5b806040525060808d0151815260a08d0151602082015260c08d015160408201528097505060e08c015195506101008c015194506101208c015193506101408c015192506101608c01519150610bbe6101808d01610ad1565b90509295989b509295989b9093969950565b8181038181111561061157610611610922565b600080600060608486031215610bf857600080fd5b835192506020840151915060408401519050925092509256fea264697066735822122014bd5750e5ec02808dd794b812110105f7c1c9df1baba3c4b394472c65d1000e64736f6c63430008150033",
    "linkReferences": {}
  },
  "methodIdentifiers": {
    "checkHealthFactor(address,address,address)": "a62e34f7",
    "getCollateralInfo(address,address)": "5d242b97",
    "getMaxBorrowable(address,address,address)": "c03d8871",
    "getMaxWithdrawable(address,address,address)": "a6e91adf",
    "getVault(address,address,address)": "347c5d43"
  },
  "id": 51
}