{
  "abi": [
    {
      "inputs": [
        {
          "internalType": "contract Currency",
          "name": "_currencyToken",
          "type": "address"
        },
        {
          "internalType": "uint256",
          "name": "_baseRate",
          "type": "uint256"
        }
      ],
      "stateMutability": "nonpayable",
      "type": "constructor"
    },
    {
      "inputs": [],
      "name": "AccessControlBadConfirmation",
      "type": "error"
    },
    {
      "inputs": [
        {
          "internalType": "address",
          "name": "account",
          "type": "address"
        },
        {
          "internalType": "bytes32",
          "name": "neededRole",
          "type": "bytes32"
        }
      ],
      "name": "AccessControlUnauthorizedAccount",
      "type": "error"
    },
    {
      "inputs": [
        {
          "internalType": "address",
          "name": "target",
          "type": "address"
        }
      ],
      "name": "AddressEmptyCode",
      "type": "error"
    },
    {
      "inputs": [
        {
          "internalType": "address",
          "name": "account",
          "type": "address"
        }
      ],
      "name": "AddressInsufficientBalance",
      "type": "error"
    },
    {
      "inputs": [],
      "name": "BadHealthFactor",
      "type": "error"
    },
    {
      "inputs": [],
      "name": "CollateralAlreadyExists",
      "type": "error"
    },
    {
      "inputs": [],
      "name": "CollateralDoesNotExist",
      "type": "error"
    },
    {
      "inputs": [],
      "name": "EthTransferFailed",
      "type": "error"
    },
    {
      "inputs": [],
      "name": "FailedInnerCall",
      "type": "error"
    },
    {
      "inputs": [],
      "name": "HealthFactorNotImproved",
      "type": "error"
    },
    {
      "inputs": [],
      "name": "NotEnoughCollateralToPay",
      "type": "error"
    },
    {
      "inputs": [],
      "name": "NotOwnerOrReliedUpon",
      "type": "error"
    },
    {
      "inputs": [],
      "name": "Paused",
      "type": "error"
    },
    {
      "inputs": [],
      "name": "PositionIsSafe",
      "type": "error"
    },
    {
      "inputs": [
        {
          "internalType": "address",
          "name": "token",
          "type": "address"
        }
      ],
      "name": "SafeERC20FailedOperation",
      "type": "error"
    },
    {
      "inputs": [],
      "name": "TotalUserCollateralBelowFloor",
      "type": "error"
    },
    {
      "inputs": [],
      "name": "UnrecognizedParam",
      "type": "error"
    },
    {
      "inputs": [],
      "name": "ZeroAddress",
      "type": "error"
    },
    {
      "inputs": [],
      "name": "ZeroCollateral",
      "type": "error"
    },
    {
      "anonymous": false,
      "inputs": [
        {
          "indexed": true,
          "internalType": "address",
          "name": "owner",
          "type": "address"
        },
        {
          "indexed": false,
          "internalType": "uint256",
          "name": "amount",
          "type": "uint256"
        }
      ],
      "name": "CollateralDeposited",
      "type": "event"
    },
    {
      "anonymous": false,
      "inputs": [
        {
          "indexed": false,
          "internalType": "address",
          "name": "collateralAddress",
          "type": "address"
        }
      ],
      "name": "CollateralTypeAdded",
      "type": "event"
    },
    {
      "anonymous": false,
      "inputs": [
        {
          "indexed": true,
          "internalType": "address",
          "name": "owner",
          "type": "address"
        },
        {
          "indexed": false,
          "internalType": "address",
          "name": "to",
          "type": "address"
        },
        {
          "indexed": false,
          "internalType": "uint256",
          "name": "amount",
          "type": "uint256"
        }
      ],
      "name": "CollateralWithdrawn",
      "type": "event"
    },
    {
      "anonymous": false,
      "inputs": [
        {
          "indexed": true,
          "internalType": "address",
          "name": "owner",
          "type": "address"
        },
        {
          "indexed": false,
          "internalType": "uint256",
          "name": "amount",
          "type": "uint256"
        }
      ],
      "name": "CurrencyBurned",
      "type": "event"
    },
    {
      "anonymous": false,
      "inputs": [
        {
          "indexed": true,
          "internalType": "address",
          "name": "owner",
          "type": "address"
        },
        {
          "indexed": false,
          "internalType": "uint256",
          "name": "amount",
          "type": "uint256"
        }
      ],
      "name": "CurrencyMinted",
      "type": "event"
    },
    {
      "anonymous": false,
      "inputs": [
        {
          "indexed": true,
          "internalType": "address",
          "name": "owner",
          "type": "address"
        },
        {
          "indexed": false,
          "internalType": "uint256",
          "name": "amount",
          "type": "uint256"
        }
      ],
      "name": "FeesPaid",
      "type": "event"
    },
    {
      "anonymous": false,
      "inputs": [
        {
          "indexed": true,
          "internalType": "address",
          "name": "owner",
          "type": "address"
        },
        {
          "indexed": false,
          "internalType": "address",
          "name": "liquidator",
          "type": "address"
        },
        {
          "indexed": false,
          "internalType": "uint256",
          "name": "currencyAmountPaid",
          "type": "uint256"
        },
        {
          "indexed": false,
          "internalType": "uint256",
          "name": "collateralAmountCovered",
          "type": "uint256"
        }
      ],
      "name": "Liquidated",
      "type": "event"
    },
    {
      "anonymous": false,
      "inputs": [
        {
          "indexed": true,
          "internalType": "bytes32",
          "name": "role",
          "type": "bytes32"
        },
        {
          "indexed": true,
          "internalType": "bytes32",
          "name": "previousAdminRole",
          "type": "bytes32"
        },
        {
          "indexed": true,
          "internalType": "bytes32",
          "name": "newAdminRole",
          "type": "bytes32"
        }
      ],
      "name": "RoleAdminChanged",
      "type": "event"
    },
    {
      "anonymous": false,
      "inputs": [
        {
          "indexed": true,
          "internalType": "bytes32",
          "name": "role",
          "type": "bytes32"
        },
        {
          "indexed": true,
          "internalType": "address",
          "name": "account",
          "type": "address"
        },
        {
          "indexed": true,
          "internalType": "address",
          "name": "sender",
          "type": "address"
        }
      ],
      "name": "RoleGranted",
      "type": "event"
    },
    {
      "anonymous": false,
      "inputs": [
        {
          "indexed": true,
          "internalType": "bytes32",
          "name": "role",
          "type": "bytes32"
        },
        {
          "indexed": true,
          "internalType": "address",
          "name": "account",
          "type": "address"
        },
        {
          "indexed": true,
          "internalType": "address",
          "name": "sender",
          "type": "address"
        }
      ],
      "name": "RoleRevoked",
      "type": "event"
    },
    {
      "inputs": [],
      "name": "CURRENCY_TOKEN",
      "outputs": [
        {
          "internalType": "contract Currency",
          "name": "",
          "type": "address"
        }
      ],
      "stateMutability": "view",
      "type": "function"
    },
    {
      "inputs": [],
      "name": "DEFAULT_ADMIN_ROLE",
      "outputs": [
        {
          "internalType": "bytes32",
          "name": "",
          "type": "bytes32"
        }
      ],
      "stateMutability": "view",
      "type": "function"
    },
    {
      "inputs": [],
      "name": "accruedFees",
      "outputs": [
        {
          "internalType": "uint256",
          "name": "",
          "type": "uint256"
        }
      ],
      "stateMutability": "view",
      "type": "function"
    },
    {
      "inputs": [],
      "name": "baseRateInfo",
      "outputs": [
        {
          "internalType": "uint256",
          "name": "rate",
          "type": "uint256"
        },
        {
          "internalType": "uint256",
          "name": "accumulatedRate",
          "type": "uint256"
        },
        {
          "internalType": "uint256",
          "name": "lastUpdateTime",
          "type": "uint256"
        }
      ],
      "stateMutability": "view",
      "type": "function"
    },
    {
      "inputs": [
        {
          "internalType": "contract ERC20",
          "name": "_collateralToken",
          "type": "address"
        },
        {
          "internalType": "address",
          "name": "_owner",
          "type": "address"
        },
        {
          "internalType": "uint256",
          "name": "_amount",
          "type": "uint256"
        }
      ],
      "name": "burnCurrency",
      "outputs": [],
      "stateMutability": "nonpayable",
      "type": "function"
    },
    {
      "inputs": [
        {
          "internalType": "contract ERC20",
          "name": "",
          "type": "address"
        }
      ],
      "name": "collateralMapping",
      "outputs": [
        {
          "internalType": "uint256",
          "name": "totalDepositedCollateral",
          "type": "uint256"
        },
        {
          "internalType": "uint256",
          "name": "totalBorrowedAmount",
          "type": "uint256"
        },
        {
          "internalType": "uint256",
          "name": "liquidationThreshold",
          "type": "uint256"
        },
        {
          "internalType": "uint256",
          "name": "liquidationBonus",
          "type": "uint256"
        },
        {
          "components": [
            {
              "internalType": "uint256",
              "name": "rate",
              "type": "uint256"
            },
            {
              "internalType": "uint256",
              "name": "accumulatedRate",
              "type": "uint256"
            },
            {
              "internalType": "uint256",
              "name": "lastUpdateTime",
              "type": "uint256"
            }
          ],
          "internalType": "struct IVault.RateInfo",
          "name": "rateInfo",
          "type": "tuple"
        },
        {
          "internalType": "uint256",
          "name": "paidFees",
          "type": "uint256"
        },
        {
          "internalType": "uint256",
          "name": "price",
          "type": "uint256"
        },
        {
          "internalType": "uint256",
          "name": "accruedFees",
          "type": "uint256"
        },
        {
          "internalType": "uint256",
          "name": "debtCeiling",
          "type": "uint256"
        },
        {
          "internalType": "uint256",
          "name": "collateralFloorPerPosition",
          "type": "uint256"
        },
        {
          "internalType": "uint256",
          "name": "additionalCollateralPercision",
          "type": "uint256"
        },
        {
          "internalType": "bool",
          "name": "exists",
          "type": "bool"
        }
      ],
      "stateMutability": "view",
      "type": "function"
    },
    {
      "inputs": [
        {
          "internalType": "contract ERC20",
          "name": "_collateralToken",
          "type": "address"
        },
        {
          "internalType": "uint256",
          "name": "_rate",
          "type": "uint256"
        },
        {
          "internalType": "uint256",
          "name": "_liquidationThreshold",
          "type": "uint256"
        },
        {
          "internalType": "uint256",
          "name": "_liquidationBonus",
          "type": "uint256"
        },
        {
          "internalType": "uint256",
          "name": "_debtCeiling",
          "type": "uint256"
        },
        {
          "internalType": "uint256",
          "name": "_collateralFloorPerPosition",
          "type": "uint256"
        }
      ],
      "name": "createCollateralType",
      "outputs": [],
      "stateMutability": "nonpayable",
      "type": "function"
    },
    {
      "inputs": [],
      "name": "debt",
      "outputs": [
        {
          "internalType": "uint256",
          "name": "",
          "type": "uint256"
        }
      ],
      "stateMutability": "view",
      "type": "function"
    },
    {
      "inputs": [
        {
          "internalType": "contract ERC20",
          "name": "_collateralToken",
          "type": "address"
        },
        {
          "internalType": "address",
          "name": "_owner",
          "type": "address"
        },
        {
          "internalType": "uint256",
          "name": "_amount",
          "type": "uint256"
        }
      ],
      "name": "depositCollateral",
      "outputs": [],
      "stateMutability": "nonpayable",
      "type": "function"
    },
    {
      "inputs": [
        {
          "internalType": "bytes32",
          "name": "role",
          "type": "bytes32"
        }
      ],
      "name": "getRoleAdmin",
      "outputs": [
        {
          "internalType": "bytes32",
          "name": "",
          "type": "bytes32"
        }
      ],
      "stateMutability": "view",
      "type": "function"
    },
    {
      "inputs": [
        {
          "internalType": "bytes32",
          "name": "role",
          "type": "bytes32"
        },
        {
          "internalType": "address",
          "name": "account",
          "type": "address"
        }
      ],
      "name": "grantRole",
      "outputs": [],
      "stateMutability": "nonpayable",
      "type": "function"
    },
    {
      "inputs": [
        {
          "internalType": "bytes32",
          "name": "role",
          "type": "bytes32"
        },
        {
          "internalType": "address",
          "name": "account",
          "type": "address"
        }
      ],
      "name": "hasRole",
      "outputs": [
        {
          "internalType": "bool",
          "name": "",
          "type": "bool"
        }
      ],
      "stateMutability": "view",
      "type": "function"
    },
    {
      "inputs": [
        {
          "internalType": "contract ERC20",
          "name": "_collateralToken",
          "type": "address"
        },
        {
          "internalType": "address",
          "name": "_owner",
          "type": "address"
        },
        {
          "internalType": "address",
          "name": "_to",
          "type": "address"
        },
        {
          "internalType": "uint256",
          "name": "_currencyAmountToPay",
          "type": "uint256"
        }
      ],
      "name": "liquidate",
      "outputs": [],
      "stateMutability": "nonpayable",
      "type": "function"
    },
    {
      "inputs": [
        {
          "internalType": "contract ERC20",
          "name": "_collateralToken",
          "type": "address"
        },
        {
          "internalType": "address",
          "name": "_owner",
          "type": "address"
        },
        {
          "internalType": "address",
          "name": "_to",
          "type": "address"
        },
        {
          "internalType": "uint256",
          "name": "_amount",
          "type": "uint256"
        }
      ],
      "name": "mintCurrency",
      "outputs": [],
      "stateMutability": "nonpayable",
      "type": "function"
    },
    {
      "inputs": [],
      "name": "paidFees",
      "outputs": [
        {
          "internalType": "uint256",
          "name": "",
          "type": "uint256"
        }
      ],
      "stateMutability": "view",
      "type": "function"
    },
    {
      "inputs": [],
      "name": "pause",
      "outputs": [],
      "stateMutability": "nonpayable",
      "type": "function"
    },
    {
      "inputs": [
        {
          "internalType": "address",
          "name": "_tokenAddress",
          "type": "address"
        },
        {
          "internalType": "address",
          "name": "_to",
          "type": "address"
        }
      ],
      "name": "recoverToken",
      "outputs": [],
      "stateMutability": "nonpayable",
      "type": "function"
    },
    {
      "inputs": [
        {
          "internalType": "address",
          "name": "_reliedUpon",
          "type": "address"
        }
      ],
      "name": "rely",
      "outputs": [],
      "stateMutability": "nonpayable",
      "type": "function"
    },
    {
      "inputs": [
        {
          "internalType": "address",
          "name": "",
          "type": "address"
        },
        {
          "internalType": "address",
          "name": "",
          "type": "address"
        }
      ],
      "name": "relyMapping",
      "outputs": [
        {
          "internalType": "bool",
          "name": "",
          "type": "bool"
        }
      ],
      "stateMutability": "view",
      "type": "function"
    },
    {
      "inputs": [
        {
          "internalType": "bytes32",
          "name": "role",
          "type": "bytes32"
        },
        {
          "internalType": "address",
          "name": "callerConfirmation",
          "type": "address"
        }
      ],
      "name": "renounceRole",
      "outputs": [],
      "stateMutability": "nonpayable",
      "type": "function"
    },
    {
      "inputs": [
        {
          "internalType": "bytes32",
          "name": "role",
          "type": "bytes32"
        },
        {
          "internalType": "address",
          "name": "account",
          "type": "address"
        }
      ],
      "name": "revokeRole",
      "outputs": [],
      "stateMutability": "nonpayable",
      "type": "function"
    },
    {
      "inputs": [],
      "name": "status",
      "outputs": [
        {
          "internalType": "uint256",
          "name": "",
          "type": "uint256"
        }
      ],
      "stateMutability": "view",
      "type": "function"
    },
    {
      "inputs": [
        {
          "internalType": "bytes4",
          "name": "interfaceId",
          "type": "bytes4"
        }
      ],
      "name": "supportsInterface",
      "outputs": [
        {
          "internalType": "bool",
          "name": "",
          "type": "bool"
        }
      ],
      "stateMutability": "view",
      "type": "function"
    },
    {
      "inputs": [],
      "name": "unpause",
      "outputs": [],
      "stateMutability": "nonpayable",
      "type": "function"
    },
    {
      "inputs": [
        {
          "internalType": "uint256",
          "name": "_baseRate",
          "type": "uint256"
        }
      ],
      "name": "updateBaseRate",
      "outputs": [],
      "stateMutability": "nonpayable",
      "type": "function"
    },
    {
      "inputs": [
        {
          "internalType": "contract ERC20",
          "name": "_collateralToken",
          "type": "address"
        },
        {
          "internalType": "bytes32",
          "name": "_param",
          "type": "bytes32"
        },
        {
          "internalType": "uint256",
          "name": "_data",
          "type": "uint256"
        }
      ],
      "name": "updateCollateralData",
      "outputs": [],
      "stateMutability": "nonpayable",
      "type": "function"
    },
    {
      "inputs": [
        {
          "internalType": "contract ERC20",
          "name": "_collateralToken",
          "type": "address"
        },
        {
          "internalType": "uint256",
          "name": "_rate",
          "type": "uint256"
        }
      ],
      "name": "updateCollateralRate",
      "outputs": [],
      "stateMutability": "nonpayable",
      "type": "function"
    },
    {
      "inputs": [
        {
          "internalType": "address",
          "name": "_feedContract",
          "type": "address"
        }
      ],
      "name": "updateFeedContract",
      "outputs": [],
      "stateMutability": "nonpayable",
      "type": "function"
    },
    {
      "inputs": [
        {
          "internalType": "address",
          "name": "_collateralAddress",
          "type": "address"
        },
        {
          "internalType": "uint256",
          "name": "_price",
          "type": "uint256"
        }
      ],
      "name": "updatePrice",
      "outputs": [],
      "stateMutability": "nonpayable",
      "type": "function"
    },
    {
      "inputs": [
        {
          "internalType": "address",
          "name": "_stabilityModule",
          "type": "address"
        }
      ],
      "name": "updateStabilityModule",
      "outputs": [],
      "stateMutability": "nonpayable",
      "type": "function"
    },
    {
      "inputs": [
        {
          "internalType": "contract ERC20",
          "name": "",
          "type": "address"
        },
        {
          "internalType": "address",
          "name": "",
          "type": "address"
        }
      ],
      "name": "vaultMapping",
      "outputs": [
        {
          "internalType": "uint256",
          "name": "depositedCollateral",
          "type": "uint256"
        },
        {
          "internalType": "uint256",
          "name": "borrowedAmount",
          "type": "uint256"
        },
        {
          "internalType": "uint256",
          "name": "accruedFees",
          "type": "uint256"
        },
        {
          "internalType": "uint256",
          "name": "lastTotalAccumulatedRate",
          "type": "uint256"
        }
      ],
      "stateMutability": "view",
      "type": "function"
    },
    {
      "inputs": [
        {
          "internalType": "contract ERC20",
          "name": "_collateralToken",
          "type": "address"
        },
        {
          "internalType": "address",
          "name": "_owner",
          "type": "address"
        },
        {
          "internalType": "address",
          "name": "_to",
          "type": "address"
        },
        {
          "internalType": "uint256",
          "name": "_amount",
          "type": "uint256"
        }
      ],
      "name": "withdrawCollateral",
      "outputs": [],
      "stateMutability": "nonpayable",
      "type": "function"
    },
    {
      "inputs": [
        {
          "internalType": "contract ERC20",
          "name": "_collateralToken",
          "type": "address"
        },
        {
          "internalType": "uint256",
          "name": "_amount",
          "type": "uint256"
        }
      ],
      "name": "withdrawFees",
      "outputs": [],
      "stateMutability": "nonpayable",
      "type": "function"
    }
  ],
  "bytecode": {
    "object": "0x60a06040523480156200001157600080fd5b50604051620030ff380380620030ff833981016040819052620000349162000111565b60026001556200004660003362000062565b506001600160a01b03909116608052426004556002556200014d565b6000828152602081815260408083206001600160a01b038516845290915281205460ff1662000107576000838152602081815260408083206001600160a01b03861684529091529020805460ff19166001179055620000be3390565b6001600160a01b0316826001600160a01b0316847f2f8788117e7eff1d82e926ec794901d17c78024a50270940304540a733656f0d60405160405180910390a45060016200010b565b5060005b92915050565b600080604083850312156200012557600080fd5b82516001600160a01b03811681146200013d57600080fd5b6020939093015192949293505050565b608051612f656200019a60003960008181610589015281816116fb015281816119f301528181611a8a0152818161201701528181612186015281816122af015261278f0152612f656000f3fe608060405234801561001057600080fd5b506004361061020b5760003560e01c80635881fc331161012a578063ad3b1b47116100bd578063da3b77031161008c578063e72531c811610071578063e72531c814610584578063f970c3b7146105d0578063feaea586146105e357600080fd5b8063da3b770314610511578063e2c7283f1461052457600080fd5b8063ad3b1b4714610434578063b80a0a7714610447578063c665471f14610450578063d547741f146104fe57600080fd5b80638456cb59116100f95780638456cb59146103cd57806391d14854146103d5578063a217fddf14610419578063aab3f8681461042157600080fd5b80635881fc3314610370578063645ba4251461039e57806365fae35e146103b1578063682c2058146103c457600080fd5b8063330283aa116101a2578063457972de11610171578063457972de1461032457806349a66ca3146103375780634fa739191461034a5780635820ba631461035d57600080fd5b8063330283aa146102e357806336568abe146102f65780633f4ba83a146103095780634522fa851461031157600080fd5b8063200d2ed2116101de578063200d2ed214610291578063248055e51461029a578063248a9ca3146102ad5780632f2ff15d146102d057600080fd5b806301ffc9a7146102105780630408ccd6146102385780630dca59c11461024d57806313f60c9a14610264575b600080fd5b61022361021e366004612a4c565b6105f6565b60405190151581526020015b60405180910390f35b61024b610246366004612ab0565b61068f565b005b61025660055481565b60405190815260200161022f565b60025460035460045461027692919083565b6040805193845260208401929092529082015260600161022f565b61025660015481565b61024b6102a8366004612acd565b610704565b6102566102bb366004612b02565b60009081526020819052604090206001015490565b61024b6102de366004612b1b565b6108da565b61024b6102f1366004612b02565b610905565b61024b610304366004612b1b565b61094b565b61024b6109a4565b61024b61031f366004612ab0565b6109b7565b61024b610332366004612b4b565b610a27565b61024b610345366004612b77565b610b1f565b61024b610358366004612bc8565b610d63565b61024b61036b366004612b77565b610f3f565b61022361037e366004612c09565b600a60209081526000928352604080842090915290825290205460ff1681565b61024b6103ac366004612c37565b611115565b61024b6103bf366004612ab0565b611309565b61025660065481565b61024b6113a0565b6102236103e3366004612b1b565b60009182526020828152604080842073ffffffffffffffffffffffffffffffffffffffff93909316845291905290205460ff1690565b610256600081565b61024b61042f366004612b77565b6113b2565b61024b610442366004612b4b565b611646565b61025660075481565b6104e661045e366004612ab0565b60086020818152600092835260409283902080546001820154600283015460038401548751606081018952600486015481526005860154968101969096526006850154978601979097526007840154958401546009850154600a860154600b870154600c880154600d90980154969a9599949895979596949593949293919290919060ff168c565b60405161022f9c9b9a99989796959493929190612c83565b61024b61050c366004612b1b565b61177e565b61024b61051f366004612b4b565b6117a3565b610564610532366004612c09565b600960209081526000928352604080842090915290825290208054600182015460028301546003909301549192909184565b60408051948552602085019390935291830152606082015260800161022f565b6105ab7f000000000000000000000000000000000000000000000000000000000000000081565b60405173ffffffffffffffffffffffffffffffffffffffff909116815260200161022f565b61024b6105de366004612bc8565b61181b565b61024b6105f1366004612c09565b6119ab565b60007fffffffff0000000000000000000000000000000000000000000000000000000082167f7965db0b00000000000000000000000000000000000000000000000000000000148061068957507f01ffc9a7000000000000000000000000000000000000000000000000000000007fffffffff000000000000000000000000000000000000000000000000000000008316145b92915050565b60018054036106ca576040517f9e87fac800000000000000000000000000000000000000000000000000000000815260040160405180910390fd5b60006106d581611ccc565b6106ff7fa05d8775623c9cb9a7c26c4d686f58ed0f717cdbd1543265197fc098bd63969683611cd9565b505050565b600180540361073f576040517f9e87fac800000000000000000000000000000000000000000000000000000000815260040160405180910390fd5b600061074a81611ccc565b73ffffffffffffffffffffffffffffffffffffffff84166000908152600860205260409020600d0154849060ff166107ae576040517f0d8b6eb700000000000000000000000000000000000000000000000000000000815260040160405180910390fd5b73ffffffffffffffffffffffffffffffffffffffff851660009081526008602052604090207f646562744365696c696e6700000000000000000000000000000000000000000085900361080757600a81018490556108d2565b847f636f6c6c61746572616c466c6f6f72506572506f736974696f6e0000000000000361083a57600b81018490556108d2565b847f6c69717569646174696f6e426f6e7573000000000000000000000000000000000361086d57600381018490556108d2565b847f6c69717569646174696f6e5468726573686f6c64000000000000000000000000036108a057600281018490556108d2565b6040517f9d2ff48000000000000000000000000000000000000000000000000000000000815260040160405180910390fd5b505050505050565b6000828152602081905260409020600101546108f581611ccc565b6108ff8383611cd9565b50505050565b600061091081611ccc565b6002546004546109209042612d34565b61092a9190612d47565b6003805460009061093c908490612d5e565b90915550504260045550600255565b73ffffffffffffffffffffffffffffffffffffffff8116331461099a576040517f6697b23200000000000000000000000000000000000000000000000000000000815260040160405180910390fd5b6106ff8282611dd5565b60006109af81611ccc565b506002600155565b60018054036109f2576040517f9e87fac800000000000000000000000000000000000000000000000000000000815260040160405180910390fd5b60006109fd81611ccc565b6106ff7fd30e44b6367b3271655a8fdafcfc17a83191efab29a626ed0c76e1f42d65e33283611cd9565b6001805403610a62576040517f9e87fac800000000000000000000000000000000000000000000000000000000815260040160405180910390fd5b7fd30e44b6367b3271655a8fdafcfc17a83191efab29a626ed0c76e1f42d65e332610a8c81611ccc565b73ffffffffffffffffffffffffffffffffffffffff83166000908152600860205260409020600d0154839060ff16610af0576040517f0d8b6eb700000000000000000000000000000000000000000000000000000000815260040160405180910390fd5b505073ffffffffffffffffffffffffffffffffffffffff90911660009081526008602081905260409091200155565b6001805403610b5a576040517f9e87fac800000000000000000000000000000000000000000000000000000000815260040160405180910390fd5b73ffffffffffffffffffffffffffffffffffffffff84166000908152600860205260409020600d0154849060ff16610bbe576040517f0d8b6eb700000000000000000000000000000000000000000000000000000000815260040160405180910390fd5b8373ffffffffffffffffffffffffffffffffffffffff81163314801590610c16575073ffffffffffffffffffffffffffffffffffffffff81166000908152600a6020908152604080832033845290915290205460ff16155b15610c4d576040517fed76312100000000000000000000000000000000000000000000000000000000815260040160405180910390fd5b73ffffffffffffffffffffffffffffffffffffffff8087166000818152600960209081526040808320948a16835293815283822092825260089052919091208154600b8201541115610ccb576040517f8464610300000000000000000000000000000000000000000000000000000000815260040160405180910390fd5b600182015415610ce457610cdf8282611e90565b610cf3565b610ced81611f0b565b60038301555b8673ffffffffffffffffffffffffffffffffffffffff167f2794e993350ecd3e426a1d6ba9554613ee597988342e95658e5e97a12156585286604051610d3b91815260200190565b60405180910390a2610d4f82828888611f7e565b610d598282612085565b5050505050505050565b6001805403610d9e576040517f9e87fac800000000000000000000000000000000000000000000000000000000815260040160405180910390fd5b73ffffffffffffffffffffffffffffffffffffffff83166000908152600860205260409020600d0154839060ff16610e02576040517f0d8b6eb700000000000000000000000000000000000000000000000000000000815260040160405180910390fd5b8273ffffffffffffffffffffffffffffffffffffffff81163314801590610e5a575073ffffffffffffffffffffffffffffffffffffffff81166000908152600a6020908152604080832033845290915290205460ff16155b15610e91576040517fed76312100000000000000000000000000000000000000000000000000000000815260040160405180910390fd5b73ffffffffffffffffffffffffffffffffffffffff808616600081815260096020908152604080832094891683529381528382209282526008905291909120610eda8282611e90565b8573ffffffffffffffffffffffffffffffffffffffff167fcb55e9f35638c4fdb4390d3a385ac1d72a8f72e4dcf0eb1f3c79d144b1023f8586604051610f2291815260200190565b60405180910390a2610f36828288886120e2565b50505050505050565b6001805403610f7a576040517f9e87fac800000000000000000000000000000000000000000000000000000000815260040160405180910390fd5b73ffffffffffffffffffffffffffffffffffffffff84166000908152600860205260409020600d0154849060ff16610fde576040517f0d8b6eb700000000000000000000000000000000000000000000000000000000815260040160405180910390fd5b8373ffffffffffffffffffffffffffffffffffffffff81163314801590611036575073ffffffffffffffffffffffffffffffffffffffff81166000908152600a6020908152604080832033845290915290205460ff16155b1561106d576040517fed76312100000000000000000000000000000000000000000000000000000000815260040160405180910390fd5b73ffffffffffffffffffffffffffffffffffffffff8087166000818152600960209081526040808320948a16835293815283822092825260089052919091206110b68282611e90565b6040805173ffffffffffffffffffffffffffffffffffffffff8881168252602082018890528916917f45892a46e6cef329bb642da6d69846d324db43d19008edc141ed82382eda1bee910160405180910390a2610d4f8888888861231c565b6001805403611150576040517f9e87fac800000000000000000000000000000000000000000000000000000000815260040160405180910390fd5b600061115b81611ccc565b73ffffffffffffffffffffffffffffffffffffffff87166000908152600860205260409020600d81015460ff16156111bf576040517fbf508dc400000000000000000000000000000000000000000000000000000000815260040160405180910390fd5b60048082018890554260068301556002820187905560038201869055600a8201859055600b8201849055604080517f313ce567000000000000000000000000000000000000000000000000000000008152905173ffffffffffffffffffffffffffffffffffffffff8b169263313ce567928082019260209290918290030181865afa158015611252573d6000803e3d6000fd5b505050506040513d601f19601f820116820180604052508101906112769190612d71565b6112849060ff166012612d34565b600c820155600d810180547fffffffffffffffffffffffffffffffffffffffffffffffffffffffffffffff0016600117905560405173ffffffffffffffffffffffffffffffffffffffff891681527f8abd6b05a86c62b0ddaec80e50ab0326ee89a599589d4b4126cf8f94ff3d0a879060200160405180910390a15050505050505050565b6001805403611344576040517f9e87fac800000000000000000000000000000000000000000000000000000000815260040160405180910390fd5b336000908152600a6020908152604080832073ffffffffffffffffffffffffffffffffffffffff9490941683529290522080547fffffffffffffffffffffffffffffffffffffffffffffffffffffffffffffff00166001179055565b60006113ab81611ccc565b5060018055565b60018054036113ed576040517f9e87fac800000000000000000000000000000000000000000000000000000000815260040160405180910390fd5b73ffffffffffffffffffffffffffffffffffffffff84166000908152600860205260409020600d0154849060ff16611451576040517f0d8b6eb700000000000000000000000000000000000000000000000000000000815260040160405180910390fd5b73ffffffffffffffffffffffffffffffffffffffff80861660008181526009602090815260408083209489168352938152838220928252600890529190912061149a8282611e90565b60006114a683836123ab565b90506114b46012600a612eb4565b6114bf906001612d47565b81106114f7576040517f819a066c00000000000000000000000000000000000000000000000000000000815260040160405180910390fd5b60007fffffffffffffffffffffffffffffffffffffffffffffffffffffffffffffffff860361152857508254611535565b611532838761242b565b90505b60006115436012600a612eb4565b61154e906001612d47565b600385015461155d9084612d47565b6115679190612ec0565b905060006115758284612d5e565b8654909150811115611585575084545b60408051338152602081018a905290810182905273ffffffffffffffffffffffffffffffffffffffff8b16907f1f0c6615429d1cdae0dfa233abf91d3b31cdbdd82c8081389832a61e1072f1ea9060600160405180910390a26115ea8b8b8b8461231c565b6115f68686338b6120e2565b61160086866123ab565b841115611639576040517fcff98a0100000000000000000000000000000000000000000000000000000000815260040160405180910390fd5b5050505050505050505050565b7fa05d8775623c9cb9a7c26c4d686f58ed0f717cdbd1543265197fc098bd63969661167081611ccc565b73ffffffffffffffffffffffffffffffffffffffff8316600090815260086020526040812060070180548492906116a8908490612d34565b9250508190555081600760008282546116c19190612d34565b90915550506040517fa9059cbb000000000000000000000000000000000000000000000000000000008152336004820152602481018390527f000000000000000000000000000000000000000000000000000000000000000073ffffffffffffffffffffffffffffffffffffffff169063a9059cbb906044015b6020604051808303816000875af115801561175a573d6000803e3d6000fd5b505050506040513d601f19601f820116820180604052508101906108ff9190612efb565b60008281526020819052604090206001015461179981611ccc565b6108ff8383611dd5565b60006117ae81611ccc565b73ffffffffffffffffffffffffffffffffffffffff83166000908152600860205260409020600481015460068201546117e79042612d34565b6117f19190612d47565b600582018054600090611805908490612d5e565b9091555050426006820155600401919091555050565b6001805403611856576040517f9e87fac800000000000000000000000000000000000000000000000000000000815260040160405180910390fd5b73ffffffffffffffffffffffffffffffffffffffff83166000908152600860205260409020600d0154839060ff166118ba576040517f0d8b6eb700000000000000000000000000000000000000000000000000000000815260040160405180910390fd5b8273ffffffffffffffffffffffffffffffffffffffff81163314801590611912575073ffffffffffffffffffffffffffffffffffffffff81166000908152600a6020908152604080832033845290915290205460ff16155b15611949576040517fed76312100000000000000000000000000000000000000000000000000000000815260040160405180910390fd5b8373ffffffffffffffffffffffffffffffffffffffff167fd7243f6f8212d5188fd054141cf6ea89cfc0d91facb8c3afe2f88a13584801428460405161199191815260200190565b60405180910390a26119a4858585612478565b5050505050565b60018054036119e6576040517f9e87fac800000000000000000000000000000000000000000000000000000000815260040160405180910390fd5b60006119f181611ccc565b7f000000000000000000000000000000000000000000000000000000000000000073ffffffffffffffffffffffffffffffffffffffff168373ffffffffffffffffffffffffffffffffffffffff1603611b60576007546040517f70a0823100000000000000000000000000000000000000000000000000000000815230600482015273ffffffffffffffffffffffffffffffffffffffff7f0000000000000000000000000000000000000000000000000000000000000000169163a9059cbb9185919084906370a0823190602401602060405180830381865afa158015611adc573d6000803e3d6000fd5b505050506040513d601f19601f82011682018060405250810190611b009190612f1d565b611b0a9190612d34565b6040517fffffffff0000000000000000000000000000000000000000000000000000000060e085901b16815273ffffffffffffffffffffffffffffffffffffffff9092166004830152602482015260440161173b565b73ffffffffffffffffffffffffffffffffffffffff8316611c155760008273ffffffffffffffffffffffffffffffffffffffff164760405160006040518083038185875af1925050503d8060008114611bd5576040519150601f19603f3d011682016040523d82523d6000602084013e611bda565b606091505b50509050806108ff576040517f6d963f8800000000000000000000000000000000000000000000000000000000815260040160405180910390fd5b73ffffffffffffffffffffffffffffffffffffffff8316600081815260086020526040908190205490517f70a0823100000000000000000000000000000000000000000000000000000000815230600482015285926108ff9284928792906370a0823190602401602060405180830381865afa158015611c99573d6000803e3d6000fd5b505050506040513d601f19601f82011682018060405250810190611cbd9190612f1d565b611cc79190612d34565b612508565b611cd68133612589565b50565b60008281526020818152604080832073ffffffffffffffffffffffffffffffffffffffff8516845290915281205460ff16611dcd5760008381526020818152604080832073ffffffffffffffffffffffffffffffffffffffff86168452909152902080547fffffffffffffffffffffffffffffffffffffffffffffffffffffffffffffff00166001179055611d6b3390565b73ffffffffffffffffffffffffffffffffffffffff168273ffffffffffffffffffffffffffffffffffffffff16847f2f8788117e7eff1d82e926ec794901d17c78024a50270940304540a733656f0d60405160405180910390a4506001610689565b506000610689565b60008281526020818152604080832073ffffffffffffffffffffffffffffffffffffffff8516845290915281205460ff1615611dcd5760008381526020818152604080832073ffffffffffffffffffffffffffffffffffffffff8616808552925280832080547fffffffffffffffffffffffffffffffffffffffffffffffffffffffffffffff0016905551339286917ff6391f5c32d9c69d2a47ea670b442974b53935d1edc7fd64eb21e047a839171b9190a4506001610689565b600080611e9d8484612614565b9150915080846003018190555081600003611eb85750505050565b81846002016000828254611ecc9190612d5e565b9250508190555081836009016000828254611ee79190612d5e565b925050819055508160066000828254611f009190612d5e565b909155505050505050565b60068101546000908190611f1f9042612d34565b6004840154611f2e9190612d47565b6005840154611f3d9190612d5e565b600454909150600090611f509042612d34565b600254611f5d9190612d47565b600354611f6a9190612d5e565b9050611f768183612d5e565b949350505050565b80846001016000828254611f929190612d5e565b9250508190555080836001016000828254611fad9190612d5e565b925050819055508060056000828254611fc69190612d5e565b90915550506040517f40c10f1900000000000000000000000000000000000000000000000000000000815273ffffffffffffffffffffffffffffffffffffffff8381166004830152602482018390527f000000000000000000000000000000000000000000000000000000000000000016906340c10f19906044015b6020604051808303816000875af1158015612061573d6000803e3d6000fd5b505050506040513d601f19601f820116820180604052508101906119a49190612efb565b6120916012600a612eb4565b61209c906001612d47565b6120a683836123ab565b10156120de576040517fcf3af85300000000000000000000000000000000000000000000000000000000815260040160405180910390fd5b5050565b836001015481116121f957808460010160008282546121019190612d34565b925050819055508083600101600082825461211c9190612d34565b9250508190555080600560008282546121359190612d34565b90915550506040517f9dc29fac00000000000000000000000000000000000000000000000000000000815273ffffffffffffffffffffffffffffffffffffffff8381166004830152602482018390527f00000000000000000000000000000000000000000000000000000000000000001690639dc29fac906044016020604051808303816000875af11580156121cf573d6000803e3d6000fd5b505050506040513d601f19601f820116820180604052508101906121f39190612efb565b506108ff565b60018085018054600090915590840154821115612217576000612227565b8184600101546122279190612d34565b600185015560055482111561223d57600061224b565b8160055461224b9190612d34565b60055561226385858561225e8587612d34565b612671565b6040517f9dc29fac00000000000000000000000000000000000000000000000000000000815273ffffffffffffffffffffffffffffffffffffffff8481166004830152602482018390527f00000000000000000000000000000000000000000000000000000000000000001690639dc29fac906044016020604051808303816000875af11580156122f8573d6000803e3d6000fd5b505050506040513d601f19601f820116820180604052508101906108d29190612efb565b73ffffffffffffffffffffffffffffffffffffffff808516600090815260096020908152604080832093871683529290529081208054839290612360908490612d34565b909155505073ffffffffffffffffffffffffffffffffffffffff84166000908152600860205260408120805483929061239a908490612d34565b909155506108ff9050848383612508565b600080836002015484600101546123c29190612d5e565b9050806000036123f5577fffffffffffffffffffffffffffffffffffffffffffffffffffffffffffffffff915050610689565b600061240185856127be565b905060008460020154826124159190612d47565b90506124218382612ec0565b9695505050505050565b60008064e8d4a5100084600801546124439190612d47565b61244f6012600a612eb4565b61245a906001612d47565b61246486866127fb565b61246e9190612d47565b611f769190612ec0565b73ffffffffffffffffffffffffffffffffffffffff8084166000908152600960209081526040808320938616835292905290812080548392906124bc908490612d5e565b909155505073ffffffffffffffffffffffffffffffffffffffff8316600090815260086020526040812080548392906124f6908490612d5e565b909155506106ff90508383308461281f565b60405173ffffffffffffffffffffffffffffffffffffffff8381166024830152604482018390526106ff91859182169063a9059cbb906064015b604051602081830303815290604052915060e01b6020820180517bffffffffffffffffffffffffffffffffffffffffffffffffffffffff8381831617835250505050612865565b60008281526020818152604080832073ffffffffffffffffffffffffffffffffffffffff8516845290915290205460ff166120de576040517fe2517d3f00000000000000000000000000000000000000000000000000000000815273ffffffffffffffffffffffffffffffffffffffff82166004820152602481018390526044015b60405180910390fd5b600080600061262284611f0b565b905060006126326012600a612eb4565b61263d906001612d47565b600187015460038801546126519085612d34565b61265b9190612d47565b6126659190612ec0565b96919550909350505050565b808460020160008282546126859190612d34565b92505081905550808360090160008282546126a09190612d34565b9250508190555080600660008282546126b99190612d34565b92505081905550808360070160008282546126d49190612d5e565b9250508190555080600760008282546126ed9190612d5e565b909155505060405181815273ffffffffffffffffffffffffffffffffffffffff8316907f6a41f86b2a18fe00e10a9bd078e790ae82c2627a6f940166bddc2db475194a5f9060200160405180910390a26040517f23b872dd00000000000000000000000000000000000000000000000000000000815273ffffffffffffffffffffffffffffffffffffffff8381166004830152306024830152604482018390527f000000000000000000000000000000000000000000000000000000000000000016906323b872dd90606401612042565b6000806127cd6012600a612eb4565b6127d8906001612d47565b64e8d4a5100084600801546127f18688600001546127fb565b6124649190612d47565b600082600c0154600a61280e9190612eb4565b6128189083612d47565b9392505050565b60405173ffffffffffffffffffffffffffffffffffffffff84811660248301528381166044830152606482018390526108ff9186918216906323b872dd90608401612542565b600061288773ffffffffffffffffffffffffffffffffffffffff8416836128fb565b905080516000141580156128ac5750808060200190518101906128aa9190612efb565b155b156106ff576040517f5274afe700000000000000000000000000000000000000000000000000000000815273ffffffffffffffffffffffffffffffffffffffff8416600482015260240161260b565b606061281883836000846000808573ffffffffffffffffffffffffffffffffffffffff16848660405161292e9190612f36565b60006040518083038185875af1925050503d806000811461296b576040519150601f19603f3d011682016040523d82523d6000602084013e612970565b606091505b50915091506124218683836060826129905761298b82612a0a565b612818565b81511580156129b4575073ffffffffffffffffffffffffffffffffffffffff84163b155b15612a03576040517f9996b31500000000000000000000000000000000000000000000000000000000815273ffffffffffffffffffffffffffffffffffffffff8516600482015260240161260b565b5080612818565b805115612a1a5780518082602001fd5b6040517f1425ea4200000000000000000000000000000000000000000000000000000000815260040160405180910390fd5b600060208284031215612a5e57600080fd5b81357fffffffff000000000000000000000000000000000000000000000000000000008116811461281857600080fd5b73ffffffffffffffffffffffffffffffffffffffff81168114611cd657600080fd5b600060208284031215612ac257600080fd5b813561281881612a8e565b600080600060608486031215612ae257600080fd5b8335612aed81612a8e565b95602085013595506040909401359392505050565b600060208284031215612b1457600080fd5b5035919050565b60008060408385031215612b2e57600080fd5b823591506020830135612b4081612a8e565b809150509250929050565b60008060408385031215612b5e57600080fd5b8235612b6981612a8e565b946020939093013593505050565b60008060008060808587031215612b8d57600080fd5b8435612b9881612a8e565b93506020850135612ba881612a8e565b92506040850135612bb881612a8e565b9396929550929360600135925050565b600080600060608486031215612bdd57600080fd5b8335612be881612a8e565b92506020840135612bf881612a8e565b929592945050506040919091013590565b60008060408385031215612c1c57600080fd5b8235612c2781612a8e565b91506020830135612b4081612a8e565b60008060008060008060c08789031215612c5057600080fd5b8635612c5b81612a8e565b9860208801359850604088013597606081013597506080810135965060a00135945092505050565b60006101c0820190508d82528c60208301528b60408301528a60608301528951608083015260208a015160a083015260408a015160c08301528860e08301528761010083015286610120830152856101408301528461016083015283610180830152612cf46101a083018415159052565b9d9c50505050505050505050505050565b7f4e487b7100000000000000000000000000000000000000000000000000000000600052601160045260246000fd5b8181038181111561068957610689612d05565b808202811582820484141761068957610689612d05565b8082018082111561068957610689612d05565b600060208284031215612d8357600080fd5b815160ff8116811461281857600080fd5b600181815b80851115612ded57817fffffffffffffffffffffffffffffffffffffffffffffffffffffffffffffffff04821115612dd357612dd3612d05565b80851615612de057918102915b93841c9390800290612d99565b509250929050565b600082612e0457506001610689565b81612e1157506000610689565b8160018114612e275760028114612e3157612e4d565b6001915050610689565b60ff841115612e4257612e42612d05565b50506001821b610689565b5060208310610133831016604e8410600b8410161715612e70575081810a610689565b612e7a8383612d94565b807fffffffffffffffffffffffffffffffffffffffffffffffffffffffffffffffff04821115612eac57612eac612d05565b029392505050565b60006128188383612df5565b600082612ef6577f4e487b7100000000000000000000000000000000000000000000000000000000600052601260045260246000fd5b500490565b600060208284031215612f0d57600080fd5b8151801515811461281857600080fd5b600060208284031215612f2f57600080fd5b5051919050565b6000825160005b81811015612f575760208186018101518583015201612f3d565b50600092019182525091905056",
    "linkReferences": {}
  },
  "methodIdentifiers": {
    "CURRENCY_TOKEN()": "e72531c8",
    "DEFAULT_ADMIN_ROLE()": "a217fddf",
    "accruedFees()": "682c2058",
    "baseRateInfo()": "13f60c9a",
    "burnCurrency(address,address,uint256)": "4fa73919",
    "collateralMapping(address)": "c665471f",
    "createCollateralType(address,uint256,uint256,uint256,uint256,uint256)": "645ba425",
    "debt()": "0dca59c1",
    "depositCollateral(address,address,uint256)": "f970c3b7",
    "getRoleAdmin(bytes32)": "248a9ca3",
    "grantRole(bytes32,address)": "2f2ff15d",
    "hasRole(bytes32,address)": "91d14854",
    "liquidate(address,address,address,uint256)": "aab3f868",
    "mintCurrency(address,address,address,uint256)": "49a66ca3",
    "paidFees()": "b80a0a77",
    "pause()": "8456cb59",
    "recoverToken(address,address)": "feaea586",
    "rely(address)": "65fae35e",
    "relyMapping(address,address)": "5881fc33",
    "renounceRole(bytes32,address)": "36568abe",
    "revokeRole(bytes32,address)": "d547741f",
    "status()": "200d2ed2",
    "supportsInterface(bytes4)": "01ffc9a7",
    "unpause()": "3f4ba83a",
    "updateBaseRate(uint256)": "330283aa",
    "updateCollateralData(address,bytes32,uint256)": "248055e5",
    "updateCollateralRate(address,uint256)": "da3b7703",
    "updateFeedContract(address)": "4522fa85",
    "updatePrice(address,uint256)": "457972de",
    "updateStabilityModule(address)": "0408ccd6",
    "vaultMapping(address,address)": "e2c7283f",
    "withdrawCollateral(address,address,address,uint256)": "5820ba63",
    "withdrawFees(address,uint256)": "ad3b1b47"
  },
  "id": 50
}