{
  "abi": [
    {
      "inputs": [
        {
          "internalType": "contract Currency",
          "name": "_currencyToken",
          "type": "address"
        },
        {
          "internalType": "address",
          "name": "_bufferContract",
          "type": "address"
        }
      ],
      "stateMutability": "nonpayable",
      "type": "constructor"
    },
    {
      "inputs": [],
      "name": "AccessControlBadConfirmation",
      "type": "error"
    },
    {
      "inputs": [
        {
          "internalType": "address",
          "name": "account",
          "type": "address"
        },
        {
          "internalType": "bytes32",
          "name": "neededRole",
          "type": "bytes32"
        }
      ],
      "name": "AccessControlUnauthorizedAccount",
      "type": "error"
    },
    {
      "inputs": [
        {
          "internalType": "address",
          "name": "target",
          "type": "address"
        }
      ],
      "name": "AddressEmptyCode",
      "type": "error"
    },
    {
      "inputs": [
        {
          "internalType": "address",
          "name": "account",
          "type": "address"
        }
      ],
      "name": "AddressInsufficientBalance",
      "type": "error"
    },
    {
      "inputs": [],
      "name": "BadHealthFactor",
      "type": "error"
    },
    {
      "inputs": [],
      "name": "CollateralAlreadyExists",
      "type": "error"
    },
    {
      "inputs": [],
      "name": "CollateralDoesNotExist",
      "type": "error"
    },
    {
      "inputs": [],
      "name": "FailedInnerCall",
      "type": "error"
    },
    {
      "inputs": [],
      "name": "Paused",
      "type": "error"
    },
    {
      "inputs": [],
      "name": "PositionIsSafe",
      "type": "error"
    },
    {
      "inputs": [
        {
          "internalType": "address",
          "name": "token",
          "type": "address"
        }
      ],
      "name": "SafeERC20FailedOperation",
      "type": "error"
    },
    {
      "inputs": [],
      "name": "ShouldBeMoreThanZero",
      "type": "error"
    },
    {
      "inputs": [],
      "name": "TotalUserCollateralBelowFloor",
      "type": "error"
    },
    {
      "inputs": [],
      "name": "UnrecognizedParam",
      "type": "error"
    },
    {
      "inputs": [],
      "name": "ZeroAddress",
      "type": "error"
    },
    {
      "inputs": [],
      "name": "ZeroCollateral",
      "type": "error"
    },
    {
      "anonymous": false,
      "inputs": [
        {
          "indexed": false,
          "internalType": "address",
          "name": "collateralAddress",
          "type": "address"
        }
      ],
      "name": "CollateralAdded",
      "type": "event"
    },
    {
      "anonymous": false,
      "inputs": [
        {
          "indexed": true,
          "internalType": "address",
          "name": "owner",
          "type": "address"
        },
        {
          "indexed": false,
          "internalType": "uint256",
          "name": "amount",
          "type": "uint256"
        }
      ],
      "name": "CollateralWithdrawn",
      "type": "event"
    },
    {
      "anonymous": false,
      "inputs": [
        {
          "indexed": true,
          "internalType": "bytes32",
          "name": "role",
          "type": "bytes32"
        },
        {
          "indexed": true,
          "internalType": "bytes32",
          "name": "previousAdminRole",
          "type": "bytes32"
        },
        {
          "indexed": true,
          "internalType": "bytes32",
          "name": "newAdminRole",
          "type": "bytes32"
        }
      ],
      "name": "RoleAdminChanged",
      "type": "event"
    },
    {
      "anonymous": false,
      "inputs": [
        {
          "indexed": true,
          "internalType": "bytes32",
          "name": "role",
          "type": "bytes32"
        },
        {
          "indexed": true,
          "internalType": "address",
          "name": "account",
          "type": "address"
        },
        {
          "indexed": true,
          "internalType": "address",
          "name": "sender",
          "type": "address"
        }
      ],
      "name": "RoleGranted",
      "type": "event"
    },
    {
      "anonymous": false,
      "inputs": [
        {
          "indexed": true,
          "internalType": "bytes32",
          "name": "role",
          "type": "bytes32"
        },
        {
          "indexed": true,
          "internalType": "address",
          "name": "account",
          "type": "address"
        },
        {
          "indexed": true,
          "internalType": "address",
          "name": "sender",
          "type": "address"
        }
      ],
      "name": "RoleRevoked",
      "type": "event"
    },
    {
      "anonymous": false,
      "inputs": [
        {
          "indexed": true,
          "internalType": "address",
          "name": "owner",
          "type": "address"
        },
        {
          "indexed": false,
          "internalType": "uint256",
          "name": "amount",
          "type": "uint256"
        }
      ],
      "name": "StableTokenWithdrawn",
      "type": "event"
    },
    {
      "anonymous": false,
      "inputs": [
        {
          "indexed": true,
          "internalType": "address",
          "name": "owner",
          "type": "address"
        },
        {
          "indexed": false,
          "internalType": "uint256",
          "name": "unlockedCollateral",
          "type": "uint256"
        }
      ],
      "name": "VaultCollateralized",
      "type": "event"
    },
    {
      "inputs": [],
      "name": "CURRENCY_TOKEN",
      "outputs": [
        {
          "internalType": "contract Currency",
          "name": "",
          "type": "address"
        }
      ],
      "stateMutability": "view",
      "type": "function"
    },
    {
      "inputs": [],
      "name": "DEFAULT_ADMIN_ROLE",
      "outputs": [
        {
          "internalType": "bytes32",
          "name": "",
          "type": "bytes32"
        }
      ],
      "stateMutability": "view",
      "type": "function"
    },
    {
      "inputs": [],
      "name": "bufferContract",
      "outputs": [
        {
          "internalType": "address",
          "name": "",
          "type": "address"
        }
      ],
      "stateMutability": "view",
      "type": "function"
    },
    {
      "inputs": [
        {
          "internalType": "contract ERC20",
          "name": "_collateralToken",
          "type": "address"
        },
        {
          "internalType": "uint256",
          "name": "_amount",
          "type": "uint256"
        }
      ],
      "name": "burnCurrency",
      "outputs": [],
      "stateMutability": "nonpayable",
      "type": "function"
    },
    {
      "inputs": [
        {
          "internalType": "contract ERC20",
          "name": "_collateralToken",
          "type": "address"
        },
        {
          "internalType": "address",
          "name": "_owner",
          "type": "address"
        }
      ],
      "name": "checkHealthFactor",
      "outputs": [
        {
          "internalType": "uint256",
          "name": "",
          "type": "uint256"
        }
      ],
      "stateMutability": "view",
      "type": "function"
    },
    {
      "inputs": [
        {
          "internalType": "contract ERC20",
          "name": "",
          "type": "address"
        }
      ],
      "name": "collateralMapping",
      "outputs": [
        {
          "internalType": "uint256",
          "name": "totalDepositedCollateral",
          "type": "uint256"
        },
        {
          "internalType": "uint256",
          "name": "totalBorrowedAmount",
          "type": "uint256"
        },
        {
          "internalType": "uint256",
          "name": "liquidationThreshold",
          "type": "uint256"
        },
        {
          "internalType": "uint256",
          "name": "liquidationBonus",
          "type": "uint256"
        },
        {
          "internalType": "uint256",
          "name": "rate",
          "type": "uint256"
        },
        {
          "internalType": "uint256",
          "name": "price",
          "type": "uint256"
        },
        {
          "internalType": "uint256",
          "name": "totalAccruedFees",
          "type": "uint256"
        },
        {
          "internalType": "uint256",
          "name": "debtCeiling",
          "type": "uint256"
        },
        {
          "internalType": "uint256",
          "name": "collateralFloorPerPosition",
          "type": "uint256"
        },
        {
          "internalType": "uint256",
          "name": "additionalCollateralPercision",
          "type": "uint256"
        },
        {
          "internalType": "bool",
          "name": "exists",
          "type": "bool"
        }
      ],
      "stateMutability": "view",
      "type": "function"
    },
    {
      "inputs": [
        {
          "internalType": "contract ERC20",
          "name": "_collateralToken",
          "type": "address"
        },
        {
          "internalType": "uint256",
          "name": "_rate",
          "type": "uint256"
        },
        {
          "internalType": "uint256",
          "name": "_liquidationThreshold",
          "type": "uint256"
        },
        {
          "internalType": "uint256",
          "name": "_liquidationBonus",
          "type": "uint256"
        },
        {
          "internalType": "uint256",
          "name": "_debtCeiling",
          "type": "uint256"
        },
        {
          "internalType": "uint256",
          "name": "_collateralFloorPerPosition",
          "type": "uint256"
        }
      ],
      "name": "createCollateralType",
      "outputs": [],
      "stateMutability": "nonpayable",
      "type": "function"
    },
    {
      "inputs": [],
      "name": "debt",
      "outputs": [
        {
          "internalType": "uint256",
          "name": "",
          "type": "uint256"
        }
      ],
      "stateMutability": "view",
      "type": "function"
    },
    {
      "inputs": [
        {
          "internalType": "contract ERC20",
          "name": "_collateralToken",
          "type": "address"
        },
        {
          "internalType": "uint256",
          "name": "_amount",
          "type": "uint256"
        }
      ],
      "name": "depositCollateral",
      "outputs": [],
      "stateMutability": "nonpayable",
      "type": "function"
    },
    {
      "inputs": [],
      "name": "fees",
      "outputs": [
        {
          "internalType": "uint256",
          "name": "",
          "type": "uint256"
        }
      ],
      "stateMutability": "view",
      "type": "function"
    },
    {
      "inputs": [
        {
          "internalType": "contract ERC20",
          "name": "_collateralToken",
          "type": "address"
        },
        {
          "internalType": "address",
          "name": "_owner",
          "type": "address"
        }
      ],
      "name": "getMaxBorrowable",
      "outputs": [
        {
          "internalType": "int256",
          "name": "",
          "type": "int256"
        }
      ],
      "stateMutability": "view",
      "type": "function"
    },
    {
      "inputs": [
        {
          "internalType": "contract ERC20",
          "name": "_collateralToken",
          "type": "address"
        },
        {
          "internalType": "address",
          "name": "_owner",
          "type": "address"
        }
      ],
      "name": "getMaxWithdrawable",
      "outputs": [
        {
          "internalType": "int256",
          "name": "",
          "type": "int256"
        }
      ],
      "stateMutability": "view",
      "type": "function"
    },
    {
      "inputs": [
        {
          "internalType": "bytes32",
          "name": "role",
          "type": "bytes32"
        }
      ],
      "name": "getRoleAdmin",
      "outputs": [
        {
          "internalType": "bytes32",
          "name": "",
          "type": "bytes32"
        }
      ],
      "stateMutability": "view",
      "type": "function"
    },
    {
      "inputs": [
        {
          "internalType": "contract ERC20",
          "name": "_collateralToken",
          "type": "address"
        },
        {
          "internalType": "address",
          "name": "_owner",
          "type": "address"
        }
      ],
      "name": "getVaultInfo",
      "outputs": [
        {
          "internalType": "uint256",
          "name": "",
          "type": "uint256"
        },
        {
          "internalType": "uint256",
          "name": "",
          "type": "uint256"
        },
        {
          "internalType": "uint256",
          "name": "",
          "type": "uint256"
        }
      ],
      "stateMutability": "view",
      "type": "function"
    },
    {
      "inputs": [
        {
          "internalType": "bytes32",
          "name": "role",
          "type": "bytes32"
        },
        {
          "internalType": "address",
          "name": "account",
          "type": "address"
        }
      ],
      "name": "grantRole",
      "outputs": [],
      "stateMutability": "nonpayable",
      "type": "function"
    },
    {
      "inputs": [
        {
          "internalType": "bytes32",
          "name": "role",
          "type": "bytes32"
        },
        {
          "internalType": "address",
          "name": "account",
          "type": "address"
        }
      ],
      "name": "hasRole",
      "outputs": [
        {
          "internalType": "bool",
          "name": "",
          "type": "bool"
        }
      ],
      "stateMutability": "view",
      "type": "function"
    },
    {
      "inputs": [
        {
          "internalType": "contract ERC20",
          "name": "_collateralToken",
          "type": "address"
        },
        {
          "internalType": "address",
          "name": "_owner",
          "type": "address"
        },
        {
          "internalType": "address",
          "name": "_to",
          "type": "address"
        },
        {
          "internalType": "uint256",
          "name": "_currencyAmountToPay",
          "type": "uint256"
        }
      ],
      "name": "liquidate",
      "outputs": [],
      "stateMutability": "nonpayable",
      "type": "function"
    },
    {
      "inputs": [
        {
          "internalType": "contract ERC20",
          "name": "_collateralToken",
          "type": "address"
        },
        {
          "internalType": "address",
          "name": "_to",
          "type": "address"
        },
        {
          "internalType": "uint256",
          "name": "_amount",
          "type": "uint256"
        }
      ],
      "name": "mintCurrency",
      "outputs": [],
      "stateMutability": "nonpayable",
      "type": "function"
    },
    {
      "inputs": [],
      "name": "pause",
      "outputs": [],
      "stateMutability": "nonpayable",
      "type": "function"
    },
    {
      "inputs": [
        {
          "internalType": "bytes32",
          "name": "role",
          "type": "bytes32"
        },
        {
          "internalType": "address",
          "name": "callerConfirmation",
          "type": "address"
        }
      ],
      "name": "renounceRole",
      "outputs": [],
      "stateMutability": "nonpayable",
      "type": "function"
    },
    {
      "inputs": [
        {
          "internalType": "bytes32",
          "name": "role",
          "type": "bytes32"
        },
        {
          "internalType": "address",
          "name": "account",
          "type": "address"
        }
      ],
      "name": "revokeRole",
      "outputs": [],
      "stateMutability": "nonpayable",
      "type": "function"
    },
    {
      "inputs": [],
      "name": "status",
      "outputs": [
        {
          "internalType": "uint256",
          "name": "",
          "type": "uint256"
        }
      ],
      "stateMutability": "view",
      "type": "function"
    },
    {
      "inputs": [
        {
          "internalType": "bytes4",
          "name": "interfaceId",
          "type": "bytes4"
        }
      ],
      "name": "supportsInterface",
      "outputs": [
        {
          "internalType": "bool",
          "name": "",
          "type": "bool"
        }
      ],
      "stateMutability": "view",
      "type": "function"
    },
    {
      "inputs": [],
      "name": "unpause",
      "outputs": [],
      "stateMutability": "nonpayable",
      "type": "function"
    },
    {
      "inputs": [
        {
          "internalType": "contract ERC20",
          "name": "_collateralToken",
          "type": "address"
        },
        {
          "internalType": "bytes32",
          "name": "_param",
          "type": "bytes32"
        },
        {
          "internalType": "uint256",
          "name": "_data",
          "type": "uint256"
        }
      ],
      "name": "updateCollateralData",
      "outputs": [],
      "stateMutability": "nonpayable",
      "type": "function"
    },
    {
      "inputs": [
        {
          "internalType": "address",
          "name": "_feedContract",
          "type": "address"
        }
      ],
      "name": "updateFeedContract",
      "outputs": [],
      "stateMutability": "nonpayable",
      "type": "function"
    },
    {
      "inputs": [
        {
          "internalType": "address",
          "name": "_collateralAddress",
          "type": "address"
        },
        {
          "internalType": "uint256",
          "name": "_price",
          "type": "uint256"
        }
      ],
      "name": "updatePrice",
      "outputs": [],
      "stateMutability": "nonpayable",
      "type": "function"
    },
    {
      "inputs": [
        {
          "internalType": "contract ERC20",
          "name": "",
          "type": "address"
        },
        {
          "internalType": "address",
          "name": "",
          "type": "address"
        }
      ],
      "name": "vaultMapping",
      "outputs": [
        {
          "internalType": "uint256",
          "name": "depositedCollateral",
          "type": "uint256"
        },
        {
          "internalType": "uint256",
          "name": "borrowedAmount",
          "type": "uint256"
        },
        {
          "internalType": "uint256",
          "name": "accruedFees",
          "type": "uint256"
        },
        {
          "internalType": "uint256",
          "name": "lastUpdateTime",
          "type": "uint256"
        }
      ],
      "stateMutability": "view",
      "type": "function"
    },
    {
      "inputs": [
        {
          "internalType": "contract ERC20",
          "name": "_collateralToken",
          "type": "address"
        },
        {
          "internalType": "address",
          "name": "_to",
          "type": "address"
        },
        {
          "internalType": "uint256",
          "name": "_amount",
          "type": "uint256"
        }
      ],
      "name": "withdrawCollateral",
      "outputs": [],
      "stateMutability": "nonpayable",
      "type": "function"
    }
  ],
  "bytecode": {
    "object": "0x60a06040523480156200001157600080fd5b506040516200223638038062002236833981016040819052620000349162000138565b6200004160003362000070565b5060026004556001600160a01b03918216608052600180546001600160a01b0319169190921617905562000177565b6000828152602081815260408083206001600160a01b038516845290915281205460ff1662000115576000838152602081815260408083206001600160a01b03861684529091529020805460ff19166001179055620000cc3390565b6001600160a01b0316826001600160a01b0316847f2f8788117e7eff1d82e926ec794901d17c78024a50270940304540a733656f0d60405160405180910390a450600162000119565b5060005b92915050565b6001600160a01b03811681146200013557600080fd5b50565b600080604083850312156200014c57600080fd5b825162000159816200011f565b60208401519092506200016c816200011f565b809150509250929050565b608051612087620001af600039600081816104d20152818161155e0152818161164c015281816118d40152611a7a01526120876000f3fe608060405234801561001057600080fd5b50600436106101cf5760003560e01c8063645ba42511610104578063a5d5db0c116100a2578063e2c7283f11610071578063e2c7283f1461046d578063e72531c8146104cd578063f02645b81461050c578063fd31f0111461051f57600080fd5b8063a5d5db0c14610374578063aab3f86814610387578063c665471f1461039a578063d547741f1461045a57600080fd5b806391d14854116100de57806391d14854146103225780639436030e146103355780639af1d35a14610363578063a217fddf1461036c57600080fd5b8063645ba425146102f4578063708df104146103075780638456cb591461031a57600080fd5b806336568abe116101715780634522fa851161014b5780634522fa85146102a8578063457972de146102bb5780634852a717146102ce57806349c65108146102e157600080fd5b806336568abe1461027a5780633f4ba83a1461028d578063435863771461029557600080fd5b8063248055e5116101ad578063248055e51461021c578063248a9ca3146102315780632ae8bdfe146102545780632f2ff15d1461026757600080fd5b806301ffc9a7146101d45780630dca59c1146101fc578063200d2ed214610213575b600080fd5b6101e76101e2366004611c3f565b610532565b60405190151581526020015b60405180910390f35b61020560025481565b6040519081526020016101f3565b61020560045481565b61022f61022a366004611c7e565b610569565b005b61020561023f366004611cb3565b60009081526020819052604090206001015490565b61022f610262366004611ccc565b6106cd565b61022f610275366004611d0d565b6107cf565b61022f610288366004611d0d565b6107fa565b61022f610832565b6102056102a3366004611d3d565b610845565b61022f6102b6366004611d6b565b61090f565b61022f6102c9366004611d88565b610967565b61022f6102dc366004611d88565b610a37565b6102056102ef366004611d3d565b610b4f565b61022f610302366004611db4565b610bff565b610205610315366004611d3d565b610d5e565b61022f610da0565b6101e7610330366004611d0d565b610db3565b610348610343366004611d3d565b610ddc565b604080519384526020840192909252908201526060016101f3565b61020560035481565b610205600081565b61022f610382366004611d88565b610e44565b61022f610395366004611e00565b610f10565b6104056103a8366004611d6b565b600560208190526000918252604090912080546001820154600283015460038401546004850154958501546006860154600787015460088801546009890154600a9099015497999698959794969593949293919290919060ff168b565b604080519b8c5260208c019a909a52988a01979097526060890195909552608088019390935260a087019190915260c086015260e08501526101008401526101208301521515610140820152610160016101f3565b61022f610468366004611d0d565b611066565b6104ad61047b366004611d3d565b600660209081526000928352604080842090915290825290208054600182015460028301546003909301549192909184565b6040805194855260208501939093529183015260608201526080016101f3565b6104f47f000000000000000000000000000000000000000000000000000000000000000081565b6040516001600160a01b0390911681526020016101f3565b61022f61051a366004611ccc565b61108b565b6001546104f4906001600160a01b031681565b60006001600160e01b03198216637965db0b60e01b148061056357506301ffc9a760e01b6001600160e01b03198316145b92915050565b60016004540361058c576040516313d0ff5960e31b815260040160405180910390fd5b6000610597816111ea565b6001600160a01b0384166000908152600560205260409020600a0154849060ff166105d557604051630d8b6eb760e01b815260040160405180910390fd5b6001600160a01b03851660009081526005602052604090206a646562744365696c696e6760a81b85900361060f57600781018490556106c5565b847f636f6c6c61746572616c466c6f6f72506572506f736974696f6e0000000000000361064257600881018490556106c5565b84637261746560e01b0361065c57600481018490556106c5565b846f6c69717569646174696f6e426f6e757360801b0361068257600381018490556106c5565b84731b1a5c5d5a59185d1a5bdb951a1c995cda1bdb1960621b036106ac57600281018490556106c5565b60405163013a5fe960e71b815260040160405180910390fd5b505050505050565b6001600454036106f0576040516313d0ff5960e31b815260040160405180910390fd5b6001600160a01b0383166000908152600560205260409020600a0154839060ff1661072e57604051630d8b6eb760e01b815260040160405180910390fd5b8180600003610750576040516304f5ea2160e11b815260040160405180910390fd5b604051838152339081907fc30fcfbcaac9e0deffa719714eaa82396ff506a0d0d0eebe170830177288715d9060200160405180910390a2610793868287876111f7565b6001600160a01b038087166000818152600660209081526040808320948616835293815283822092825260059052919091206106c5919061126c565b6000828152602081905260409020600101546107ea816111ea565b6107f483836112b0565b50505050565b6001600160a01b03811633146108235760405163334bd91960e11b815260040160405180910390fd5b61082d8282611342565b505050565b600061083d816111ea565b506002600455565b6001600160a01b0380831660008181526006602090815260408083209486168352938152838220928252600590529182208154830361088957600092505050610563565b600061089583836113ad565b905060006108a56012600a611f4b565b6108b0906001611f57565b60028401546108bf9084611f57565b6108c99190611f6e565b90506000846002015485600101546108e19190611f90565b90506108ed8585611406565b6108f79082611f90565b90506109038183611fa3565b98975050505050505050565b600160045403610932576040516313d0ff5960e31b815260040160405180910390fd5b600061093d816111ea565b61082d7fd30e44b6367b3271655a8fdafcfc17a83191efab29a626ed0c76e1f42d65e332836112b0565b60016004540361098a576040516313d0ff5960e31b815260040160405180910390fd5b7fd30e44b6367b3271655a8fdafcfc17a83191efab29a626ed0c76e1f42d65e3326109b4816111ea565b6001600160a01b0383166000908152600560205260409020600a0154839060ff166109f257604051630d8b6eb760e01b815260040160405180910390fd5b8280600003610a14576040516304f5ea2160e11b815260040160405180910390fd5b5050506001600160a01b0390911660009081526005602081905260409091200155565b600160045403610a5a576040516313d0ff5960e31b815260040160405180910390fd5b6001600160a01b0382166000908152600560205260409020600a0154829060ff16610a9857604051630d8b6eb760e01b815260040160405180910390fd5b8180600003610aba576040516304f5ea2160e11b815260040160405180910390fd5b6001600160a01b0384166000818152600660209081526040808320338085529083528184209484526005909252909120909190610af7828261146c565b826001600160a01b03167ff3cabfaab4b1f05d0a17662ad328a3c3fc4a8a1dcee5946e5d5726fa5125700e87604051610b3291815260200190565b60405180910390a2610b46828285896114e0565b50505050505050565b6001600160a01b038083166000818152600660209081526040808320948616835293815283822092825260059052918220600282015460018301548491610b9591611f90565b9050610ba18383611406565b610bab9082611f90565b90506000610bb983836116cf565b9050600083600201546012600a610bd09190611f4b565b610bdb906001611f57565b610be59084611f57565b610bef9190611f6e565b8554909150610903908290611fa3565b600160045403610c22576040516313d0ff5960e31b815260040160405180910390fd5b6000610c2d816111ea565b6001600160a01b0387166000908152600560205260409020600a81015460ff1615610c6b57604051632fd4237160e21b815260040160405180910390fd5b6004808201889055600282018790556003820186905560078201859055600882018490556040805163313ce56760e01b815290516001600160a01b038b169263313ce567928082019260209290918290030181865afa158015610cd2573d6000803e3d6000fd5b505050506040513d601f19601f82011682018060405250810190610cf69190611fca565b610d049060ff166012611fed565b6009820155600a8101805460ff191660011790556040516001600160a01b03891681527f7db05e63d635a68c62fd7fd8f3107ae8ab584a383e102d1bd8a40f4c977e465f9060200160405180910390a15050505050505050565b6001600160a01b038083166000818152600660209081526040808320948616835293815283822092825260059052918220610d999190611708565b9392505050565b6000610dab816111ea565b506001600455565b6000918252602082815260408084206001600160a01b0393909316845291905290205460ff1690565b6001600160a01b0380831660008181526006602090815260408083209486168352938152838220928252600590529182206002820154839283929091610e228383611406565b610e2c9082611f90565b83546001909401549399939850965091945050505050565b600160045403610e67576040516313d0ff5960e31b815260040160405180910390fd5b6001600160a01b0382166000908152600560205260409020600a0154829060ff16610ea557604051630d8b6eb760e01b815260040160405180910390fd5b8180600003610ec7576040516304f5ea2160e11b815260040160405180910390fd5b604051838152339081907f8068d3c02236d1d733f9f2a0357e2d00025cc50fc4152d6d1e22846fd11c84f39060200160405180910390a2610f098582866117ac565b5050505050565b600160045403610f33576040516313d0ff5960e31b815260040160405180910390fd5b6001600160a01b0384166000908152600560205260409020600a0154849060ff16610f7157604051630d8b6eb760e01b815260040160405180910390fd5b8180600003610f93576040516304f5ea2160e11b815260040160405180910390fd5b6001600160a01b038087166000818152600660209081526040808320948a1683529381528382209282526005905291909120610fcf828261146c565b610fd98282611822565b6000610fe582876116cf565b90506000610ff56012600a611f4b565b611000906001611f57565b600384015461100f9084611f57565b6110199190611f6e565b905060006110278284611f90565b8554909150811115611037575083545b6110438b8b8b846111f7565b61104f8585338b6114e0565b611059858561126c565b5050505050505050505050565b600082815260208190526040902060010154611081816111ea565b6107f48383611342565b6001600454036110ae576040516313d0ff5960e31b815260040160405180910390fd5b6001600160a01b0383166000908152600560205260409020600a0154839060ff166110ec57604051630d8b6eb760e01b815260040160405180910390fd5b818060000361110e576040516304f5ea2160e11b815260040160405180910390fd5b6001600160a01b038516600081815260066020908152604080832033808552908352818420948452600590925290912082546008820154929392111561116757604051638464610360e01b815260040160405180910390fd5b6003820154156111805761117b828261146c565b611187565b4260038301555b826001600160a01b03167ff3cabfaab4b1f05d0a17662ad328a3c3fc4a8a1dcee5946e5d5726fa5125700e876040516111c291815260200190565b60405180910390a26111d682828989611861565b6111e0828261126c565b5050505050505050565b6111f48133611942565b50565b6001600160a01b0380851660009081526006602090815260408083209387168352929052908120805483929061122e908490611fed565b90915550506001600160a01b0384166000908152600560205260408120805483929061125b908490611fed565b909155506107f49050848383611980565b6112786012600a611f4b565b611283906001611f57565b61128d8383611708565b10156112ac5760405163cf3af85360e01b815260040160405180910390fd5b5050565b60006112bc8383610db3565b61133a576000838152602081815260408083206001600160a01b03861684529091529020805460ff191660011790556112f23390565b6001600160a01b0316826001600160a01b0316847f2f8788117e7eff1d82e926ec794901d17c78024a50270940304540a733656f0d60405160405180910390a4506001610563565b506000610563565b600061134e8383610db3565b1561133a576000838152602081815260408083206001600160a01b0386168085529252808320805460ff1916905551339286917ff6391f5c32d9c69d2a47ea670b442974b53935d1edc7fd64eb21e047a839171b9190a4506001610563565b6000806113bc6012600a611f4b565b6113c7906001611f57565b64e8d4a5100084600501546113e08688600001546119df565b6113ea9190611f57565b6113f49190611f57565b6113fe9190611f6e565b949350505050565b6000816004015460000361141c57506000610563565b600061142a6012600a611f4b565b611435906001611f57565b846001015484600401546114499190611f57565b6114539190611f6e565b60038501546114629042611fed565b6113fe9190611f57565b60006114788383611406565b4260038501559050600081900361148e57505050565b808360020160008282546114a29190611f90565b92505081905550808260060160008282546114bd9190611f90565b9250508190555080600360008282546114d69190611f90565b9091555050505050565b836001015481116115d157808460010160008282546114ff9190611fed565b925050819055508083600101600082825461151a9190611fed565b9250508190555080600260008282546115339190611fed565b9091555050604051632770a7eb60e21b81526001600160a01b038381166004830152602482018390527f00000000000000000000000000000000000000000000000000000000000000001690639dc29fac906044016020604051808303816000875af11580156115a7573d6000803e3d6000fd5b505050506040513d601f19601f820116820180604052508101906115cb9190612000565b506107f4565b600180850180546000909155908401548211156115ef5760006115ff565b8184600101546115ff9190611fed565b6001850155600254821115611615576000611623565b816002546116239190611fed565b600255604051632770a7eb60e21b81526001600160a01b038481166004830152602482018390527f00000000000000000000000000000000000000000000000000000000000000001690639dc29fac906044016020604051808303816000875af1158015611695573d6000803e3d6000fd5b505050506040513d601f19601f820116820180604052508101906116b99190612000565b50610f098585856116ca8587611fed565b6119fc565b60008064e8d4a5100084600501546116e79190611f57565b6116f36012600a611f4b565b6116fe906001611f57565b6113ea86866119df565b6000808360020154846001015461171f9190611f90565b90508060000361173457600019915050610563565b600061174085856113ad565b905060006117506012600a611f4b565b61175b906001611f57565b600286015461176a9084611f57565b6117749190611f6e565b9050826117836012600a611f4b565b61178e906001611f57565b6117989083611f57565b6117a29190611f6e565b9695505050505050565b6001600160a01b038084166000908152600660209081526040808320938616835292905290812080548392906117e3908490611f90565b90915550506001600160a01b03831660009081526005602052604081208054839290611810908490611f90565b9091555061082d905083833084611aab565b61182e6012600a611f4b565b611839906001611f57565b6118438383611708565b106112ac57604051632066819b60e21b815260040160405180910390fd5b808460010160008282546118759190611f90565b92505081905550808360010160008282546118909190611f90565b9250508190555080600260008282546118a99190611f90565b90915550506040516340c10f1960e01b81526001600160a01b038381166004830152602482018390527f000000000000000000000000000000000000000000000000000000000000000016906340c10f19906044015b6020604051808303816000875af115801561191e573d6000803e3d6000fd5b505050506040513d601f19601f82011682018060405250810190610f099190612000565b61194c8282610db3565b6112ac5760405163e2517d3f60e01b81526001600160a01b0382166004820152602481018390526044015b60405180910390fd5b6040516001600160a01b0383811660248301526044820183905261082d91859182169063a9059cbb906064015b604051602081830303815290604052915060e01b6020820180516001600160e01b038381831617835250505050611ae4565b60008260090154600a6119f29190611f4b565b610d999083611f57565b80846002016000828254611a109190611fed565b9250508190555080836006016000828254611a2b9190611fed565b925050819055508060036000828254611a449190611fed565b90915550506001546040516323b872dd60e01b81526001600160a01b0384811660048301529182166024820152604481018390527f0000000000000000000000000000000000000000000000000000000000000000909116906323b872dd906064016118ff565b6040516001600160a01b0384811660248301528381166044830152606482018390526107f49186918216906323b872dd906084016119ad565b6000611af96001600160a01b03841683611b47565b90508051600014158015611b1e575080806020019051810190611b1c9190612000565b155b1561082d57604051635274afe760e01b81526001600160a01b0384166004820152602401611977565b6060610d998383600084600080856001600160a01b03168486604051611b6d9190612022565b60006040518083038185875af1925050503d8060008114611baa576040519150601f19603f3d011682016040523d82523d6000602084013e611baf565b606091505b50915091506117a2868383606082611bcf57611bca82611c16565b610d99565b8151158015611be657506001600160a01b0384163b155b15611c0f57604051639996b31560e01b81526001600160a01b0385166004820152602401611977565b5080610d99565b805115611c265780518082602001fd5b604051630a12f52160e11b815260040160405180910390fd5b600060208284031215611c5157600080fd5b81356001600160e01b031981168114610d9957600080fd5b6001600160a01b03811681146111f457600080fd5b600080600060608486031215611c9357600080fd5b8335611c9e81611c69565b95602085013595506040909401359392505050565b600060208284031215611cc557600080fd5b5035919050565b600080600060608486031215611ce157600080fd5b8335611cec81611c69565b92506020840135611cfc81611c69565b929592945050506040919091013590565b60008060408385031215611d2057600080fd5b823591506020830135611d3281611c69565b809150509250929050565b60008060408385031215611d5057600080fd5b8235611d5b81611c69565b91506020830135611d3281611c69565b600060208284031215611d7d57600080fd5b8135610d9981611c69565b60008060408385031215611d9b57600080fd5b8235611da681611c69565b946020939093013593505050565b60008060008060008060c08789031215611dcd57600080fd5b8635611dd881611c69565b9860208801359850604088013597606081013597506080810135965060a00135945092505050565b60008060008060808587031215611e1657600080fd5b8435611e2181611c69565b93506020850135611e3181611c69565b92506040850135611e4181611c69565b9396929550929360600135925050565b634e487b7160e01b600052601160045260246000fd5b600181815b80851115611ea2578160001904821115611e8857611e88611e51565b80851615611e9557918102915b93841c9390800290611e6c565b509250929050565b600082611eb957506001610563565b81611ec657506000610563565b8160018114611edc5760028114611ee657611f02565b6001915050610563565b60ff841115611ef757611ef7611e51565b50506001821b610563565b5060208310610133831016604e8410600b8410161715611f25575081810a610563565b611f2f8383611e67565b8060001904821115611f4357611f43611e51565b029392505050565b6000610d998383611eaa565b808202811582820484141761056357610563611e51565b600082611f8b57634e487b7160e01b600052601260045260246000fd5b500490565b8082018082111561056357610563611e51565b8181036000831280158383131683831282161715611fc357611fc3611e51565b5092915050565b600060208284031215611fdc57600080fd5b815160ff81168114610d9957600080fd5b8181038181111561056357610563611e51565b60006020828403121561201257600080fd5b81518015158114610d9957600080fd5b6000825160005b818110156120435760208186018101518583015201612029565b50600092019182525091905056fea26469706673582212206c3ad07d4fc15bcfd10117290ff4eda215fdef40873cc694845f4a0ae7b2d52e64736f6c63430008150033",
    "linkReferences": {}
  },
  "methodIdentifiers": {
    "CURRENCY_TOKEN()": "e72531c8",
    "DEFAULT_ADMIN_ROLE()": "a217fddf",
    "bufferContract()": "fd31f011",
    "burnCurrency(address,uint256)": "4852a717",
    "checkHealthFactor(address,address)": "708df104",
    "collateralMapping(address)": "c665471f",
    "createCollateralType(address,uint256,uint256,uint256,uint256,uint256)": "645ba425",
    "debt()": "0dca59c1",
    "depositCollateral(address,uint256)": "a5d5db0c",
    "fees()": "9af1d35a",
    "getMaxBorrowable(address,address)": "43586377",
    "getMaxWithdrawable(address,address)": "49c65108",
    "getRoleAdmin(bytes32)": "248a9ca3",
    "getVaultInfo(address,address)": "9436030e",
    "grantRole(bytes32,address)": "2f2ff15d",
    "hasRole(bytes32,address)": "91d14854",
    "liquidate(address,address,address,uint256)": "aab3f868",
    "mintCurrency(address,address,uint256)": "f02645b8",
    "pause()": "8456cb59",
    "renounceRole(bytes32,address)": "36568abe",
    "revokeRole(bytes32,address)": "d547741f",
    "status()": "200d2ed2",
    "supportsInterface(bytes4)": "01ffc9a7",
    "unpause()": "3f4ba83a",
    "updateCollateralData(address,bytes32,uint256)": "248055e5",
    "updateFeedContract(address)": "4522fa85",
    "updatePrice(address,uint256)": "457972de",
    "vaultMapping(address,address)": "e2c7283f",
    "withdrawCollateral(address,address,uint256)": "2ae8bdfe"
  },
  "id": 49
}