{
  "abi": [
    {
      "inputs": [
        {
          "internalType": "contract Vault",
          "name": "_vaultContract",
          "type": "address"
        },
        {
          "internalType": "contract ERC20",
          "name": "_collateralToken",
          "type": "address"
        },
        {
          "internalType": "address",
          "name": "_owner",
          "type": "address"
        }
      ],
      "name": "checkHealthFactor",
      "outputs": [
        {
          "internalType": "uint256",
          "name": "",
          "type": "uint256"
        }
      ],
      "stateMutability": "view",
      "type": "function"
    },
    {
      "inputs": [
        {
          "internalType": "contract Vault",
          "name": "_vaultContract",
          "type": "address"
        },
        {
          "internalType": "contract ERC20",
          "name": "_collateralToken",
          "type": "address"
        }
      ],
      "name": "getCollateralInfo",
      "outputs": [
        {
          "internalType": "uint256",
          "name": "",
          "type": "uint256"
        },
        {
          "internalType": "uint256",
          "name": "",
          "type": "uint256"
        },
        {
          "internalType": "uint256",
          "name": "",
          "type": "uint256"
        },
        {
          "internalType": "uint256",
          "name": "",
          "type": "uint256"
        },
        {
          "internalType": "uint256",
          "name": "",
          "type": "uint256"
        },
        {
          "internalType": "uint256",
          "name": "",
          "type": "uint256"
        },
        {
          "internalType": "uint256",
          "name": "",
          "type": "uint256"
        }
      ],
      "stateMutability": "view",
      "type": "function"
    },
    {
      "inputs": [
        {
          "internalType": "contract Vault",
          "name": "_vaultContract",
          "type": "address"
        },
        {
          "internalType": "contract ERC20",
          "name": "_collateralToken",
          "type": "address"
        },
        {
          "internalType": "address",
          "name": "_owner",
          "type": "address"
        }
      ],
      "name": "getMaxBorrowable",
      "outputs": [
        {
          "internalType": "int256",
          "name": "",
          "type": "int256"
        }
      ],
      "stateMutability": "view",
      "type": "function"
    },
    {
      "inputs": [
        {
          "internalType": "contract Vault",
          "name": "_vaultContract",
          "type": "address"
        },
        {
          "internalType": "contract ERC20",
          "name": "_collateralToken",
          "type": "address"
        },
        {
          "internalType": "address",
          "name": "_owner",
          "type": "address"
        }
      ],
      "name": "getMaxWithdrawable",
      "outputs": [
        {
          "internalType": "int256",
          "name": "",
          "type": "int256"
        }
      ],
      "stateMutability": "view",
      "type": "function"
    },
    {
      "inputs": [
        {
          "internalType": "contract Vault",
          "name": "_vaultContract",
          "type": "address"
        },
        {
          "internalType": "contract ERC20",
          "name": "_collateralToken",
          "type": "address"
        },
        {
          "internalType": "address",
          "name": "_owner",
          "type": "address"
        }
      ],
      "name": "getVault",
      "outputs": [
        {
          "internalType": "uint256",
          "name": "",
          "type": "uint256"
        },
        {
          "internalType": "uint256",
          "name": "",
          "type": "uint256"
        },
        {
          "internalType": "uint256",
          "name": "",
          "type": "uint256"
        }
      ],
      "stateMutability": "view",
      "type": "function"
    }
  ],
  "bytecode": {
    "object": "0x608060405234801561001057600080fd5b50610c60806100206000396000f3fe608060405234801561001057600080fd5b50600436106100575760003560e01c8063347c5d431461005c5780635d242b971461008f578063a62e34f7146100d7578063a6e91adf146100f8578063c03d88711461010b575b600080fd5b61006f61006a3660046108ae565b61011e565b604080519384526020840192909252908201526060015b60405180910390f35b6100a261009d3660046108f9565b61017b565b604080519788526020880196909652948601939093526060850191909152608084015260a083015260c082015260e001610086565b6100ea6100e53660046108ae565b6101d4565b604051908152602001610086565b6100ea6101063660046108ae565b6102d4565b6100ea6101193660046108ae565b61038c565b60008060008061012f87878761044b565b9050600061013d888861051b565b9050600061014c898484610620565b50905060008184604001516101619190610948565b8451602090950151949b949a509850929650505050505050565b6000806000806000806000806101918a8a61051b565b60808101515161012082015182516020840151604085015161010086015160c090960151929d50909b509950929750909550935091505092959891949750929550565b6000806101e285858561044b565b905060006101f0868661051b565b905080610160015161021c576102086012600a610a3f565b610213906001610a4b565b925050506102cd565b6000610229878484610620565b509050600081846020015161023e9190610948565b905080600003610256576000199450505050506102cd565b6000610262858561067f565b905060006102726012600a610a3f565b61027d906001610a4b565b604086015161028c9084610a4b565b6102969190610a62565b9050826102a56012600a610a3f565b6102b0906001610a4b565b6102ba9083610a4b565b6102c49190610a62565b96505050505050505b9392505050565b6000806102e285858561044b565b905060006102f0868661051b565b9050806101600151610307576000925050506102cd565b6000610314878484610620565b5090506000818460400151856020015161032e9190610948565b6103389190610948565b9050600061034684836106d8565b9050600084604001516012600a61035d9190610a3f565b610368906001610a4b565b6103729084610a4b565b61037c9190610a62565b86519091506102c4908290610a84565b60008061039a85858561044b565b905060006103a8868661051b565b825190915015806103bc5750806101600151155b156103cc576000925050506102cd565b60006103d8838361067f565b905060006103e86012600a610a3f565b6103f3906001610a4b565b60408401516104029084610a4b565b61040c9190610a62565b9050600061041b898686610620565b509050600081866040015187602001516104359190610948565b61043f9190610948565b90506102c48184610a84565b6104766040518060800160405280600081526020016000815260200160008152602001600081525090565b60405163e2c7283f60e01b81526001600160a01b038481166004830152838116602483015260009182918291829189169063e2c7283f90604401608060405180830381865afa1580156104cd573d6000803e3d6000fd5b505050506040513d601f19601f820116820180604052508101906104f19190610aab565b60408051608081018252948552602085019390935291830152606082015298975050505050505050565b610523610811565b6000806000806000806000806000806000808e6001600160a01b031663c665471f8f6040518263ffffffff1660e01b815260040161057091906001600160a01b0391909116815260200190565b6101c060405180830381865afa15801561058e573d6000803e3d6000fd5b505050506040513d601f19601f820116820180604052508101906105b29190610af6565b60408051610180810182529c8d5260208d019b909b52998b019890985260608a0196909652608089019490945260a088019290925260c087015260e086015261010085015261012084015261014083015215156101608201529c505050505050505050505050505b92915050565b600080600061062f8685610711565b9050600061063f6012600a610a3f565b61064a906001610a4b565b6020870151606088015161065e9085610be9565b6106689190610a4b565b6106729190610a62565b9791965090945050505050565b60008061068e6012600a610a3f565b610699906001610a4b565b64e8d4a510008460c001516106b28688600001516107f3565b6106bc9190610a4b565b6106c69190610a4b565b6106d09190610a62565b949350505050565b60008064e8d4a510008460c001516106f09190610a4b565b6106fc6012600a610a3f565b610707906001610a4b565b6106bc86866107f3565b600080826080015160400151426107289190610be9565b6080840151516107389190610a4b565b83608001516020015161074b9190610948565b90506000806000866001600160a01b03166313f60c9a6040518163ffffffff1660e01b8152600401606060405180830381865afa158015610790573d6000803e3d6000fd5b505050506040513d601f19601f820116820180604052508101906107b49190610bfc565b9194509250905060006107c78242610be9565b6107d19085610a4b565b6107db9084610948565b90506107e78186610948565b98975050505050505050565b6000826101400151600a6108079190610a3f565b6102cd9083610a4b565b6040518061018001604052806000815260200160008152602001600081526020016000815260200161085d60405180606001604052806000815260200160008152602001600081525090565b81526020016000815260200160008152602001600081526020016000815260200160008152602001600081526020016000151581525090565b6001600160a01b03811681146108ab57600080fd5b50565b6000806000606084860312156108c357600080fd5b83356108ce81610896565b925060208401356108de81610896565b915060408401356108ee81610896565b809150509250925092565b6000806040838503121561090c57600080fd5b823561091781610896565b9150602083013561092781610896565b809150509250929050565b634e487b7160e01b600052601160045260246000fd5b8082018082111561061a5761061a610932565b600181815b8085111561099657816000190482111561097c5761097c610932565b8085161561098957918102915b93841c9390800290610960565b509250929050565b6000826109ad5750600161061a565b816109ba5750600061061a565b81600181146109d057600281146109da576109f6565b600191505061061a565b60ff8411156109eb576109eb610932565b50506001821b61061a565b5060208310610133831016604e8410600b8410161715610a19575081810a61061a565b610a23838361095b565b8060001904821115610a3757610a37610932565b029392505050565b60006102cd838361099e565b808202811582820484141761061a5761061a610932565b600082610a7f57634e487b7160e01b600052601260045260246000fd5b500490565b8181036000831280158383131683831282161715610aa457610aa4610932565b5092915050565b60008060008060808587031215610ac157600080fd5b505082516020840151604085015160609095015191969095509092509050565b80518015158114610af157600080fd5b919050565b6000806000806000806000806000806000808c8e036101c0811215610b1a57600080fd5b8d519c5060208e01519b5060408e01519a5060608e015199506060607f1982011215610b4557600080fd5b506040516060810181811067ffffffffffffffff82111715610b7757634e487b7160e01b600052604160045260246000fd5b806040525060808e0151815260a08e0151602082015260c08e015160408201528098505060e08d015196506101008d015195506101208d015194506101408d015193506101608d015192506101808d01519150610bd76101a08e01610ae1565b90509295989b509295989b509295989b565b8181038181111561061a5761061a610932565b600080600060608486031215610c1157600080fd5b835192506020840151915060408401519050925092509256fea2646970667358221220a6e3e99fa0f084ad8a2f0ece17d2f6ec02c5c48cdf250b60430c2627a9e4f56b64736f6c63430008150033",
    "linkReferences": {}
  },
  "methodIdentifiers": {
    "checkHealthFactor(address,address,address)": "a62e34f7",
    "getCollateralInfo(address,address)": "5d242b97",
    "getMaxBorrowable(address,address,address)": "c03d8871",
    "getMaxWithdrawable(address,address,address)": "a6e91adf",
    "getVault(address,address,address)": "347c5d43"
  },
  "id": 43
}