{
  "_format": "hh-sol-artifact-1",
  "contractName": "xNGN",
  "sourceName": "contracts/ngn.sol",
  "abi": [
    {
      "inputs": [
        {
          "internalType": "string",
          "name": "error",
          "type": "string"
        }
      ],
      "name": "InsufficientFunds",
      "type": "error"
    },
    {
      "inputs": [
        {
          "internalType": "string",
          "name": "error",
          "type": "string"
        }
      ],
      "name": "NotLive",
      "type": "error"
    },
    {
      "anonymous": false,
      "inputs": [
        {
          "indexed": true,
          "internalType": "address",
          "name": "owner",
          "type": "address"
        },
        {
          "indexed": true,
          "internalType": "address",
          "name": "spender",
          "type": "address"
        },
        {
          "indexed": false,
          "internalType": "uint256",
          "name": "value",
          "type": "uint256"
        }
      ],
      "name": "Approval",
      "type": "event"
    },
    {
      "anonymous": false,
      "inputs": [],
      "name": "Cage",
      "type": "event"
    },
    {
      "anonymous": false,
      "inputs": [],
      "name": "EIP712DomainChanged",
      "type": "event"
    },
    {
      "anonymous": false,
      "inputs": [
        {
          "indexed": false,
          "internalType": "uint8",
          "name": "version",
          "type": "uint8"
        }
      ],
      "name": "Initialized",
      "type": "event"
    },
    {
      "anonymous": false,
      "inputs": [
        {
          "indexed": true,
          "internalType": "bytes32",
          "name": "role",
          "type": "bytes32"
        },
        {
          "indexed": true,
          "internalType": "bytes32",
          "name": "previousAdminRole",
          "type": "bytes32"
        },
        {
          "indexed": true,
          "internalType": "bytes32",
          "name": "newAdminRole",
          "type": "bytes32"
        }
      ],
      "name": "RoleAdminChanged",
      "type": "event"
    },
    {
      "anonymous": false,
      "inputs": [
        {
          "indexed": true,
          "internalType": "bytes32",
          "name": "role",
          "type": "bytes32"
        },
        {
          "indexed": true,
          "internalType": "address",
          "name": "account",
          "type": "address"
        },
        {
          "indexed": true,
          "internalType": "address",
          "name": "sender",
          "type": "address"
        }
      ],
      "name": "RoleGranted",
      "type": "event"
    },
    {
      "anonymous": false,
      "inputs": [
        {
          "indexed": true,
          "internalType": "bytes32",
          "name": "role",
          "type": "bytes32"
        },
        {
          "indexed": true,
          "internalType": "address",
          "name": "account",
          "type": "address"
        },
        {
          "indexed": true,
          "internalType": "address",
          "name": "sender",
          "type": "address"
        }
      ],
      "name": "RoleRevoked",
      "type": "event"
    },
    {
      "anonymous": false,
      "inputs": [
        {
          "indexed": true,
          "internalType": "address",
          "name": "from",
          "type": "address"
        },
        {
          "indexed": true,
          "internalType": "address",
          "name": "to",
          "type": "address"
        },
        {
          "indexed": false,
          "internalType": "uint256",
          "name": "value",
          "type": "uint256"
        }
      ],
      "name": "Transfer",
      "type": "event"
    },
    {
      "inputs": [],
      "name": "DEFAULT_ADMIN_ROLE",
      "outputs": [
        {
          "internalType": "bytes32",
          "name": "",
          "type": "bytes32"
        }
      ],
      "stateMutability": "view",
      "type": "function"
    },
    {
      "inputs": [],
      "name": "DOMAIN_SEPARATOR",
      "outputs": [
        {
          "internalType": "bytes32",
          "name": "",
          "type": "bytes32"
        }
      ],
      "stateMutability": "view",
      "type": "function"
    },
    {
      "inputs": [],
      "name": "MINTER_ROLE",
      "outputs": [
        {
          "internalType": "bytes32",
          "name": "",
          "type": "bytes32"
        }
      ],
      "stateMutability": "view",
      "type": "function"
    },
    {
      "inputs": [
        {
          "internalType": "address",
          "name": "owner",
          "type": "address"
        },
        {
          "internalType": "address",
          "name": "spender",
          "type": "address"
        }
      ],
      "name": "allowance",
      "outputs": [
        {
          "internalType": "uint256",
          "name": "",
          "type": "uint256"
        }
      ],
      "stateMutability": "view",
      "type": "function"
    },
    {
      "inputs": [
        {
          "internalType": "address",
          "name": "spender",
          "type": "address"
        },
        {
          "internalType": "uint256",
          "name": "amount",
          "type": "uint256"
        }
      ],
      "name": "approve",
      "outputs": [
        {
          "internalType": "bool",
          "name": "",
          "type": "bool"
        }
      ],
      "stateMutability": "nonpayable",
      "type": "function"
    },
    {
      "inputs": [
        {
          "internalType": "address",
          "name": "account",
          "type": "address"
        }
      ],
      "name": "balanceOf",
      "outputs": [
        {
          "internalType": "uint256",
          "name": "",
          "type": "uint256"
        }
      ],
      "stateMutability": "view",
      "type": "function"
    },
    {
      "inputs": [
        {
          "internalType": "address",
          "name": "account",
          "type": "address"
        },
        {
          "internalType": "uint256",
          "name": "amount",
          "type": "uint256"
        }
      ],
      "name": "burn",
      "outputs": [
        {
          "internalType": "bool",
          "name": "",
          "type": "bool"
        }
      ],
      "stateMutability": "nonpayable",
      "type": "function"
    },
    {
      "inputs": [],
      "name": "cage",
      "outputs": [],
      "stateMutability": "nonpayable",
      "type": "function"
    },
    {
      "inputs": [],
      "name": "decimals",
      "outputs": [
        {
          "internalType": "uint8",
          "name": "",
          "type": "uint8"
        }
      ],
      "stateMutability": "view",
      "type": "function"
    },
    {
      "inputs": [
        {
          "internalType": "address",
          "name": "spender",
          "type": "address"
        },
        {
          "internalType": "uint256",
          "name": "subtractedValue",
          "type": "uint256"
        }
      ],
      "name": "decreaseAllowance",
      "outputs": [
        {
          "internalType": "bool",
          "name": "",
          "type": "bool"
        }
      ],
      "stateMutability": "nonpayable",
      "type": "function"
    },
    {
      "inputs": [],
      "name": "eip712Domain",
      "outputs": [
        {
          "internalType": "bytes1",
          "name": "fields",
          "type": "bytes1"
        },
        {
          "internalType": "string",
          "name": "name",
          "type": "string"
        },
        {
          "internalType": "string",
          "name": "version",
          "type": "string"
        },
        {
          "internalType": "uint256",
          "name": "chainId",
          "type": "uint256"
        },
        {
          "internalType": "address",
          "name": "verifyingContract",
          "type": "address"
        },
        {
          "internalType": "bytes32",
          "name": "salt",
          "type": "bytes32"
        },
        {
          "internalType": "uint256[]",
          "name": "extensions",
          "type": "uint256[]"
        }
      ],
      "stateMutability": "view",
      "type": "function"
    },
    {
      "inputs": [
        {
          "internalType": "bytes32",
          "name": "role",
          "type": "bytes32"
        }
      ],
      "name": "getRoleAdmin",
      "outputs": [
        {
          "internalType": "bytes32",
          "name": "",
          "type": "bytes32"
        }
      ],
      "stateMutability": "view",
      "type": "function"
    },
    {
      "inputs": [
        {
          "internalType": "bytes32",
          "name": "role",
          "type": "bytes32"
        },
        {
          "internalType": "address",
          "name": "account",
          "type": "address"
        }
      ],
      "name": "grantRole",
      "outputs": [],
      "stateMutability": "nonpayable",
      "type": "function"
    },
    {
      "inputs": [
        {
          "internalType": "bytes32",
          "name": "role",
          "type": "bytes32"
        },
        {
          "internalType": "address",
          "name": "account",
          "type": "address"
        }
      ],
      "name": "hasRole",
      "outputs": [
        {
          "internalType": "bool",
          "name": "",
          "type": "bool"
        }
      ],
      "stateMutability": "view",
      "type": "function"
    },
    {
      "inputs": [
        {
          "internalType": "address",
          "name": "spender",
          "type": "address"
        },
        {
          "internalType": "uint256",
          "name": "addedValue",
          "type": "uint256"
        }
      ],
      "name": "increaseAllowance",
      "outputs": [
        {
          "internalType": "bool",
          "name": "",
          "type": "bool"
        }
      ],
      "stateMutability": "nonpayable",
      "type": "function"
    },
    {
      "inputs": [
        {
          "internalType": "address[]",
          "name": "trustedForwarders",
          "type": "address[]"
        }
      ],
      "name": "initialize",
      "outputs": [],
      "stateMutability": "nonpayable",
      "type": "function"
    },
    {
      "inputs": [
        {
          "internalType": "address",
          "name": "forwarder",
          "type": "address"
        }
      ],
      "name": "isTrustedForwarder",
      "outputs": [
        {
          "internalType": "bool",
          "name": "",
          "type": "bool"
        }
      ],
      "stateMutability": "view",
      "type": "function"
    },
    {
      "inputs": [],
      "name": "live",
      "outputs": [
        {
          "internalType": "uint256",
          "name": "",
          "type": "uint256"
        }
      ],
      "stateMutability": "view",
      "type": "function"
    },
    {
      "inputs": [
        {
          "internalType": "address",
          "name": "account",
          "type": "address"
        },
        {
          "internalType": "uint256",
          "name": "amount",
          "type": "uint256"
        }
      ],
      "name": "mint",
      "outputs": [
        {
          "internalType": "bool",
          "name": "",
          "type": "bool"
        }
      ],
      "stateMutability": "nonpayable",
      "type": "function"
    },
    {
      "inputs": [],
      "name": "name",
      "outputs": [
        {
          "internalType": "string",
          "name": "",
          "type": "string"
        }
      ],
      "stateMutability": "view",
      "type": "function"
    },
    {
      "inputs": [
        {
          "internalType": "address",
          "name": "owner",
          "type": "address"
        }
      ],
      "name": "nonces",
      "outputs": [
        {
          "internalType": "uint256",
          "name": "",
          "type": "uint256"
        }
      ],
      "stateMutability": "view",
      "type": "function"
    },
    {
      "inputs": [
        {
          "internalType": "address",
          "name": "owner",
          "type": "address"
        },
        {
          "internalType": "address",
          "name": "spender",
          "type": "address"
        },
        {
          "internalType": "uint256",
          "name": "value",
          "type": "uint256"
        },
        {
          "internalType": "uint256",
          "name": "deadline",
          "type": "uint256"
        },
        {
          "internalType": "uint8",
          "name": "v",
          "type": "uint8"
        },
        {
          "internalType": "bytes32",
          "name": "r",
          "type": "bytes32"
        },
        {
          "internalType": "bytes32",
          "name": "s",
          "type": "bytes32"
        }
      ],
      "name": "permit",
      "outputs": [],
      "stateMutability": "nonpayable",
      "type": "function"
    },
    {
      "inputs": [
        {
          "internalType": "address",
          "name": "owner",
          "type": "address"
        },
        {
          "internalType": "address",
          "name": "spender",
          "type": "address"
        },
        {
          "internalType": "uint256",
          "name": "value",
          "type": "uint256"
        },
        {
          "internalType": "uint256",
          "name": "expiry",
          "type": "uint256"
        },
        {
          "internalType": "uint8",
          "name": "v",
          "type": "uint8"
        },
        {
          "internalType": "bytes32",
          "name": "r",
          "type": "bytes32"
        },
        {
          "internalType": "bytes32",
          "name": "s",
          "type": "bytes32"
        }
      ],
      "name": "permitToken",
      "outputs": [],
      "stateMutability": "nonpayable",
      "type": "function"
    },
    {
      "inputs": [
        {
          "internalType": "bytes32",
          "name": "role",
          "type": "bytes32"
        },
        {
          "internalType": "address",
          "name": "account",
          "type": "address"
        }
      ],
      "name": "renounceRole",
      "outputs": [],
      "stateMutability": "nonpayable",
      "type": "function"
    },
    {
      "inputs": [
        {
          "internalType": "bytes32",
          "name": "role",
          "type": "bytes32"
        },
        {
          "internalType": "address",
          "name": "account",
          "type": "address"
        }
      ],
      "name": "revokeRole",
      "outputs": [],
      "stateMutability": "nonpayable",
      "type": "function"
    },
    {
      "inputs": [
        {
          "internalType": "address",
          "name": "account",
          "type": "address"
        }
      ],
      "name": "setMinterRole",
      "outputs": [],
      "stateMutability": "nonpayable",
      "type": "function"
    },
    {
      "inputs": [
        {
          "internalType": "bytes4",
          "name": "interfaceId",
          "type": "bytes4"
        }
      ],
      "name": "supportsInterface",
      "outputs": [
        {
          "internalType": "bool",
          "name": "",
          "type": "bool"
        }
      ],
      "stateMutability": "view",
      "type": "function"
    },
    {
      "inputs": [],
      "name": "symbol",
      "outputs": [
        {
          "internalType": "string",
          "name": "",
          "type": "string"
        }
      ],
      "stateMutability": "view",
      "type": "function"
    },
    {
      "inputs": [],
      "name": "totalSupply",
      "outputs": [
        {
          "internalType": "uint256",
          "name": "",
          "type": "uint256"
        }
      ],
      "stateMutability": "view",
      "type": "function"
    },
    {
      "inputs": [
        {
          "internalType": "address",
          "name": "to",
          "type": "address"
        },
        {
          "internalType": "uint256",
          "name": "amount",
          "type": "uint256"
        }
      ],
      "name": "transfer",
      "outputs": [
        {
          "internalType": "bool",
          "name": "",
          "type": "bool"
        }
      ],
      "stateMutability": "nonpayable",
      "type": "function"
    },
    {
      "inputs": [
        {
          "internalType": "address",
          "name": "from",
          "type": "address"
        },
        {
          "internalType": "address",
          "name": "to",
          "type": "address"
        },
        {
          "internalType": "uint256",
          "name": "amount",
          "type": "uint256"
        }
      ],
      "name": "transferFrom",
      "outputs": [
        {
          "internalType": "bool",
          "name": "",
          "type": "bool"
        }
      ],
      "stateMutability": "nonpayable",
      "type": "function"
    },
    {
      "inputs": [],
      "name": "version",
      "outputs": [
        {
          "internalType": "string",
          "name": "",
          "type": "string"
        }
      ],
      "stateMutability": "view",
      "type": "function"
    },
    {
      "inputs": [],
      "name": "withdraw",
      "outputs": [],
      "stateMutability": "nonpayable",
      "type": "function"
    },
    {
      "inputs": [
        {
          "internalType": "address",
          "name": "tokenAddress",
          "type": "address"
        },
        {
          "internalType": "address",
          "name": "account",
          "type": "address"
        }
      ],
      "name": "withdrawToken",
      "outputs": [],
      "stateMutability": "nonpayable",
      "type": "function"
    }
  ],
  "bytecode": "0x608060405234801561000f575f80fd5b50614c978061001d5f395ff3fe608060405234801561000f575f80fd5b5060043610610204575f3560e01c806370a08231116101185780639dc29fac116100ab578063a9059cbb1161007a578063a9059cbb14610618578063d505accf14610648578063d539139314610664578063d547741f14610682578063dd62ed3e1461069e57610204565b80639dc29fac1461057e578063a217fddf146105ae578063a224cee7146105cc578063a457c2d7146105e857610204565b8063945d1229116100e7578063945d12291461050a5780639541fe0314610526578063957aa58c1461054257806395d89b411461056057610204565b806370a08231146104565780637ecebe001461048657806384b0196e146104b657806391d14854146104da57610204565b80633644e5151161019b5780633ccfd60b1161016a5780633ccfd60b146103c457806340c10f19146103ce57806354fd4d50146103fe578063572b6c051461041c578063692450091461044c57610204565b80633644e5151461033e57806336568abe1461035c57806339509351146103785780633aeac4e1146103a857610204565b806323b872dd116101d757806323b872dd146102a4578063248a9ca3146102d45780632f2ff15d14610304578063313ce5671461032057610204565b806301ffc9a71461020857806306fdde0314610238578063095ea7b31461025657806318160ddd14610286575b5f80fd5b610222600480360381019061021d9190613316565b6106ce565b60405161022f919061335b565b60405180910390f35b610240610747565b60405161024d91906133fe565b60405180910390f35b610270600480360381019061026b91906134ab565b6107d7565b60405161027d919061335b565b60405180910390f35b61028e6107f9565b60405161029b91906134f8565b60405180910390f35b6102be60048036038101906102b99190613511565b610802565b6040516102cb919061335b565b60405180910390f35b6102ee60048036038101906102e99190613594565b610830565b6040516102fb91906135ce565b60405180910390f35b61031e600480360381019061031991906135e7565b61084d565b005b61032861086e565b6040516103359190613640565b60405180910390f35b610346610876565b60405161035391906135ce565b60405180910390f35b610376600480360381019061037191906135e7565b610884565b005b610392600480360381019061038d91906134ab565b610907565b60405161039f919061335b565b60405180910390f35b6103c260048036038101906103bd9190613659565b61093d565b005b6103cc610aff565b005b6103e860048036038101906103e391906134ab565b610be3565b6040516103f5919061335b565b60405180910390f35b610406610d59565b60405161041391906133fe565b60405180910390f35b61043660048036038101906104319190613697565b610d92565b604051610443919061335b565b60405180910390f35b610454610e21565b005b610470600480360381019061046b9190613697565b610edc565b60405161047d91906134f8565b60405180910390f35b6104a0600480360381019061049b9190613697565b610f22565b6040516104ad91906134f8565b60405180910390f35b6104be610f6f565b6040516104d197969594939291906137c2565b60405180910390f35b6104f460048036038101906104ef91906135e7565b611069565b604051610501919061335b565b60405180910390f35b610524600480360381019061051f9190613697565b6110cd565b005b610540600480360381019061053b919061386e565b61116b565b005b61054a6111be565b60405161055791906134f8565b60405180910390f35b6105686111c5565b60405161057591906133fe565b60405180910390f35b610598600480360381019061059391906134ab565b611255565b6040516105a5919061335b565b60405180910390f35b6105b6611575565b6040516105c391906135ce565b60405180910390f35b6105e660048036038101906105e19190613a4b565b61157b565b005b61060260048036038101906105fd91906134ab565b61189c565b60405161060f919061335b565b60405180910390f35b610632600480360381019061062d91906134ab565b611911565b60405161063f919061335b565b60405180910390f35b610662600480360381019061065d919061386e565b611933565b005b61066c611a72565b60405161067991906135ce565b60405180910390f35b61069c600480360381019061069791906135e7565b611a96565b005b6106b860048036038101906106b39190613659565b611ab7565b6040516106c591906134f8565b60405180910390f35b5f7f7965db0b000000000000000000000000000000000000000000000000000000007bffffffffffffffffffffffffffffffffffffffffffffffffffffffff1916827bffffffffffffffffffffffffffffffffffffffffffffffffffffffff19161480610740575061073f82611b39565b5b9050919050565b6060609a805461075690613abf565b80601f016020809104026020016040519081016040528092919081815260200182805461078290613abf565b80156107cd5780601f106107a4576101008083540402835291602001916107cd565b820191905f5260205f20905b8154815290600101906020018083116107b057829003601f168201915b5050505050905090565b5f806107e1611ba2565b90506107ee818585611bec565b600191505092915050565b5f609954905090565b5f8061080c611ba2565b9050610819858285611daf565b610824858585611e3a565b60019150509392505050565b5f60655f8381526020019081526020015f20600101549050919050565b61085682610830565b61085f816120a9565b61086983836120bd565b505050565b5f6012905090565b5f61087f612198565b905090565b61088c611ba2565b73ffffffffffffffffffffffffffffffffffffffff168173ffffffffffffffffffffffffffffffffffffffff16146108f9576040517f08c379a00000000000000000000000000000000000000000000000000000000081526004016108f090613b5f565b60405180910390fd5b61090382826121a6565b5050565b5f80610911611ba2565b90506109328185856109238589611ab7565b61092d9190613baa565b611bec565b600191505092915050565b61095167012cf3858722013660c01b612281565b5f801b61095d816120a9565b61097167837c668f2d250d8660c01b612281565b61098567d80d4402094b810c60c01b612281565b61099967253a2618af605a2960c01b612281565b6109ad6728262fb6535f8b4960c01b612281565b5f8390506109c5671f1b7c73e9c869fb60c01b612281565b6109d967bbc3e17f224f009060c01b612281565b5f8173ffffffffffffffffffffffffffffffffffffffff166370a08231306040518263ffffffff1660e01b8152600401610a139190613bdd565b602060405180830381865afa158015610a2e573d5f803e3d5ffd5b505050506040513d601f19601f82011682018060405250810190610a529190613c0a565b9050610a6867fc9e07ac5cc72f5460c01b612281565b610a7c67442ef54fba8e90f860c01b612281565b8173ffffffffffffffffffffffffffffffffffffffff1663a9059cbb85836040518363ffffffff1660e01b8152600401610ab7929190613c35565b6020604051808303815f875af1158015610ad3573d5f803e3d5ffd5b505050506040513d601f19601f82011682018060405250810190610af79190613c86565b505050505050565b610b13676738fb94ebc0d54b60c01b612281565b5f801b610b1f816120a9565b610b3367e882ee446a63b7ed60c01b612281565b610b476702eea3ad768f1d1360c01b612281565b610b5b673eb7af2c0c72e4b360c01b612281565b610b6f674a65ce9a9b14f3ac60c01b612281565b5f479050610b8767e7c72fe14c6e6f0e60c01b612281565b610b9b67195359524748fc0360c01b612281565b3373ffffffffffffffffffffffffffffffffffffffff166108fc8290811502906040515f60405180830381858888f19350505050158015610bde573d5f803e3d5ffd5b505050565b5f610bf867ca0a9428518c135360c01b612281565b7f9f2df0fed2c77648de5860a4cc508cd0818c85b8b8a1ab4ceeef8d981c8956a6610c22816120a9565b610c366707bf2514d00b65b260c01b612281565b610c4a675b2d1bbc58b52dc560c01b612281565b610c5e67f6346b1e3cea144a60c01b612281565b610c7267fd2c292fd060810f60c01b612281565b60016101625414610ce057610c9167374d5b1983b0cadb60c01b612281565b610ca5676bd612edd853a32360c01b612281565b6040517fa1875fdb000000000000000000000000000000000000000000000000000000008152600401610cd790613cfb565b60405180910390fd5b610cf467fa7c70ae2b7496db60c01b612281565b610d0867892ac10c1b26e4d160c01b612281565b610d1c6734e399eb361d03e160c01b612281565b610d268484612284565b610d3a6754640195418ef86760c01b612281565b610d4e67766a500d155d709660c01b612281565b600191505092915050565b6040518060400160405280600181526020017f310000000000000000000000000000000000000000000000000000000000000081525081565b5f610da767a70cef57d631b0a860c01b6123d3565b610dbb670a0ee1c311dff58660c01b6123d3565b610dcf67ed0480cd89c0d27160c01b6123d3565b6101305f8373ffffffffffffffffffffffffffffffffffffffff1673ffffffffffffffffffffffffffffffffffffffff1681526020019081526020015f205f9054906101000a900460ff169050919050565b610e35673386f5920adbeca360c01b612281565b5f801b610e41816120a9565b610e55671af03f7a319b38d560c01b612281565b610e696743efee2c51a2cf6a60c01b612281565b610e7d673c982ab12a7af0cd60c01b612281565b5f61016281905550610e99671505ffe33234b64560c01b612281565b610ead67e8b7f3d134b0472a60c01b612281565b7f2308ed18a14e800c39b86eb6ea43270105955ca385b603b64eca89f98ae8fbda60405160405180910390a150565b5f60975f8373ffffffffffffffffffffffffffffffffffffffff1673ffffffffffffffffffffffffffffffffffffffff1681526020019081526020015f20549050919050565b5f610f6860fd5f8473ffffffffffffffffffffffffffffffffffffffff1673ffffffffffffffffffffffffffffffffffffffff1681526020019081526020015f206123d6565b9050919050565b5f6060805f805f60605f801b60c954148015610f8e57505f801b60ca54145b610fcd576040517f08c379a0000000000000000000000000000000000000000000000000000000008152600401610fc490613d63565b60405180910390fd5b610fd56123e2565b610fdd612472565b46305f801b5f67ffffffffffffffff811115610ffc57610ffb61390f565b5b60405190808252806020026020018201604052801561102a5781602001602082028036833780820191505090505b507f0f00000000000000000000000000000000000000000000000000000000000000959493929190965096509650965096509650965090919293949596565b5f60655f8481526020019081526020015f205f015f8373ffffffffffffffffffffffffffffffffffffffff1673ffffffffffffffffffffffffffffffffffffffff1681526020019081526020015f205f9054906101000a900460ff16905092915050565b6110e167a67bd43971ef2dab60c01b612281565b5f801b6110ed816120a9565b61110167c3c68046fb5562ef60c01b612281565b61111567cedc65fdaf16c64560c01b612281565b611129677f1278fcfdfa212260c01b612281565b61113d67176c694ee4dec15860c01b612281565b6111677f9f2df0fed2c77648de5860a4cc508cd0818c85b8b8a1ab4ceeef8d981c8956a6836120bd565b5050565b61117f679111a98ee77c660560c01b612281565b6111936787a4a9ab4e778c4e60c01b612281565b6111a666b2cdd7b7b7dac060c01b612281565b6111b587878787878787611933565b50505050505050565b6101625481565b6060609b80546111d490613abf565b80601f016020809104026020016040519081016040528092919081815260200182805461120090613abf565b801561124b5780601f106112225761010080835404028352916020019161124b565b820191905f5260205f20905b81548152906001019060200180831161122e57829003601f168201915b5050505050905090565b5f61126a6771587a75e37b71a260c01b612281565b7f9f2df0fed2c77648de5860a4cc508cd0818c85b8b8a1ab4ceeef8d981c8956a6611294816120a9565b6112a8675effde2ad45028e560c01b612281565b6112bc67a4baa80099f8886060c01b612281565b6112d067896b69b932c3689460c01b612281565b6112e4673be3570e26f16b4960c01b612281565b600161016254146113525761130367f586b5de9d800c6e60c01b612281565b61131767841030cca30a8bf460c01b612281565b6040517fa1875fdb00000000000000000000000000000000000000000000000000000000815260040161134990613cfb565b60405180910390fd5b61136667aaa1e2134ed08a9560c01b612281565b61137a67104ee4e8de9b3c5160c01b612281565b61138e675fa63a32c21e110660c01b612281565b3373ffffffffffffffffffffffffffffffffffffffff168473ffffffffffffffffffffffffffffffffffffffff16141580156113f357507fffffffffffffffffffffffffffffffffffffffffffffffffffffffffffffffff6113f08533611ab7565b14155b156114fb5761140c67c8786862fb4860cd60c01b612281565b61142067bdb5590ab064ab2660c01b612281565b611434675ff54919c748287f60c01b612281565b8261143f8533611ab7565b10156114e25761145967d33f35215b6a196a60c01b612281565b61146d6773f61a7dfd27f2b260c01b612281565b61148167ef5825030be318d160c01b612281565b61149361148e3386611ab7565b612502565b6114a76767d2f58012b2ab8f60c01b612281565b6040517fa1875fdb0000000000000000000000000000000000000000000000000000000081526004016114d990613cfb565b60405180910390fd5b6114f667a43bb358704bc2e960c01b612281565b611510565b61150f67992afb1a43f9dffe60c01b612281565b5b6115246762f7eedab784707c60c01b612281565b61153867b6998f0b94d2798060c01b612281565b611542848461259b565b61155667d0b9336c25a5103760c01b612281565b61156a67efed6926d452c66360c01b612281565b600191505092915050565b5f801b81565b61158f6751168f1f6f2a4b6160c01b612281565b5f8060019054906101000a900460ff161590508080156115be575060015f8054906101000a900460ff1660ff16105b806115ea57506115cd30612760565b1580156115e9575060015f8054906101000a900460ff1660ff16145b5b611629576040517f08c379a000000000000000000000000000000000000000000000000000000000815260040161162090613df1565b60405180910390fd5b60015f806101000a81548160ff021916908360ff16021790555080156116645760015f60016101000a81548160ff0219169083151502179055505b61167867fc5ea77bac25af1860c01b612281565b61168c67a24e40ada24722ed60c01b612281565b6116a067d4954b5d4106209260c01b612281565b6116b467e12d71bde939a06660c01b612281565b6116bc612782565b6116d06751989d810788d91560c01b612281565b6116e467c253630241b9682460c01b612281565b6117586040518060400160405280600e81526020017f4e474e20537461626c65636f696e0000000000000000000000000000000000008152506040518060400160405280600481526020017f784e474e000000000000000000000000000000000000000000000000000000008152506127d2565b61176c6713d932708d32529e60c01b612281565b6117806731bcd5485477a23c60c01b612281565b6117be6040518060400160405280600e81526020017f4e474e20537461626c65636f696e00000000000000000000000000000000000081525061282e565b6117d2672170e5e8e501967f60c01b612281565b6117e667181c004b143b5eee60c01b612281565b6117ef826128be565b61180367bf7fc52f0e38eba760c01b612281565b61181767d261ed34dc2a46b060c01b612281565b6118235f801b336120bd565b61183767a184fe97216b6cba60c01b612281565b6001610162819055508015611898575f8060016101000a81548160ff0219169083151502179055507f7f26b83ff96e1f2b6a682f133852f6798a09c465da95921460cefb3847402498600160405161188f9190613e51565b60405180910390a15b5050565b5f806118a6611ba2565b90505f6118b38286611ab7565b9050838110156118f8576040517f08c379a00000000000000000000000000000000000000000000000000000000081526004016118ef90613eda565b60405180910390fd5b6119058286868403611bec565b60019250505092915050565b5f8061191b611ba2565b9050611928818585611e3a565b600191505092915050565b83421115611976576040517f08c379a000000000000000000000000000000000000000000000000000000000815260040161196d90613f42565b60405180910390fd5b5f7f6e71edae12b1b97f4d1f60370fef10105fa2faae0126114a169c64845d6126c98888886119a48c612a16565b896040516020016119ba96959493929190613f60565b6040516020818303038152906040528051906020012090505f6119dc82612a71565b90505f6119eb82878787612a8a565b90508973ffffffffffffffffffffffffffffffffffffffff168173ffffffffffffffffffffffffffffffffffffffff1614611a5b576040517f08c379a0000000000000000000000000000000000000000000000000000000008152600401611a5290614009565b60405180910390fd5b611a668a8a8a611bec565b50505050505050505050565b7f9f2df0fed2c77648de5860a4cc508cd0818c85b8b8a1ab4ceeef8d981c8956a681565b611a9f82610830565b611aa8816120a9565b611ab283836121a6565b505050565b5f60985f8473ffffffffffffffffffffffffffffffffffffffff1673ffffffffffffffffffffffffffffffffffffffff1681526020019081526020015f205f8373ffffffffffffffffffffffffffffffffffffffff1673ffffffffffffffffffffffffffffffffffffffff1681526020019081526020015f2054905092915050565b5f7f01ffc9a7000000000000000000000000000000000000000000000000000000007bffffffffffffffffffffffffffffffffffffffffffffffffffffffff1916827bffffffffffffffffffffffffffffffffffffffffffffffffffffffff1916149050919050565b5f611bb767790962a3bb0a494c60c01b612281565b611bcb67a449c1d5b4590deb60c01b612281565b611bdf675abcca2aaa23c60760c01b612281565b611be7612ab3565b905090565b5f73ffffffffffffffffffffffffffffffffffffffff168373ffffffffffffffffffffffffffffffffffffffff1603611c5a576040517f08c379a0000000000000000000000000000000000000000000000000000000008152600401611c5190614097565b60405180910390fd5b5f73ffffffffffffffffffffffffffffffffffffffff168273ffffffffffffffffffffffffffffffffffffffff1603611cc8576040517f08c379a0000000000000000000000000000000000000000000000000000000008152600401611cbf90614125565b60405180910390fd5b8060985f8573ffffffffffffffffffffffffffffffffffffffff1673ffffffffffffffffffffffffffffffffffffffff1681526020019081526020015f205f8473ffffffffffffffffffffffffffffffffffffffff1673ffffffffffffffffffffffffffffffffffffffff1681526020019081526020015f20819055508173ffffffffffffffffffffffffffffffffffffffff168373ffffffffffffffffffffffffffffffffffffffff167f8c5be1e5ebec7d5bd14f71427d1e84f3dd0314c0f7b2291e5b200ac8c7c3b92583604051611da291906134f8565b60405180910390a3505050565b5f611dba8484611ab7565b90507fffffffffffffffffffffffffffffffffffffffffffffffffffffffffffffffff8114611e345781811015611e26576040517f08c379a0000000000000000000000000000000000000000000000000000000008152600401611e1d9061418d565b60405180910390fd5b611e338484848403611bec565b5b50505050565b5f73ffffffffffffffffffffffffffffffffffffffff168373ffffffffffffffffffffffffffffffffffffffff1603611ea8576040517f08c379a0000000000000000000000000000000000000000000000000000000008152600401611e9f9061421b565b60405180910390fd5b5f73ffffffffffffffffffffffffffffffffffffffff168273ffffffffffffffffffffffffffffffffffffffff1603611f16576040517f08c379a0000000000000000000000000000000000000000000000000000000008152600401611f0d906142a9565b60405180910390fd5b611f21838383612aba565b5f60975f8573ffffffffffffffffffffffffffffffffffffffff1673ffffffffffffffffffffffffffffffffffffffff1681526020019081526020015f2054905081811015611fa5576040517f08c379a0000000000000000000000000000000000000000000000000000000008152600401611f9c90614337565b60405180910390fd5b81810360975f8673ffffffffffffffffffffffffffffffffffffffff1673ffffffffffffffffffffffffffffffffffffffff1681526020019081526020015f20819055508160975f8573ffffffffffffffffffffffffffffffffffffffff1673ffffffffffffffffffffffffffffffffffffffff1681526020019081526020015f205f82825401925050819055508273ffffffffffffffffffffffffffffffffffffffff168473ffffffffffffffffffffffffffffffffffffffff167fddf252ad1be2c89b69c2b068fc378daa952ba7f163c4a11628f55a4df523b3ef8460405161209091906134f8565b60405180910390a36120a3848484612abf565b50505050565b6120ba816120b5611ba2565b612ac4565b50565b6120c78282611069565b61219457600160655f8481526020019081526020015f205f015f8373ffffffffffffffffffffffffffffffffffffffff1673ffffffffffffffffffffffffffffffffffffffff1681526020019081526020015f205f6101000a81548160ff021916908315150217905550612139611ba2565b73ffffffffffffffffffffffffffffffffffffffff168173ffffffffffffffffffffffffffffffffffffffff16837f2f8788117e7eff1d82e926ec794901d17c78024a50270940304540a733656f0d60405160405180910390a45b5050565b5f6121a1612b48565b905090565b6121b08282611069565b1561227d575f60655f8481526020019081526020015f205f015f8373ffffffffffffffffffffffffffffffffffffffff1673ffffffffffffffffffffffffffffffffffffffff1681526020019081526020015f205f6101000a81548160ff021916908315150217905550612222611ba2565b73ffffffffffffffffffffffffffffffffffffffff168173ffffffffffffffffffffffffffffffffffffffff16837ff6391f5c32d9c69d2a47ea670b442974b53935d1edc7fd64eb21e047a839171b60405160405180910390a45b5050565b50565b5f73ffffffffffffffffffffffffffffffffffffffff168273ffffffffffffffffffffffffffffffffffffffff16036122f2576040517f08c379a00000000000000000000000000000000000000000000000000000000081526004016122e99061439f565b60405180910390fd5b6122fd5f8383612aba565b8060995f82825461230e9190613baa565b925050819055508060975f8473ffffffffffffffffffffffffffffffffffffffff1673ffffffffffffffffffffffffffffffffffffffff1681526020019081526020015f205f82825401925050819055508173ffffffffffffffffffffffffffffffffffffffff165f73ffffffffffffffffffffffffffffffffffffffff167fddf252ad1be2c89b69c2b068fc378daa952ba7f163c4a11628f55a4df523b3ef836040516123bc91906134f8565b60405180910390a36123cf5f8383612abf565b5050565b50565b5f815f01549050919050565b606060cb80546123f190613abf565b80601f016020809104026020016040519081016040528092919081815260200182805461241d90613abf565b80156124685780601f1061243f57610100808354040283529160200191612468565b820191905f5260205f20905b81548152906001019060200180831161244b57829003601f168201915b5050505050905090565b606060cc805461248190613abf565b80601f01602080910402602001604051908101604052809291908181526020018280546124ad90613abf565b80156124f85780601f106124cf576101008083540402835291602001916124f8565b820191905f5260205f20905b8154815290600101906020018083116124db57829003601f168201915b5050505050905090565b6125988160405160240161251691906134f8565b6040516020818303038152906040527ff82c50f1000000000000000000000000000000000000000000000000000000007bffffffffffffffffffffffffffffffffffffffffffffffffffffffff19166020820180517bffffffffffffffffffffffffffffffffffffffffffffffffffffffff8381831617835250505050612bab565b50565b5f73ffffffffffffffffffffffffffffffffffffffff168273ffffffffffffffffffffffffffffffffffffffff1603612609576040517f08c379a00000000000000000000000000000000000000000000000000000000081526004016126009061442d565b60405180910390fd5b612614825f83612aba565b5f60975f8473ffffffffffffffffffffffffffffffffffffffff1673ffffffffffffffffffffffffffffffffffffffff1681526020019081526020015f2054905081811015612698576040517f08c379a000000000000000000000000000000000000000000000000000000000815260040161268f906144bb565b60405180910390fd5b81810360975f8573ffffffffffffffffffffffffffffffffffffffff1673ffffffffffffffffffffffffffffffffffffffff1681526020019081526020015f20819055508160995f82825403925050819055505f73ffffffffffffffffffffffffffffffffffffffff168373ffffffffffffffffffffffffffffffffffffffff167fddf252ad1be2c89b69c2b068fc378daa952ba7f163c4a11628f55a4df523b3ef8460405161274891906134f8565b60405180910390a361275b835f84612abf565b505050565b5f808273ffffffffffffffffffffffffffffffffffffffff163b119050919050565b5f60019054906101000a900460ff166127d0576040517f08c379a00000000000000000000000000000000000000000000000000000000081526004016127c790614549565b60405180910390fd5b565b5f60019054906101000a900460ff16612820576040517f08c379a000000000000000000000000000000000000000000000000000000000815260040161281790614549565b60405180910390fd5b61282a8282612bc5565b5050565b5f60019054906101000a900460ff1661287c576040517f08c379a000000000000000000000000000000000000000000000000000000000815260040161287390614549565b60405180910390fd5b6128bb816040518060400160405280600181526020017f3100000000000000000000000000000000000000000000000000000000000000815250612c37565b50565b6128d2670cfd580555bfe70060c01b6123d3565b5f60019054906101000a900460ff16612920576040517f08c379a000000000000000000000000000000000000000000000000000000000815260040161291790614549565b60405180910390fd5b61293467b36fc9d39ee6422360c01b6123d3565b612948671aa59876d086495660c01b6123d3565b61295c673f4b111ceb40ac0860c01b6123d3565b61297067195a145f8b3fa1e760c01b6123d3565b5f5b8151811015612a125761298f67c4e144961484186960c01b6123d3565b60016101305f8484815181106129a8576129a7614567565b5b602002602001015173ffffffffffffffffffffffffffffffffffffffff1673ffffffffffffffffffffffffffffffffffffffff1681526020019081526020015f205f6101000a81548160ff0219169083151502179055508080612a0a90614594565b915050612972565b5050565b5f8060fd5f8473ffffffffffffffffffffffffffffffffffffffff1673ffffffffffffffffffffffffffffffffffffffff1681526020019081526020015f209050612a60816123d6565b9150612a6b81612cbb565b50919050565b5f612a83612a7d612198565b83612ccf565b9050919050565b5f805f612a9987878787612d0f565b91509150612aa681612de7565b8192505050949350505050565b5f33905090565b505050565b505050565b612ace8282611069565b612b4457612adb81612f4c565b612ae8835f1c6020612f79565b604051602001612af99291906146a9565b6040516020818303038152906040526040517f08c379a0000000000000000000000000000000000000000000000000000000008152600401612b3b91906133fe565b60405180910390fd5b5050565b5f7f8b73c3c69bb8fe3d512ecc4cf759cc79239f7b179b0ffacaa9a75d522b39400f612b726131ae565b612b7a613215565b4630604051602001612b909594939291906146e2565b60405160208183030381529060405280519060200120905090565b612bc281612bba61327c61329b565b63ffffffff16565b50565b5f60019054906101000a900460ff16612c13576040517f08c379a0000000000000000000000000000000000000000000000000000000008152600401612c0a90614549565b60405180910390fd5b81609a9081612c2291906148c7565b5080609b9081612c3291906148c7565b505050565b5f60019054906101000a900460ff16612c85576040517f08c379a0000000000000000000000000000000000000000000000000000000008152600401612c7c90614549565b60405180910390fd5b8160cb9081612c9491906148c7565b508060cc9081612ca491906148c7565b505f801b60c9819055505f801b60ca819055505050565b6001815f015f828254019250508190555050565b5f6040517f190100000000000000000000000000000000000000000000000000000000000081528360028201528260228201526042812091505092915050565b5f807f7fffffffffffffffffffffffffffffff5d576e7357a4501ddfe92f46681b20a0835f1c1115612d47575f600391509150612dde565b5f6001878787876040515f8152602001604052604051612d6a9493929190614996565b6020604051602081039080840390855afa158015612d8a573d5f803e3d5ffd5b5050506020604051035190505f73ffffffffffffffffffffffffffffffffffffffff168173ffffffffffffffffffffffffffffffffffffffff1603612dd6575f60019250925050612dde565b805f92509250505b94509492505050565b5f6004811115612dfa57612df96149d9565b5b816004811115612e0d57612e0c6149d9565b5b0315612f495760016004811115612e2757612e266149d9565b5b816004811115612e3a57612e396149d9565b5b03612e7a576040517f08c379a0000000000000000000000000000000000000000000000000000000008152600401612e7190614a50565b60405180910390fd5b60026004811115612e8e57612e8d6149d9565b5b816004811115612ea157612ea06149d9565b5b03612ee1576040517f08c379a0000000000000000000000000000000000000000000000000000000008152600401612ed890614ab8565b60405180910390fd5b60036004811115612ef557612ef46149d9565b5b816004811115612f0857612f076149d9565b5b03612f48576040517f08c379a0000000000000000000000000000000000000000000000000000000008152600401612f3f90614b46565b60405180910390fd5b5b50565b6060612f728273ffffffffffffffffffffffffffffffffffffffff16601460ff16612f79565b9050919050565b60605f6002836002612f8b9190614b64565b612f959190613baa565b67ffffffffffffffff811115612fae57612fad61390f565b5b6040519080825280601f01601f191660200182016040528015612fe05781602001600182028036833780820191505090505b5090507f3000000000000000000000000000000000000000000000000000000000000000815f8151811061301757613016614567565b5b60200101907effffffffffffffffffffffffffffffffffffffffffffffffffffffffffffff191690815f1a9053507f78000000000000000000000000000000000000000000000000000000000000008160018151811061307a57613079614567565b5b60200101907effffffffffffffffffffffffffffffffffffffffffffffffffffffffffffff191690815f1a9053505f60018460026130b89190614b64565b6130c29190613baa565b90505b6001811115613161577f3031323334353637383961626364656600000000000000000000000000000000600f86166010811061310457613103614567565b5b1a60f81b82828151811061311b5761311a614567565b5b60200101907effffffffffffffffffffffffffffffffffffffffffffffffffffffffffffff191690815f1a905350600485901c94508061315a90614ba5565b90506130c5565b505f84146131a4576040517f08c379a000000000000000000000000000000000000000000000000000000000815260040161319b90614c16565b60405180910390fd5b8091505092915050565b5f806131b86123e2565b90505f815111156131d3578080519060200120915050613212565b5f60c95490505f801b81146131ec578092505050613212565b7fc5d2460186f7233c927e7db2dcc703c0e500b653ca82273b7bfad8045d85a470925050505b90565b5f8061321f612472565b90505f8151111561323a578080519060200120915050613279565b5f60ca5490505f801b8114613253578092505050613279565b7fc5d2460186f7233c927e7db2dcc703c0e500b653ca82273b7bfad8045d85a470925050505b90565b5f6a636f6e736f6c652e6c6f6790505f80835160208501845afa505050565b6132a6819050919050565b6132ae614c34565b565b5f604051905090565b5f80fd5b5f80fd5b5f7fffffffff0000000000000000000000000000000000000000000000000000000082169050919050565b6132f5816132c1565b81146132ff575f80fd5b50565b5f81359050613310816132ec565b92915050565b5f6020828403121561332b5761332a6132b9565b5b5f61333884828501613302565b91505092915050565b5f8115159050919050565b61335581613341565b82525050565b5f60208201905061336e5f83018461334c565b92915050565b5f81519050919050565b5f82825260208201905092915050565b5f5b838110156133ab578082015181840152602081019050613390565b5f8484015250505050565b5f601f19601f8301169050919050565b5f6133d082613374565b6133da818561337e565b93506133ea81856020860161338e565b6133f3816133b6565b840191505092915050565b5f6020820190508181035f83015261341681846133c6565b905092915050565b5f73ffffffffffffffffffffffffffffffffffffffff82169050919050565b5f6134478261341e565b9050919050565b6134578161343d565b8114613461575f80fd5b50565b5f813590506134728161344e565b92915050565b5f819050919050565b61348a81613478565b8114613494575f80fd5b50565b5f813590506134a581613481565b92915050565b5f80604083850312156134c1576134c06132b9565b5b5f6134ce85828601613464565b92505060206134df85828601613497565b9150509250929050565b6134f281613478565b82525050565b5f60208201905061350b5f8301846134e9565b92915050565b5f805f60608486031215613528576135276132b9565b5b5f61353586828701613464565b935050602061354686828701613464565b925050604061355786828701613497565b9150509250925092565b5f819050919050565b61357381613561565b811461357d575f80fd5b50565b5f8135905061358e8161356a565b92915050565b5f602082840312156135a9576135a86132b9565b5b5f6135b684828501613580565b91505092915050565b6135c881613561565b82525050565b5f6020820190506135e15f8301846135bf565b92915050565b5f80604083850312156135fd576135fc6132b9565b5b5f61360a85828601613580565b925050602061361b85828601613464565b9150509250929050565b5f60ff82169050919050565b61363a81613625565b82525050565b5f6020820190506136535f830184613631565b92915050565b5f806040838503121561366f5761366e6132b9565b5b5f61367c85828601613464565b925050602061368d85828601613464565b9150509250929050565b5f602082840312156136ac576136ab6132b9565b5b5f6136b984828501613464565b91505092915050565b5f7fff0000000000000000000000000000000000000000000000000000000000000082169050919050565b6136f6816136c2565b82525050565b6137058161343d565b82525050565b5f81519050919050565b5f82825260208201905092915050565b5f819050602082019050919050565b61373d81613478565b82525050565b5f61374e8383613734565b60208301905092915050565b5f602082019050919050565b5f6137708261370b565b61377a8185613715565b935061378583613725565b805f5b838110156137b557815161379c8882613743565b97506137a78361375a565b925050600181019050613788565b5085935050505092915050565b5f60e0820190506137d55f83018a6136ed565b81810360208301526137e781896133c6565b905081810360408301526137fb81886133c6565b905061380a60608301876134e9565b61381760808301866136fc565b61382460a08301856135bf565b81810360c08301526138368184613766565b905098975050505050505050565b61384d81613625565b8114613857575f80fd5b50565b5f8135905061386881613844565b92915050565b5f805f805f805f60e0888a031215613889576138886132b9565b5b5f6138968a828b01613464565b97505060206138a78a828b01613464565b96505060406138b88a828b01613497565b95505060606138c98a828b01613497565b94505060806138da8a828b0161385a565b93505060a06138eb8a828b01613580565b92505060c06138fc8a828b01613580565b91505092959891949750929550565b5f80fd5b7f4e487b71000000000000000000000000000000000000000000000000000000005f52604160045260245ffd5b613945826133b6565b810181811067ffffffffffffffff821117156139645761396361390f565b5b80604052505050565b5f6139766132b0565b9050613982828261393c565b919050565b5f67ffffffffffffffff8211156139a1576139a061390f565b5b602082029050602081019050919050565b5f80fd5b5f6139c86139c384613987565b61396d565b905080838252602082019050602084028301858111156139eb576139ea6139b2565b5b835b81811015613a145780613a008882613464565b8452602084019350506020810190506139ed565b5050509392505050565b5f82601f830112613a3257613a3161390b565b5b8135613a428482602086016139b6565b91505092915050565b5f60208284031215613a6057613a5f6132b9565b5b5f82013567ffffffffffffffff811115613a7d57613a7c6132bd565b5b613a8984828501613a1e565b91505092915050565b7f4e487b71000000000000000000000000000000000000000000000000000000005f52602260045260245ffd5b5f6002820490506001821680613ad657607f821691505b602082108103613ae957613ae8613a92565b5b50919050565b7f416363657373436f6e74726f6c3a2063616e206f6e6c792072656e6f756e63655f8201527f20726f6c657320666f722073656c660000000000000000000000000000000000602082015250565b5f613b49602f8361337e565b9150613b5482613aef565b604082019050919050565b5f6020820190508181035f830152613b7681613b3d565b9050919050565b7f4e487b71000000000000000000000000000000000000000000000000000000005f52601160045260245ffd5b5f613bb482613478565b9150613bbf83613478565b9250828201905080821115613bd757613bd6613b7d565b5b92915050565b5f602082019050613bf05f8301846136fc565b92915050565b5f81519050613c0481613481565b92915050565b5f60208284031215613c1f57613c1e6132b9565b5b5f613c2c84828501613bf6565b91505092915050565b5f604082019050613c485f8301856136fc565b613c5560208301846134e9565b9392505050565b613c6581613341565b8114613c6f575f80fd5b50565b5f81519050613c8081613c5c565b92915050565b5f60208284031215613c9b57613c9a6132b9565b5b5f613ca884828501613c72565b91505092915050565b7f784e474e2f6e6f742d6c697665000000000000000000000000000000000000005f82015250565b5f613ce5600d8361337e565b9150613cf082613cb1565b602082019050919050565b5f6020820190508181035f830152613d1281613cd9565b9050919050565b7f4549503731323a20556e696e697469616c697a656400000000000000000000005f82015250565b5f613d4d60158361337e565b9150613d5882613d19565b602082019050919050565b5f6020820190508181035f830152613d7a81613d41565b9050919050565b7f496e697469616c697a61626c653a20636f6e747261637420697320616c7265615f8201527f647920696e697469616c697a6564000000000000000000000000000000000000602082015250565b5f613ddb602e8361337e565b9150613de682613d81565b604082019050919050565b5f6020820190508181035f830152613e0881613dcf565b9050919050565b5f819050919050565b5f819050919050565b5f613e3b613e36613e3184613e0f565b613e18565b613625565b9050919050565b613e4b81613e21565b82525050565b5f602082019050613e645f830184613e42565b92915050565b7f45524332303a2064656372656173656420616c6c6f77616e63652062656c6f775f8201527f207a65726f000000000000000000000000000000000000000000000000000000602082015250565b5f613ec460258361337e565b9150613ecf82613e6a565b604082019050919050565b5f6020820190508181035f830152613ef181613eb8565b9050919050565b7f45524332305065726d69743a206578706972656420646561646c696e650000005f82015250565b5f613f2c601d8361337e565b9150613f3782613ef8565b602082019050919050565b5f6020820190508181035f830152613f5981613f20565b9050919050565b5f60c082019050613f735f8301896135bf565b613f8060208301886136fc565b613f8d60408301876136fc565b613f9a60608301866134e9565b613fa760808301856134e9565b613fb460a08301846134e9565b979650505050505050565b7f45524332305065726d69743a20696e76616c6964207369676e617475726500005f82015250565b5f613ff3601e8361337e565b9150613ffe82613fbf565b602082019050919050565b5f6020820190508181035f83015261402081613fe7565b9050919050565b7f45524332303a20617070726f76652066726f6d20746865207a65726f206164645f8201527f7265737300000000000000000000000000000000000000000000000000000000602082015250565b5f61408160248361337e565b915061408c82614027565b604082019050919050565b5f6020820190508181035f8301526140ae81614075565b9050919050565b7f45524332303a20617070726f766520746f20746865207a65726f2061646472655f8201527f7373000000000000000000000000000000000000000000000000000000000000602082015250565b5f61410f60228361337e565b915061411a826140b5565b604082019050919050565b5f6020820190508181035f83015261413c81614103565b9050919050565b7f45524332303a20696e73756666696369656e7420616c6c6f77616e63650000005f82015250565b5f614177601d8361337e565b915061418282614143565b602082019050919050565b5f6020820190508181035f8301526141a48161416b565b9050919050565b7f45524332303a207472616e736665722066726f6d20746865207a65726f2061645f8201527f6472657373000000000000000000000000000000000000000000000000000000602082015250565b5f61420560258361337e565b9150614210826141ab565b604082019050919050565b5f6020820190508181035f830152614232816141f9565b9050919050565b7f45524332303a207472616e7366657220746f20746865207a65726f20616464725f8201527f6573730000000000000000000000000000000000000000000000000000000000602082015250565b5f61429360238361337e565b915061429e82614239565b604082019050919050565b5f6020820190508181035f8301526142c081614287565b9050919050565b7f45524332303a207472616e7366657220616d6f756e74206578636565647320625f8201527f616c616e63650000000000000000000000000000000000000000000000000000602082015250565b5f61432160268361337e565b915061432c826142c7565b604082019050919050565b5f6020820190508181035f83015261434e81614315565b9050919050565b7f45524332303a206d696e7420746f20746865207a65726f2061646472657373005f82015250565b5f614389601f8361337e565b915061439482614355565b602082019050919050565b5f6020820190508181035f8301526143b68161437d565b9050919050565b7f45524332303a206275726e2066726f6d20746865207a65726f206164647265735f8201527f7300000000000000000000000000000000000000000000000000000000000000602082015250565b5f61441760218361337e565b9150614422826143bd565b604082019050919050565b5f6020820190508181035f8301526144448161440b565b9050919050565b7f45524332303a206275726e20616d6f756e7420657863656564732062616c616e5f8201527f6365000000000000000000000000000000000000000000000000000000000000602082015250565b5f6144a560228361337e565b91506144b08261444b565b604082019050919050565b5f6020820190508181035f8301526144d281614499565b9050919050565b7f496e697469616c697a61626c653a20636f6e7472616374206973206e6f7420695f8201527f6e697469616c697a696e67000000000000000000000000000000000000000000602082015250565b5f614533602b8361337e565b915061453e826144d9565b604082019050919050565b5f6020820190508181035f83015261456081614527565b9050919050565b7f4e487b71000000000000000000000000000000000000000000000000000000005f52603260045260245ffd5b5f61459e82613478565b91507fffffffffffffffffffffffffffffffffffffffffffffffffffffffffffffffff82036145d0576145cf613b7d565b5b600182019050919050565b5f81905092915050565b7f416363657373436f6e74726f6c3a206163636f756e74200000000000000000005f82015250565b5f6146196017836145db565b9150614624826145e5565b601782019050919050565b5f61463982613374565b61464381856145db565b935061465381856020860161338e565b80840191505092915050565b7f206973206d697373696e6720726f6c65200000000000000000000000000000005f82015250565b5f6146936011836145db565b915061469e8261465f565b601182019050919050565b5f6146b38261460d565b91506146bf828561462f565b91506146ca82614687565b91506146d6828461462f565b91508190509392505050565b5f60a0820190506146f55f8301886135bf565b61470260208301876135bf565b61470f60408301866135bf565b61471c60608301856134e9565b61472960808301846136fc565b9695505050505050565b5f819050815f5260205f209050919050565b5f6020601f8301049050919050565b5f82821b905092915050565b5f6008830261478f7fffffffffffffffffffffffffffffffffffffffffffffffffffffffffffffffff82614754565b6147998683614754565b95508019841693508086168417925050509392505050565b5f6147cb6147c66147c184613478565b613e18565b613478565b9050919050565b5f819050919050565b6147e4836147b1565b6147f86147f0826147d2565b848454614760565b825550505050565b5f90565b61480c614800565b6148178184846147db565b505050565b5b8181101561483a5761482f5f82614804565b60018101905061481d565b5050565b601f82111561487f5761485081614733565b61485984614745565b81016020851015614868578190505b61487c61487485614745565b83018261481c565b50505b505050565b5f82821c905092915050565b5f61489f5f1984600802614884565b1980831691505092915050565b5f6148b78383614890565b9150826002028217905092915050565b6148d082613374565b67ffffffffffffffff8111156148e9576148e861390f565b5b6148f38254613abf565b6148fe82828561483e565b5f60209050601f83116001811461492f575f841561491d578287015190505b61492785826148ac565b86555061498e565b601f19841661493d86614733565b5f5b828110156149645784890151825560018201915060208501945060208101905061493f565b86831015614981578489015161497d601f891682614890565b8355505b6001600288020188555050505b505050505050565b5f6080820190506149a95f8301876135bf565b6149b66020830186613631565b6149c360408301856135bf565b6149d060608301846135bf565b95945050505050565b7f4e487b71000000000000000000000000000000000000000000000000000000005f52602160045260245ffd5b7f45434453413a20696e76616c6964207369676e617475726500000000000000005f82015250565b5f614a3a60188361337e565b9150614a4582614a06565b602082019050919050565b5f6020820190508181035f830152614a6781614a2e565b9050919050565b7f45434453413a20696e76616c6964207369676e6174757265206c656e677468005f82015250565b5f614aa2601f8361337e565b9150614aad82614a6e565b602082019050919050565b5f6020820190508181035f830152614acf81614a96565b9050919050565b7f45434453413a20696e76616c6964207369676e6174757265202773272076616c5f8201527f7565000000000000000000000000000000000000000000000000000000000000602082015250565b5f614b3060228361337e565b9150614b3b82614ad6565b604082019050919050565b5f6020820190508181035f830152614b5d81614b24565b9050919050565b5f614b6e82613478565b9150614b7983613478565b9250828202614b8781613478565b91508282048414831517614b9e57614b9d613b7d565b5b5092915050565b5f614baf82613478565b91505f8203614bc157614bc0613b7d565b5b600182039050919050565b7f537472696e67733a20686578206c656e67746820696e73756666696369656e745f82015250565b5f614c0060208361337e565b9150614c0b82614bcc565b602082019050919050565b5f6020820190508181035f830152614c2d81614bf4565b9050919050565b7f4e487b71000000000000000000000000000000000000000000000000000000005f52605160045260245ffdfea264697066735822122049e57165f43d17f9eb5fac8b723463e34cf459387405100f887cbb07d0f8a1aa64736f6c63430008150033",
  "linkReferences": {},
  "deployedLinkReferences": {}
}