{
  "_format": "hh-sol-artifact-1",
  "contractName": "xNGNAdapter",
  "sourceName": "contracts/adapter.sol",
  "abi": [
    {
      "inputs": [
        {
          "internalType": "string",
          "name": "error",
          "type": "string"
        }
      ],
      "name": "NotLive",
      "type": "error"
    },
    {
      "inputs": [
        {
          "internalType": "string",
          "name": "error",
          "type": "string"
        }
      ],
      "name": "NotOwner",
      "type": "error"
    },
    {
      "inputs": [
        {
          "internalType": "string",
          "name": "error",
          "type": "string"
        }
      ],
      "name": "ZeroAmount",
      "type": "error"
    },
    {
      "anonymous": false,
      "inputs": [
        {
          "indexed": false,
          "internalType": "uint8",
          "name": "version",
          "type": "uint8"
        }
      ],
      "name": "Initialized",
      "type": "event"
    },
    {
      "anonymous": false,
      "inputs": [
        {
          "indexed": true,
          "internalType": "bytes32",
          "name": "role",
          "type": "bytes32"
        },
        {
          "indexed": true,
          "internalType": "bytes32",
          "name": "previousAdminRole",
          "type": "bytes32"
        },
        {
          "indexed": true,
          "internalType": "bytes32",
          "name": "newAdminRole",
          "type": "bytes32"
        }
      ],
      "name": "RoleAdminChanged",
      "type": "event"
    },
    {
      "anonymous": false,
      "inputs": [
        {
          "indexed": true,
          "internalType": "bytes32",
          "name": "role",
          "type": "bytes32"
        },
        {
          "indexed": true,
          "internalType": "address",
          "name": "account",
          "type": "address"
        },
        {
          "indexed": true,
          "internalType": "address",
          "name": "sender",
          "type": "address"
        }
      ],
      "name": "RoleGranted",
      "type": "event"
    },
    {
      "anonymous": false,
      "inputs": [
        {
          "indexed": true,
          "internalType": "bytes32",
          "name": "role",
          "type": "bytes32"
        },
        {
          "indexed": true,
          "internalType": "address",
          "name": "account",
          "type": "address"
        },
        {
          "indexed": true,
          "internalType": "address",
          "name": "sender",
          "type": "address"
        }
      ],
      "name": "RoleRevoked",
      "type": "event"
    },
    {
      "anonymous": false,
      "inputs": [
        {
          "indexed": false,
          "internalType": "uint256",
          "name": "vaultId",
          "type": "uint256"
        },
        {
          "indexed": true,
          "internalType": "address",
          "name": "owner",
          "type": "address"
        },
        {
          "indexed": false,
          "internalType": "uint256",
          "name": "amount",
          "type": "uint256"
        }
      ],
      "name": "xNGNExited",
      "type": "event"
    },
    {
      "anonymous": false,
      "inputs": [
        {
          "indexed": false,
          "internalType": "uint256",
          "name": "vaultId",
          "type": "uint256"
        },
        {
          "indexed": true,
          "internalType": "address",
          "name": "owner",
          "type": "address"
        },
        {
          "indexed": false,
          "internalType": "uint256",
          "name": "amount",
          "type": "uint256"
        }
      ],
      "name": "xNGNJoined",
      "type": "event"
    },
    {
      "inputs": [],
      "name": "DEFAULT_ADMIN_ROLE",
      "outputs": [
        {
          "internalType": "bytes32",
          "name": "",
          "type": "bytes32"
        }
      ],
      "stateMutability": "view",
      "type": "function"
    },
    {
      "inputs": [
        {
          "internalType": "uint256",
          "name": "amount",
          "type": "uint256"
        },
        {
          "internalType": "address",
          "name": "owner",
          "type": "address"
        },
        {
          "internalType": "uint256",
          "name": "_vaultId",
          "type": "uint256"
        }
      ],
      "name": "exit",
      "outputs": [],
      "stateMutability": "nonpayable",
      "type": "function"
    },
    {
      "inputs": [
        {
          "internalType": "bytes32",
          "name": "role",
          "type": "bytes32"
        }
      ],
      "name": "getRoleAdmin",
      "outputs": [
        {
          "internalType": "bytes32",
          "name": "",
          "type": "bytes32"
        }
      ],
      "stateMutability": "view",
      "type": "function"
    },
    {
      "inputs": [
        {
          "internalType": "bytes32",
          "name": "role",
          "type": "bytes32"
        },
        {
          "internalType": "address",
          "name": "account",
          "type": "address"
        }
      ],
      "name": "grantRole",
      "outputs": [],
      "stateMutability": "nonpayable",
      "type": "function"
    },
    {
      "inputs": [
        {
          "internalType": "bytes32",
          "name": "role",
          "type": "bytes32"
        },
        {
          "internalType": "address",
          "name": "account",
          "type": "address"
        }
      ],
      "name": "hasRole",
      "outputs": [
        {
          "internalType": "bool",
          "name": "",
          "type": "bool"
        }
      ],
      "stateMutability": "view",
      "type": "function"
    },
    {
      "inputs": [
        {
          "internalType": "address",
          "name": "_vault",
          "type": "address"
        },
        {
          "internalType": "address",
          "name": "_xNGN",
          "type": "address"
        }
      ],
      "name": "initialize",
      "outputs": [],
      "stateMutability": "nonpayable",
      "type": "function"
    },
    {
      "inputs": [
        {
          "internalType": "uint256",
          "name": "amount",
          "type": "uint256"
        },
        {
          "internalType": "address",
          "name": "owner",
          "type": "address"
        },
        {
          "internalType": "uint256",
          "name": "_vaultId",
          "type": "uint256"
        }
      ],
      "name": "join",
      "outputs": [],
      "stateMutability": "nonpayable",
      "type": "function"
    },
    {
      "inputs": [],
      "name": "live",
      "outputs": [
        {
          "internalType": "uint256",
          "name": "",
          "type": "uint256"
        }
      ],
      "stateMutability": "view",
      "type": "function"
    },
    {
      "inputs": [
        {
          "internalType": "bytes32",
          "name": "role",
          "type": "bytes32"
        },
        {
          "internalType": "address",
          "name": "account",
          "type": "address"
        }
      ],
      "name": "renounceRole",
      "outputs": [],
      "stateMutability": "nonpayable",
      "type": "function"
    },
    {
      "inputs": [
        {
          "internalType": "bytes32",
          "name": "role",
          "type": "bytes32"
        },
        {
          "internalType": "address",
          "name": "account",
          "type": "address"
        }
      ],
      "name": "revokeRole",
      "outputs": [],
      "stateMutability": "nonpayable",
      "type": "function"
    },
    {
      "inputs": [
        {
          "internalType": "bytes4",
          "name": "interfaceId",
          "type": "bytes4"
        }
      ],
      "name": "supportsInterface",
      "outputs": [
        {
          "internalType": "bool",
          "name": "",
          "type": "bool"
        }
      ],
      "stateMutability": "view",
      "type": "function"
    },
    {
      "inputs": [],
      "name": "vaultContract",
      "outputs": [
        {
          "internalType": "contract IVault",
          "name": "",
          "type": "address"
        }
      ],
      "stateMutability": "view",
      "type": "function"
    },
    {
      "inputs": [],
      "name": "xNGN",
      "outputs": [
        {
          "internalType": "contract IxNGN",
          "name": "",
          "type": "address"
        }
      ],
      "stateMutability": "view",
      "type": "function"
    }
  ],
  "bytecode": "0x608060405234801561000f575f80fd5b506120e78061001d5f395ff3fe608060405234801561000f575f80fd5b50600436106100cd575f3560e01c8063485cc9551161008a578063957aa58c11610064578063957aa58c1461020d578063a217fddf1461022b578063ad89498214610249578063d547741f14610265576100cd565b8063485cc955146101a55780637613c1d2146101c157806391d14854146101dd576100cd565b806301ffc9a7146100d157806312adcf96146101015780632274346b1461011f578063248a9ca31461013d5780632f2ff15d1461016d57806336568abe14610189575b5f80fd5b6100eb60048036038101906100e69190611633565b610281565b6040516100f89190611678565b60405180910390f35b6101096102fa565b604051610116919061170b565b60405180910390f35b61012761031f565b6040516101349190611744565b60405180910390f35b61015760048036038101906101529190611790565b610344565b60405161016491906117ca565b60405180910390f35b6101876004803603810190610182919061181e565b610361565b005b6101a3600480360381019061019e919061181e565b610382565b005b6101bf60048036038101906101ba919061185c565b610405565b005b6101db60048036038101906101d691906118cd565b61069b565b005b6101f760048036038101906101f2919061181e565b610a55565b6040516102049190611678565b60405180910390f35b610215610ab9565b604051610222919061192c565b60405180910390f35b610233610abf565b60405161024091906117ca565b60405180910390f35b610263600480360381019061025e91906118cd565b610ac5565b005b61027f600480360381019061027a919061181e565b611016565b005b5f7f7965db0b000000000000000000000000000000000000000000000000000000007bffffffffffffffffffffffffffffffffffffffffffffffffffffffff1916827bffffffffffffffffffffffffffffffffffffffffffffffffffffffff191614806102f357506102f282611037565b5b9050919050565b60985f9054906101000a900473ffffffffffffffffffffffffffffffffffffffff1681565b60975f9054906101000a900473ffffffffffffffffffffffffffffffffffffffff1681565b5f60655f8381526020019081526020015f20600101549050919050565b61036a82610344565b610373816110a0565b61037d83836110b4565b505050565b61038a61118f565b73ffffffffffffffffffffffffffffffffffffffff168173ffffffffffffffffffffffffffffffffffffffff16146103f7576040517f08c379a00000000000000000000000000000000000000000000000000000000081526004016103ee906119c5565b60405180910390fd5b6104018282611196565b5050565b6104196764948cce4aade44c60c01b611271565b5f8060019054906101000a900460ff16159050808015610448575060015f8054906101000a900460ff1660ff16105b80610474575061045730611274565b158015610473575060015f8054906101000a900460ff1660ff16145b5b6104b3576040517f08c379a00000000000000000000000000000000000000000000000000000000081526004016104aa90611a53565b60405180910390fd5b60015f806101000a81548160ff021916908360ff16021790555080156104ee5760015f60016101000a81548160ff0219169083151502179055505b61050267448f9a08e594f10c60c01b611271565b61051667afbdff5a8cab7b9760c01b611271565b61052a6725ff4e0b2d842f4760c01b611271565b61053e676349726a0e8449fb60c01b611271565b610546611296565b61055a670ed89670d6d6254960c01b611271565b61056e678045dd9107d7e76660c01b611271565b61057a5f801b336112e6565b61058e676f6375ac7031704560c01b611271565b8260975f6101000a81548173ffffffffffffffffffffffffffffffffffffffff021916908373ffffffffffffffffffffffffffffffffffffffff1602179055506105e26763bfdfb0b958f42b60c01b611271565b8160985f6101000a81548173ffffffffffffffffffffffffffffffffffffffff021916908373ffffffffffffffffffffffffffffffffffffffff16021790555061063667e9fb29bdf5db178260c01b611271565b60016099819055508015610696575f8060016101000a81548160ff0219169083151502179055507f7f26b83ff96e1f2b6a682f133852f6798a09c465da95921460cefb3847402498600160405161068d9190611ab6565b60405180910390a15b505050565b6106af674fa519ff11e8654660c01b611271565b6106c3679560ff74eb39eafa60c01b611271565b6106d767a0f1bc377ba9b48d60c01b611271565b6106eb6777ac7308fdc4a81660c01b611271565b6001609954146107585761070967c2fef95023cb999860c01b611271565b61071d67ef0c93677f76016660c01b611271565b6040517fa1875fdb00000000000000000000000000000000000000000000000000000000815260040161074f90611b19565b60405180910390fd5b61076c67475475fe83bac37460c01b611271565b6107806761c1a0adea9aa3e960c01b611271565b610794676d29354d12d3e41560c01b611271565b6107a867ca5dc268cac7b4ee60c01b611271565b6107bc67833990c54127041e60c01b611271565b6107d06783560854666278af60c01b611271565b5f831161083a576107eb67c85c1844493c904160c01b611271565b6107ff67f905879c99779f1f60c01b611271565b6040517f3b3e635000000000000000000000000000000000000000000000000000000000815260040161083190611b81565b60405180910390fd5b61084e676f30de498a5ce4cf60c01b611271565b610862675ca8c840d5f5a09860c01b611271565b610876674a3bd41cca80324b60c01b611271565b60975f9054906101000a900473ffffffffffffffffffffffffffffffffffffffff1673ffffffffffffffffffffffffffffffffffffffff1663ecb136d482856040518363ffffffff1660e01b81526004016108d2929190611b9f565b6020604051808303815f875af11580156108ee573d5f803e3d5ffd5b505050506040513d601f19601f820116820180604052508101906109129190611bf0565b50610927672a29150a310934c460c01b611271565b61093b67cee034bbf09ae45c60c01b611271565b60985f9054906101000a900473ffffffffffffffffffffffffffffffffffffffff1673ffffffffffffffffffffffffffffffffffffffff16639dc29fac83856040518363ffffffff1660e01b8152600401610997929190611c2a565b6020604051808303815f875af11580156109b3573d5f803e3d5ffd5b505050506040513d601f19601f820116820180604052508101906109d79190611bf0565b506109ec67dd9d0eacdfde669a60c01b611271565b610a00678b0c9f767b35fe8a60c01b611271565b8173ffffffffffffffffffffffffffffffffffffffff167f89808a0e4fd7ea20ae36aee6bf65cf9d736981bd545d01abcd0e6f5ee2c27aa58285604051610a48929190611b9f565b60405180910390a2505050565b5f60655f8481526020019081526020015f205f015f8373ffffffffffffffffffffffffffffffffffffffff1673ffffffffffffffffffffffffffffffffffffffff1681526020019081526020015f205f9054906101000a900460ff16905092915050565b60995481565b5f801b81565b610ad967fd6f8197e1c2da3a60c01b611271565b610aed679560ff74eb39eafa60c01b611271565b610b0167a0f1bc377ba9b48d60c01b611271565b610b156777ac7308fdc4a81660c01b611271565b600160995414610b8257610b3367c2fef95023cb999860c01b611271565b610b4767ef0c93677f76016660c01b611271565b6040517fa1875fdb000000000000000000000000000000000000000000000000000000008152600401610b7990611b19565b60405180910390fd5b610b9667475475fe83bac37460c01b611271565b610baa6761c1a0adea9aa3e960c01b611271565b610bbe67790d8a11902a129560c01b611271565b610bd26767a5f8a69921034860c01b611271565b610be667fb49c948145528f460c01b611271565b610bfa679e9b7fc7d713b0cd60c01b611271565b5f8311610c6457610c1567a238b9c9c51e98f460c01b611271565b610c296784c051ab46d0b86d60c01b611271565b6040517f3b3e6350000000000000000000000000000000000000000000000000000000008152600401610c5b90611b81565b60405180910390fd5b610c7867ab4f45a670acca5760c01b611271565b610c8c6757126d3aaa9d85b060c01b611271565b610ca067ba25315ca976794160c01b611271565b5f60975f9054906101000a900473ffffffffffffffffffffffffffffffffffffffff1673ffffffffffffffffffffffffffffffffffffffff166319975090836040518263ffffffff1660e01b8152600401610cfb919061192c565b602060405180830381865afa158015610d16573d5f803e3d5ffd5b505050506040513d601f19601f82011682018060405250810190610d3a9190611c65565b9050610d50679a291e7e4b895d3760c01b611271565b610d64671092f065a3f8b57360c01b611271565b8273ffffffffffffffffffffffffffffffffffffffff168173ffffffffffffffffffffffffffffffffffffffff1614610dfa57610dab67541c07bf2c2af9f860c01b611271565b610dbf6726112daf7bff640060c01b611271565b6040517ff7251ccf000000000000000000000000000000000000000000000000000000008152600401610df190611cda565b60405180910390fd5b610e0e67147d342b9b46c26a60c01b611271565b610e2267474c60b62e9a738460c01b611271565b610e36671cd7699837f195cd60c01b611271565b60975f9054906101000a900473ffffffffffffffffffffffffffffffffffffffff1673ffffffffffffffffffffffffffffffffffffffff1663b78efdca83866040518363ffffffff1660e01b8152600401610e92929190611b9f565b6020604051808303815f875af1158015610eae573d5f803e3d5ffd5b505050506040513d601f19601f82011682018060405250810190610ed29190611bf0565b50610ee7672534bd459a03616160c01b611271565b610efb6703ba422bacfb1eec60c01b611271565b60985f9054906101000a900473ffffffffffffffffffffffffffffffffffffffff1673ffffffffffffffffffffffffffffffffffffffff166340c10f1984866040518363ffffffff1660e01b8152600401610f57929190611c2a565b6020604051808303815f875af1158015610f73573d5f803e3d5ffd5b505050506040513d601f19601f82011682018060405250810190610f979190611bf0565b50610fac67f5fabde2aa894b6160c01b611271565b610fc067443be80e8800d38360c01b611271565b8273ffffffffffffffffffffffffffffffffffffffff167f6b829b6b1c2edad992eb4a7878c4858e520e2572d34bac0c8aba5e23fe1d17248386604051611008929190611b9f565b60405180910390a250505050565b61101f82610344565b611028816110a0565b6110328383611196565b505050565b5f7f01ffc9a7000000000000000000000000000000000000000000000000000000007bffffffffffffffffffffffffffffffffffffffffffffffffffffffff1916827bffffffffffffffffffffffffffffffffffffffffffffffffffffffff1916149050919050565b6110b1816110ac61118f565b6112f4565b50565b6110be8282610a55565b61118b57600160655f8481526020019081526020015f205f015f8373ffffffffffffffffffffffffffffffffffffffff1673ffffffffffffffffffffffffffffffffffffffff1681526020019081526020015f205f6101000a81548160ff02191690831515021790555061113061118f565b73ffffffffffffffffffffffffffffffffffffffff168173ffffffffffffffffffffffffffffffffffffffff16837f2f8788117e7eff1d82e926ec794901d17c78024a50270940304540a733656f0d60405160405180910390a45b5050565b5f33905090565b6111a08282610a55565b1561126d575f60655f8481526020019081526020015f205f015f8373ffffffffffffffffffffffffffffffffffffffff1673ffffffffffffffffffffffffffffffffffffffff1681526020019081526020015f205f6101000a81548160ff02191690831515021790555061121261118f565b73ffffffffffffffffffffffffffffffffffffffff168173ffffffffffffffffffffffffffffffffffffffff16837ff6391f5c32d9c69d2a47ea670b442974b53935d1edc7fd64eb21e047a839171b60405160405180910390a45b5050565b50565b5f808273ffffffffffffffffffffffffffffffffffffffff163b119050919050565b5f60019054906101000a900460ff166112e4576040517f08c379a00000000000000000000000000000000000000000000000000000000081526004016112db90611d68565b60405180910390fd5b565b6112f082826110b4565b5050565b6112fe8282610a55565b6113745761130b81611378565b611318835f1c60206113a5565b604051602001611329929190611e86565b6040516020818303038152906040526040517f08c379a000000000000000000000000000000000000000000000000000000000815260040161136b9190611f07565b60405180910390fd5b5050565b606061139e8273ffffffffffffffffffffffffffffffffffffffff16601460ff166113a5565b9050919050565b60605f60028360026113b79190611f54565b6113c19190611f95565b67ffffffffffffffff8111156113da576113d9611fc8565b5b6040519080825280601f01601f19166020018201604052801561140c5781602001600182028036833780820191505090505b5090507f3000000000000000000000000000000000000000000000000000000000000000815f8151811061144357611442611ff5565b5b60200101907effffffffffffffffffffffffffffffffffffffffffffffffffffffffffffff191690815f1a9053507f7800000000000000000000000000000000000000000000000000000000000000816001815181106114a6576114a5611ff5565b5b60200101907effffffffffffffffffffffffffffffffffffffffffffffffffffffffffffff191690815f1a9053505f60018460026114e49190611f54565b6114ee9190611f95565b90505b600181111561158d577f3031323334353637383961626364656600000000000000000000000000000000600f8616601081106115305761152f611ff5565b5b1a60f81b82828151811061154757611546611ff5565b5b60200101907effffffffffffffffffffffffffffffffffffffffffffffffffffffffffffff191690815f1a905350600485901c94508061158690612022565b90506114f1565b505f84146115d0576040517f08c379a00000000000000000000000000000000000000000000000000000000081526004016115c790612093565b60405180910390fd5b8091505092915050565b5f80fd5b5f7fffffffff0000000000000000000000000000000000000000000000000000000082169050919050565b611612816115de565b811461161c575f80fd5b50565b5f8135905061162d81611609565b92915050565b5f60208284031215611648576116476115da565b5b5f6116558482850161161f565b91505092915050565b5f8115159050919050565b6116728161165e565b82525050565b5f60208201905061168b5f830184611669565b92915050565b5f73ffffffffffffffffffffffffffffffffffffffff82169050919050565b5f819050919050565b5f6116d36116ce6116c984611691565b6116b0565b611691565b9050919050565b5f6116e4826116b9565b9050919050565b5f6116f5826116da565b9050919050565b611705816116eb565b82525050565b5f60208201905061171e5f8301846116fc565b92915050565b5f61172e826116da565b9050919050565b61173e81611724565b82525050565b5f6020820190506117575f830184611735565b92915050565b5f819050919050565b61176f8161175d565b8114611779575f80fd5b50565b5f8135905061178a81611766565b92915050565b5f602082840312156117a5576117a46115da565b5b5f6117b28482850161177c565b91505092915050565b6117c48161175d565b82525050565b5f6020820190506117dd5f8301846117bb565b92915050565b5f6117ed82611691565b9050919050565b6117fd816117e3565b8114611807575f80fd5b50565b5f81359050611818816117f4565b92915050565b5f8060408385031215611834576118336115da565b5b5f6118418582860161177c565b92505060206118528582860161180a565b9150509250929050565b5f8060408385031215611872576118716115da565b5b5f61187f8582860161180a565b92505060206118908582860161180a565b9150509250929050565b5f819050919050565b6118ac8161189a565b81146118b6575f80fd5b50565b5f813590506118c7816118a3565b92915050565b5f805f606084860312156118e4576118e36115da565b5b5f6118f1868287016118b9565b93505060206119028682870161180a565b9250506040611913868287016118b9565b9150509250925092565b6119268161189a565b82525050565b5f60208201905061193f5f83018461191d565b92915050565b5f82825260208201905092915050565b7f416363657373436f6e74726f6c3a2063616e206f6e6c792072656e6f756e63655f8201527f20726f6c657320666f722073656c660000000000000000000000000000000000602082015250565b5f6119af602f83611945565b91506119ba82611955565b604082019050919050565b5f6020820190508181035f8301526119dc816119a3565b9050919050565b7f496e697469616c697a61626c653a20636f6e747261637420697320616c7265615f8201527f647920696e697469616c697a6564000000000000000000000000000000000000602082015250565b5f611a3d602e83611945565b9150611a48826119e3565b604082019050919050565b5f6020820190508181035f830152611a6a81611a31565b9050919050565b5f819050919050565b5f60ff82169050919050565b5f611aa0611a9b611a9684611a71565b6116b0565b611a7a565b9050919050565b611ab081611a86565b82525050565b5f602082019050611ac95f830184611aa7565b92915050565b7f416461707465722f6e6f742d6c697665000000000000000000000000000000005f82015250565b5f611b03601083611945565b9150611b0e82611acf565b602082019050919050565b5f6020820190508181035f830152611b3081611af7565b9050919050565b7f416461707465722f616d6f756e742d69732d7a65726f000000000000000000005f82015250565b5f611b6b601683611945565b9150611b7682611b37565b602082019050919050565b5f6020820190508181035f830152611b9881611b5f565b9050919050565b5f604082019050611bb25f83018561191d565b611bbf602083018461191d565b9392505050565b611bcf8161165e565b8114611bd9575f80fd5b50565b5f81519050611bea81611bc6565b92915050565b5f60208284031215611c0557611c046115da565b5b5f611c1284828501611bdc565b91505092915050565b611c24816117e3565b82525050565b5f604082019050611c3d5f830185611c1b565b611c4a602083018461191d565b9392505050565b5f81519050611c5f816117f4565b92915050565b5f60208284031215611c7a57611c796115da565b5b5f611c8784828501611c51565b91505092915050565b7f416461707465722f6f776e65722d6e6f742d6d617463680000000000000000005f82015250565b5f611cc4601783611945565b9150611ccf82611c90565b602082019050919050565b5f6020820190508181035f830152611cf181611cb8565b9050919050565b7f496e697469616c697a61626c653a20636f6e7472616374206973206e6f7420695f8201527f6e697469616c697a696e67000000000000000000000000000000000000000000602082015250565b5f611d52602b83611945565b9150611d5d82611cf8565b604082019050919050565b5f6020820190508181035f830152611d7f81611d46565b9050919050565b5f81905092915050565b7f416363657373436f6e74726f6c3a206163636f756e74200000000000000000005f82015250565b5f611dc4601783611d86565b9150611dcf82611d90565b601782019050919050565b5f81519050919050565b5f5b83811015611e01578082015181840152602081019050611de6565b5f8484015250505050565b5f611e1682611dda565b611e208185611d86565b9350611e30818560208601611de4565b80840191505092915050565b7f206973206d697373696e6720726f6c65200000000000000000000000000000005f82015250565b5f611e70601183611d86565b9150611e7b82611e3c565b601182019050919050565b5f611e9082611db8565b9150611e9c8285611e0c565b9150611ea782611e64565b9150611eb38284611e0c565b91508190509392505050565b5f601f19601f8301169050919050565b5f611ed982611dda565b611ee38185611945565b9350611ef3818560208601611de4565b611efc81611ebf565b840191505092915050565b5f6020820190508181035f830152611f1f8184611ecf565b905092915050565b7f4e487b71000000000000000000000000000000000000000000000000000000005f52601160045260245ffd5b5f611f5e8261189a565b9150611f698361189a565b9250828202611f778161189a565b91508282048414831517611f8e57611f8d611f27565b5b5092915050565b5f611f9f8261189a565b9150611faa8361189a565b9250828201905080821115611fc257611fc1611f27565b5b92915050565b7f4e487b71000000000000000000000000000000000000000000000000000000005f52604160045260245ffd5b7f4e487b71000000000000000000000000000000000000000000000000000000005f52603260045260245ffd5b5f61202c8261189a565b91505f820361203e5761203d611f27565b5b600182039050919050565b7f537472696e67733a20686578206c656e67746820696e73756666696369656e745f82015250565b5f61207d602083611945565b915061208882612049565b602082019050919050565b5f6020820190508181035f8301526120aa81612071565b905091905056fea2646970667358221220601c9986cc943c985ec56348af441f9b753b0a06e3f6bfca36746877484c3f1964736f6c63430008150033",
  "linkReferences": {},
  "deployedLinkReferences": {}
}